{
  "_format": "hh-sol-artifact-1",
  "contractName": "PrivateAirdrop",
  "sourceName": "contracts/PrivateAirdrop.sol",
  "abi": [
    {
      "inputs": [
        {
          "internalType": "contract IERC20",
          "name": "_airdropToken",
          "type": "address"
        },
        {
          "internalType": "uint256",
          "name": "_amountPerRedemption",
          "type": "uint256"
        },
        {
          "internalType": "contract IPlonkVerifier",
          "name": "_verifier",
          "type": "address"
        },
        {
          "internalType": "bytes32",
          "name": "_root",
          "type": "bytes32"
        }
      ],
      "stateMutability": "nonpayable",
      "type": "constructor"
    },
    {
      "anonymous": false,
      "inputs": [
        {
          "indexed": true,
          "internalType": "address",
          "name": "previousOwner",
          "type": "address"
        },
        {
          "indexed": true,
          "internalType": "address",
          "name": "newOwner",
          "type": "address"
        }
      ],
      "name": "OwnershipTransferred",
      "type": "event"
    },
    {
      "inputs": [],
      "name": "airdropToken",
      "outputs": [
        {
          "internalType": "contract IERC20",
          "name": "",
          "type": "address"
        }
      ],
      "stateMutability": "view",
      "type": "function"
    },
    {
      "inputs": [],
      "name": "amountPerRedemption",
      "outputs": [
        {
          "internalType": "uint256",
          "name": "",
          "type": "uint256"
        }
      ],
      "stateMutability": "view",
      "type": "function"
    },
    {
      "inputs": [
        {
          "internalType": "address",
          "name": "user",
          "type": "address"
        }
      ],
      "name": "claimed",
      "outputs": [
        {
          "internalType": "bool",
          "name": "",
          "type": "bool"
        }
      ],
      "stateMutability": "view",
      "type": "function"
    },
    {
      "inputs": [
        {
          "internalType": "bytes",
          "name": "proof",
          "type": "bytes"
        },
        {
          "internalType": "bytes32",
          "name": "nullifierHash",
          "type": "bytes32"
        }
      ],
      "name": "collectAirdrop",
      "outputs": [],
      "stateMutability": "nonpayable",
      "type": "function"
    },
    {
      "inputs": [
        {
          "internalType": "address",
          "name": "",
          "type": "address"
        }
      ],
      "name": "hasClaimed",
      "outputs": [
        {
          "internalType": "bool",
          "name": "",
          "type": "bool"
        }
      ],
      "stateMutability": "view",
      "type": "function"
    },
    {
      "inputs": [
        {
          "internalType": "bytes32",
          "name": "",
          "type": "bytes32"
        }
      ],
      "name": "nullifierSpent",
      "outputs": [
        {
          "internalType": "bool",
          "name": "",
          "type": "bool"
        }
      ],
      "stateMutability": "view",
      "type": "function"
    },
    {
      "inputs": [],
      "name": "owner",
      "outputs": [
        {
          "internalType": "address",
          "name": "",
          "type": "address"
        }
      ],
      "stateMutability": "view",
      "type": "function"
    },
    {
      "inputs": [],
      "name": "renounceOwnership",
      "outputs": [],
      "stateMutability": "nonpayable",
      "type": "function"
    },
    {
      "inputs": [],
      "name": "root",
      "outputs": [
        {
          "internalType": "bytes32",
          "name": "",
          "type": "bytes32"
        }
      ],
      "stateMutability": "view",
      "type": "function"
    },
    {
      "inputs": [
        {
          "internalType": "address",
          "name": "newOwner",
          "type": "address"
        }
      ],
      "name": "transferOwnership",
      "outputs": [],
      "stateMutability": "nonpayable",
      "type": "function"
    },
    {
      "inputs": [
        {
          "internalType": "bytes32",
          "name": "newRoot",
          "type": "bytes32"
        }
      ],
      "name": "updateRoot",
      "outputs": [],
      "stateMutability": "nonpayable",
      "type": "function"
    }
  ],
  "bytecode": "0x60e060405234801561001057600080fd5b50604051610a0d380380610a0d83398101604081905261002f916100c2565b6100383361005a565b6001600160a01b0393841660805260c09290925290911660a05260015561010b565b600080546001600160a01b038381166001600160a01b0319831681178455604051919092169283917f8be0079c531659141344cd1fd0a4f28419497f9722a3daafe3b4186f6b6457e09190a35050565b6001600160a01b03811681146100bf57600080fd5b50565b600080600080608085870312156100d857600080fd5b84516100e3816100aa565b6020860151604087015191955093506100fb816100aa565b6060959095015193969295505050565b60805160a05160c0516108c56101486000396000818161019d01526104ef015260006103e2015260008181610133015261051d01526108c56000f3fe608060405234801561001057600080fd5b50600436106100c95760003560e01c806373b2e80e11610081578063c884ef831161005b578063c884ef83146101de578063ebf0c7171461020a578063f2fde38b1461021357600080fd5b806373b2e80e146101755780637f0d7159146101985780638da5cb5b146101cd57600080fd5b806338c86911116100b257806338c86911146100f65780634d06068a1461012e578063715018a61461016d57600080fd5b8063213e0b17146100ce57806321ff9970146100e3575b600080fd5b6100e16100dc366004610704565b610226565b005b6100e16100f136600461077c565b610591565b61011961010436600461077c565b60026020526000908152604090205460ff1681565b60405190151581526020015b60405180910390f35b6101557f000000000000000000000000000000000000000000000000000000000000000081565b6040516001600160a01b039091168152602001610125565b6100e161059e565b610119610183366004610795565b60036020526000908152604090205460ff1681565b6101bf7f000000000000000000000000000000000000000000000000000000000000000081565b604051908152602001610125565b6000546001600160a01b0316610155565b6101196101ec366004610795565b6001600160a01b031660009081526003602052604090205460ff1690565b6101bf60015481565b6100e1610221366004610795565b6105b2565b7f30644e72e131a029b85045b68181585d2833e84879b9709143e1f593f000000181106102c05760405162461bcd60e51b815260206004820152602160248201527f4e756c6c6966696572206973206e6f742077697468696e20746865206669656c60448201527f640000000000000000000000000000000000000000000000000000000000000060648201526084015b60405180910390fd5b60008181526002602052604090205460ff161561031f5760405162461bcd60e51b815260206004820152601860248201527f41697264726f7020616c72656164792072656465656d6564000000000000000060448201526064016102b7565b604080516003808252608082019092526000916020820160608036833701905050905060015460001c8160008151811061035b5761035b6107c5565b6020026020010181815250508160001c8160018151811061037e5761037e6107c5565b602002602001018181525050336001600160a01b0316816002815181106103a7576103a76107c5565b60209081029190910101526040517f1e8e1e130000000000000000000000000000000000000000000000000000000081526001600160a01b037f00000000000000000000000000000000000000000000000000000000000000001690631e8e1e139061041b908790879086906004016107f4565b602060405180830381865afa158015610438573d6000803e3d6000fd5b505050506040513d601f19601f8201168201806040525081019061045c919061086d565b6104a85760405162461bcd60e51b815260206004820152601960248201527f50726f6f6620766572696669636174696f6e206661696c65640000000000000060448201526064016102b7565b60008281526002602052604090819020805460ff19166001179055517fa9059cbb0000000000000000000000000000000000000000000000000000000081523360048201527f000000000000000000000000000000000000000000000000000000000000000060248201526001600160a01b037f0000000000000000000000000000000000000000000000000000000000000000169063a9059cbb906044016020604051808303816000875af1158015610566573d6000803e3d6000fd5b505050506040513d601f19601f8201168201806040525081019061058a919061086d565b5050505050565b610599610642565b600155565b6105a6610642565b6105b0600061069c565b565b6105ba610642565b6001600160a01b0381166106365760405162461bcd60e51b815260206004820152602660248201527f4f776e61626c653a206e6577206f776e657220697320746865207a65726f206160448201527f646472657373000000000000000000000000000000000000000000000000000060648201526084016102b7565b61063f8161069c565b50565b6000546001600160a01b031633146105b05760405162461bcd60e51b815260206004820181905260248201527f4f776e61626c653a2063616c6c6572206973206e6f7420746865206f776e657260448201526064016102b7565b600080546001600160a01b038381167fffffffffffffffffffffffff0000000000000000000000000000000000000000831681178455604051919092169283917f8be0079c531659141344cd1fd0a4f28419497f9722a3daafe3b4186f6b6457e09190a35050565b60008060006040848603121561071957600080fd5b833567ffffffffffffffff8082111561073157600080fd5b818601915086601f83011261074557600080fd5b81358181111561075457600080fd5b87602082850101111561076657600080fd5b6020928301989097509590910135949350505050565b60006020828403121561078e57600080fd5b5035919050565b6000602082840312156107a757600080fd5b81356001600160a01b03811681146107be57600080fd5b9392505050565b7f4e487b7100000000000000000000000000000000000000000000000000000000600052603260045260246000fd5b60408152826040820152828460608301376000606084830101526000601f19601f8501168201606081016020606085840301818601528186518084526080850191508288019450600093505b808410156108605784518252938201936001939093019290820190610840565b5098975050505050505050565b60006020828403121561087f57600080fd5b815180151581146107be57600080fdfea26469706673582212209f3300315e41e9421b49f7c89ab44bca4e44a37104fc36054968965d5b2a242d64736f6c63430008140033",
  "linkReferences": {},
  "deployedLinkReferences": {}
}