{
  "_format": "hh-sol-artifact-1",
  "contractName": "Defi",
  "sourceName": "contracts/Defi.sol",
  "abi": [
    {
      "inputs": [],
      "stateMutability": "nonpayable",
      "type": "constructor"
    },
    {
      "anonymous": false,
      "inputs": [
        {
          "indexed": true,
          "internalType": "address",
          "name": "owner",
          "type": "address"
        },
        {
          "indexed": true,
          "internalType": "address",
          "name": "spender",
          "type": "address"
        },
        {
          "indexed": false,
          "internalType": "uint256",
          "name": "value",
          "type": "uint256"
        }
      ],
      "name": "Approval",
      "type": "event"
    },
    {
      "anonymous": false,
      "inputs": [
        {
          "indexed": true,
          "internalType": "address",
          "name": "from",
          "type": "address"
        },
        {
          "indexed": true,
          "internalType": "address",
          "name": "to",
          "type": "address"
        },
        {
          "indexed": false,
          "internalType": "uint256",
          "name": "value",
          "type": "uint256"
        }
      ],
      "name": "Transfer",
      "type": "event"
    },
    {
      "inputs": [
        {
          "internalType": "uint256",
          "name": "amount",
          "type": "uint256"
        },
        {
          "internalType": "address",
          "name": "pubkey",
          "type": "address"
        }
      ],
      "name": "BuyTokens",
      "outputs": [],
      "stateMutability": "nonpayable",
      "type": "function"
    },
    {
      "inputs": [
        {
          "internalType": "address",
          "name": "staker",
          "type": "address"
        },
        {
          "internalType": "uint256",
          "name": "amount",
          "type": "uint256"
        }
      ],
      "name": "RewardCalculater",
      "outputs": [
        {
          "internalType": "uint256",
          "name": "",
          "type": "uint256"
        }
      ],
      "stateMutability": "view",
      "type": "function"
    },
    {
      "inputs": [
        {
          "internalType": "address",
          "name": "",
          "type": "address"
        }
      ],
      "name": "StakeStore",
      "outputs": [
        {
          "internalType": "uint256",
          "name": "amount",
          "type": "uint256"
        },
        {
          "internalType": "uint256",
          "name": "startTime",
          "type": "uint256"
        }
      ],
      "stateMutability": "view",
      "type": "function"
    },
    {
      "inputs": [
        {
          "internalType": "uint256",
          "name": "amount",
          "type": "uint256"
        },
        {
          "internalType": "address",
          "name": "pubkey",
          "type": "address"
        }
      ],
      "name": "StakeTokens",
      "outputs": [],
      "stateMutability": "nonpayable",
      "type": "function"
    },
    {
      "inputs": [
        {
          "internalType": "address",
          "name": "staker",
          "type": "address"
        }
      ],
      "name": "Stakedamount",
      "outputs": [
        {
          "internalType": "uint256",
          "name": "",
          "type": "uint256"
        }
      ],
      "stateMutability": "view",
      "type": "function"
    },
    {
      "inputs": [
        {
          "internalType": "address",
          "name": "staker",
          "type": "address"
        }
      ],
      "name": "Stakedtime",
      "outputs": [
        {
          "internalType": "uint256",
          "name": "",
          "type": "uint256"
        }
      ],
      "stateMutability": "view",
      "type": "function"
    },
    {
      "inputs": [
        {
          "internalType": "uint256",
          "name": "amount",
          "type": "uint256"
        },
        {
          "internalType": "address",
          "name": "pubkey",
          "type": "address"
        }
      ],
      "name": "UnstakeTokens",
      "outputs": [],
      "stateMutability": "nonpayable",
      "type": "function"
    },
    {
      "inputs": [
        {
          "internalType": "address",
          "name": "owner",
          "type": "address"
        },
        {
          "internalType": "address",
          "name": "spender",
          "type": "address"
        }
      ],
      "name": "allowance",
      "outputs": [
        {
          "internalType": "uint256",
          "name": "",
          "type": "uint256"
        }
      ],
      "stateMutability": "view",
      "type": "function"
    },
    {
      "inputs": [
        {
          "internalType": "address",
          "name": "spender",
          "type": "address"
        },
        {
          "internalType": "uint256",
          "name": "amount",
          "type": "uint256"
        }
      ],
      "name": "approve",
      "outputs": [
        {
          "internalType": "bool",
          "name": "",
          "type": "bool"
        }
      ],
      "stateMutability": "nonpayable",
      "type": "function"
    },
    {
      "inputs": [
        {
          "internalType": "address",
          "name": "account",
          "type": "address"
        }
      ],
      "name": "balanceOf",
      "outputs": [
        {
          "internalType": "uint256",
          "name": "",
          "type": "uint256"
        }
      ],
      "stateMutability": "view",
      "type": "function"
    },
    {
      "inputs": [
        {
          "internalType": "address",
          "name": "pukey",
          "type": "address"
        }
      ],
      "name": "checkbalance",
      "outputs": [
        {
          "internalType": "uint256",
          "name": "",
          "type": "uint256"
        }
      ],
      "stateMutability": "view",
      "type": "function"
    },
    {
      "inputs": [],
      "name": "decimals",
      "outputs": [
        {
          "internalType": "uint8",
          "name": "",
          "type": "uint8"
        }
      ],
      "stateMutability": "view",
      "type": "function"
    },
    {
      "inputs": [
        {
          "internalType": "address",
          "name": "spender",
          "type": "address"
        },
        {
          "internalType": "uint256",
          "name": "subtractedValue",
          "type": "uint256"
        }
      ],
      "name": "decreaseAllowance",
      "outputs": [
        {
          "internalType": "bool",
          "name": "",
          "type": "bool"
        }
      ],
      "stateMutability": "nonpayable",
      "type": "function"
    },
    {
      "inputs": [
        {
          "internalType": "address",
          "name": "spender",
          "type": "address"
        },
        {
          "internalType": "uint256",
          "name": "addedValue",
          "type": "uint256"
        }
      ],
      "name": "increaseAllowance",
      "outputs": [
        {
          "internalType": "bool",
          "name": "",
          "type": "bool"
        }
      ],
      "stateMutability": "nonpayable",
      "type": "function"
    },
    {
      "inputs": [],
      "name": "name",
      "outputs": [
        {
          "internalType": "string",
          "name": "",
          "type": "string"
        }
      ],
      "stateMutability": "view",
      "type": "function"
    },
    {
      "inputs": [],
      "name": "symbol",
      "outputs": [
        {
          "internalType": "string",
          "name": "",
          "type": "string"
        }
      ],
      "stateMutability": "view",
      "type": "function"
    },
    {
      "inputs": [],
      "name": "totalSupply",
      "outputs": [
        {
          "internalType": "uint256",
          "name": "",
          "type": "uint256"
        }
      ],
      "stateMutability": "view",
      "type": "function"
    },
    {
      "inputs": [
        {
          "internalType": "address",
          "name": "to",
          "type": "address"
        },
        {
          "internalType": "uint256",
          "name": "amount",
          "type": "uint256"
        }
      ],
      "name": "transfer",
      "outputs": [
        {
          "internalType": "bool",
          "name": "",
          "type": "bool"
        }
      ],
      "stateMutability": "nonpayable",
      "type": "function"
    },
    {
      "inputs": [
        {
          "internalType": "address",
          "name": "fromAdd",
          "type": "address"
        },
        {
          "internalType": "address",
          "name": "toAdd",
          "type": "address"
        },
        {
          "internalType": "uint256",
          "name": "amount",
          "type": "uint256"
        }
      ],
      "name": "transferERTN",
      "outputs": [],
      "stateMutability": "nonpayable",
      "type": "function"
    },
    {
      "inputs": [
        {
          "internalType": "address",
          "name": "from",
          "type": "address"
        },
        {
          "internalType": "address",
          "name": "to",
          "type": "address"
        },
        {
          "internalType": "uint256",
          "name": "amount",
          "type": "uint256"
        }
      ],
      "name": "transferFrom",
      "outputs": [
        {
          "internalType": "bool",
          "name": "",
          "type": "bool"
        }
      ],
      "stateMutability": "nonpayable",
      "type": "function"
    }
  ],
  "bytecode": "0x60806040523480156200001157600080fd5b506040518060400160405280600b81526020017f4552434e4557544f4b454e0000000000000000000000000000000000000000008152506040518060400160405280600481526020017f4552544e0000000000000000000000000000000000000000000000000000000081525081600390805190602001906200009692919062000244565b508060049080519060200190620000af92919062000244565b505050620000c630612710620000cc60201b60201c565b620004a0565b600073ffffffffffffffffffffffffffffffffffffffff168273ffffffffffffffffffffffffffffffffffffffff1614156200013f576040517f08c379a000000000000000000000000000000000000000000000000000000000815260040162000136906200032c565b60405180910390fd5b62000153600083836200023a60201b60201c565b80600260008282546200016791906200037c565b92505081905550806000808473ffffffffffffffffffffffffffffffffffffffff1673ffffffffffffffffffffffffffffffffffffffff168152602001908152602001600020600082825401925050819055508173ffffffffffffffffffffffffffffffffffffffff16600073ffffffffffffffffffffffffffffffffffffffff167fddf252ad1be2c89b69c2b068fc378daa952ba7f163c4a11628f55a4df523b3ef836040516200021a91906200034e565b60405180910390a362000236600083836200023f60201b60201c565b5050565b505050565b505050565b8280546200025290620003e3565b90600052602060002090601f016020900481019282620002765760008555620002c2565b82601f106200029157805160ff1916838001178555620002c2565b82800160010185558215620002c2579182015b82811115620002c1578251825591602001919060010190620002a4565b5b509050620002d19190620002d5565b5090565b5b80821115620002f0576000816000905550600101620002d6565b5090565b600062000303601f836200036b565b9150620003108262000477565b602082019050919050565b6200032681620003d9565b82525050565b600060208201905081810360008301526200034781620002f4565b9050919050565b60006020820190506200036560008301846200031b565b92915050565b600082825260208201905092915050565b60006200038982620003d9565b91506200039683620003d9565b9250827fffffffffffffffffffffffffffffffffffffffffffffffffffffffffffffffff03821115620003ce57620003cd62000419565b5b828201905092915050565b6000819050919050565b60006002820490506001821680620003fc57607f821691505b6020821081141562000413576200041262000448565b5b50919050565b7f4e487b7100000000000000000000000000000000000000000000000000000000600052601160045260246000fd5b7f4e487b7100000000000000000000000000000000000000000000000000000000600052602260045260246000fd5b7f45524332303a206d696e7420746f20746865207a65726f206164647265737300600082015250565b611df980620004b06000396000f3fe608060405234801561001057600080fd5b506004361061012c5760003560e01c80638af31645116100ad578063db543a7b11610071578063db543a7b14610392578063dd62ed3e146103ae578063dde0c657146103de578063e4c3a5321461040e578063e83029bb1461042a5761012c565b80638af31645146102b357806395d89b41146102e3578063a457c2d714610301578063a9059cbb14610331578063c913dc7d146103615761012c565b8063313ce567116100f4578063313ce567146101e957806339509351146102075780635e89fd921461023757806365759af21461026757806370a08231146102835761012c565b806306fdde0314610131578063095ea7b31461014f57806318160ddd1461017f57806322a9d91c1461019d57806323b872dd146101b9575b600080fd5b61013961045a565b60405161014691906115ef565b60405180910390f35b61016960048036038101906101649190611352565b6104ec565b60405161017691906115d4565b60405180910390f35b61018761050f565b6040516101949190611791565b60405180910390f35b6101b760048036038101906101b2919061138e565b610519565b005b6101d360048036038101906101ce9190611303565b610755565b6040516101e091906115d4565b60405180910390f35b6101f1610784565b6040516101fe91906117d5565b60405180910390f35b610221600480360381019061021c9190611352565b61078d565b60405161022e91906115d4565b60405180910390f35b610251600480360381019061024c919061129e565b6107c4565b60405161025e9190611791565b60405180910390f35b610281600480360381019061027c919061138e565b610810565b005b61029d6004803603810190610298919061129e565b610952565b6040516102aa9190611791565b60405180910390f35b6102cd60048036038101906102c89190611352565b61099a565b6040516102da9190611791565b60405180910390f35b6102eb610a9d565b6040516102f891906115ef565b60405180910390f35b61031b60048036038101906103169190611352565b610b2f565b60405161032891906115d4565b60405180910390f35b61034b60048036038101906103469190611352565b610ba6565b60405161035891906115d4565b60405180910390f35b61037b6004803603810190610376919061129e565b610bc9565b6040516103899291906117ac565b60405180910390f35b6103ac60048036038101906103a79190611303565b610bed565b005b6103c860048036038101906103c391906112c7565b610bfd565b6040516103d59190611791565b60405180910390f35b6103f860048036038101906103f3919061129e565b610c84565b6040516104059190611791565b60405180910390f35b6104286004803603810190610423919061138e565b610cd0565b005b610444600480360381019061043f919061129e565b610d29565b6040516104519190611791565b60405180910390f35b606060038054610469906119a9565b80601f0160208091040260200160405190810160405280929190818152602001828054610495906119a9565b80156104e25780601f106104b7576101008083540402835291602001916104e2565b820191906000526020600020905b8154815290600101906020018083116104c557829003601f168201915b5050505050905090565b6000806104f7610d3b565b9050610504818585610d43565b600191505092915050565b6000600254905090565b6000600560008373ffffffffffffffffffffffffffffffffffffffff1673ffffffffffffffffffffffffffffffffffffffff168152602001908152602001600020600001541161059e576040517f08c379a0000000000000000000000000000000000000000000000000000000008152600401610595906116d1565b60405180910390fd5b60006105aa828461099a565b905060006105c18285610f0e90919063ffffffff16565b90506105cc30610952565b81111561060e576040517f08c379a000000000000000000000000000000000000000000000000000000000815260040161060590611751565b60405180910390fd5b83600560008573ffffffffffffffffffffffffffffffffffffffff1673ffffffffffffffffffffffffffffffffffffffff1681526020019081526020016000206000015414156106af57600560008473ffffffffffffffffffffffffffffffffffffffff1673ffffffffffffffffffffffffffffffffffffffff16815260200190815260200160002060008082016000905560018201600090555050610744565b83600560008573ffffffffffffffffffffffffffffffffffffffff1673ffffffffffffffffffffffffffffffffffffffff168152602001908152602001600020600001546106fd91906118ed565b600560008573ffffffffffffffffffffffffffffffffffffffff1673ffffffffffffffffffffffffffffffffffffffff168152602001908152602001600020600001819055505b61074f308483610f24565b50505050565b600080610760610d3b565b905061076d85828561119c565b610778858585610f24565b60019150509392505050565b60006012905090565b600080610798610d3b565b90506107b98185856107aa8589610bfd565b6107b4919061180c565b610d43565b600191505092915050565b6000600560008373ffffffffffffffffffffffffffffffffffffffff1673ffffffffffffffffffffffffffffffffffffffff168152602001908152602001600020600001549050919050565b60008211610853576040517f08c379a000000000000000000000000000000000000000000000000000000000815260040161084a90611671565b60405180910390fd5b6000600560008373ffffffffffffffffffffffffffffffffffffffff1673ffffffffffffffffffffffffffffffffffffffff16815260200190815260200160002060000154146108d8576040517f08c379a00000000000000000000000000000000000000000000000000000000081526004016108cf90611651565b60405180910390fd5b6108e3813084610f24565b604051806040016040528083815260200142815250600560008373ffffffffffffffffffffffffffffffffffffffff1673ffffffffffffffffffffffffffffffffffffffff16815260200190815260200160002060008201518160000155602082015181600101559050505050565b60008060008373ffffffffffffffffffffffffffffffffffffffff1673ffffffffffffffffffffffffffffffffffffffff168152602001908152602001600020549050919050565b600080600560008573ffffffffffffffffffffffffffffffffffffffff1673ffffffffffffffffffffffffffffffffffffffff16815260200190815260200160002090506000816000015411610a25576040517f08c379a0000000000000000000000000000000000000000000000000000000008152600401610a1c906116d1565b60405180910390fd5b6000610a3e82600101544261122890919063ffffffff16565b90506000610a8f6064610a8161012c610a73600a610a65888c61123e90919063ffffffff16565b61123e90919063ffffffff16565b61125490919063ffffffff16565b61125490919063ffffffff16565b905080935050505092915050565b606060048054610aac906119a9565b80601f0160208091040260200160405190810160405280929190818152602001828054610ad8906119a9565b8015610b255780601f10610afa57610100808354040283529160200191610b25565b820191906000526020600020905b815481529060010190602001808311610b0857829003601f168201915b5050505050905090565b600080610b3a610d3b565b90506000610b488286610bfd565b905083811015610b8d576040517f08c379a0000000000000000000000000000000000000000000000000000000008152600401610b8490611771565b60405180910390fd5b610b9a8286868403610d43565b60019250505092915050565b600080610bb1610d3b565b9050610bbe818585610f24565b600191505092915050565b60056020528060005260406000206000915090508060000154908060010154905082565b610bf8838383610f24565b505050565b6000600160008473ffffffffffffffffffffffffffffffffffffffff1673ffffffffffffffffffffffffffffffffffffffff16815260200190815260200160002060008373ffffffffffffffffffffffffffffffffffffffff1673ffffffffffffffffffffffffffffffffffffffff16815260200190815260200160002054905092915050565b6000600560008373ffffffffffffffffffffffffffffffffffffffff1673ffffffffffffffffffffffffffffffffffffffff168152602001908152602001600020600101549050919050565b81610cda30610d29565b11610d1a576040517f08c379a0000000000000000000000000000000000000000000000000000000008152600401610d1190611731565b60405180910390fd5b610d25308284610f24565b5050565b6000610d3482610952565b9050919050565b600033905090565b600073ffffffffffffffffffffffffffffffffffffffff168373ffffffffffffffffffffffffffffffffffffffff161415610db3576040517f08c379a0000000000000000000000000000000000000000000000000000000008152600401610daa90611711565b60405180910390fd5b600073ffffffffffffffffffffffffffffffffffffffff168273ffffffffffffffffffffffffffffffffffffffff161415610e23576040517f08c379a0000000000000000000000000000000000000000000000000000000008152600401610e1a90611631565b60405180910390fd5b80600160008573ffffffffffffffffffffffffffffffffffffffff1673ffffffffffffffffffffffffffffffffffffffff16815260200190815260200160002060008473ffffffffffffffffffffffffffffffffffffffff1673ffffffffffffffffffffffffffffffffffffffff168152602001908152602001600020819055508173ffffffffffffffffffffffffffffffffffffffff168373ffffffffffffffffffffffffffffffffffffffff167f8c5be1e5ebec7d5bd14f71427d1e84f3dd0314c0f7b2291e5b200ac8c7c3b92583604051610f019190611791565b60405180910390a3505050565b60008183610f1c919061180c565b905092915050565b600073ffffffffffffffffffffffffffffffffffffffff168373ffffffffffffffffffffffffffffffffffffffff161415610f94576040517f08c379a0000000000000000000000000000000000000000000000000000000008152600401610f8b906116f1565b60405180910390fd5b600073ffffffffffffffffffffffffffffffffffffffff168273ffffffffffffffffffffffffffffffffffffffff161415611004576040517f08c379a0000000000000000000000000000000000000000000000000000000008152600401610ffb90611611565b60405180910390fd5b61100f83838361126a565b60008060008573ffffffffffffffffffffffffffffffffffffffff1673ffffffffffffffffffffffffffffffffffffffff16815260200190815260200160002054905081811015611095576040517f08c379a000000000000000000000000000000000000000000000000000000000815260040161108c906116b1565b60405180910390fd5b8181036000808673ffffffffffffffffffffffffffffffffffffffff1673ffffffffffffffffffffffffffffffffffffffff16815260200190815260200160002081905550816000808573ffffffffffffffffffffffffffffffffffffffff1673ffffffffffffffffffffffffffffffffffffffff168152602001908152602001600020600082825401925050819055508273ffffffffffffffffffffffffffffffffffffffff168473ffffffffffffffffffffffffffffffffffffffff167fddf252ad1be2c89b69c2b068fc378daa952ba7f163c4a11628f55a4df523b3ef846040516111839190611791565b60405180910390a361119684848461126f565b50505050565b60006111a88484610bfd565b90507fffffffffffffffffffffffffffffffffffffffffffffffffffffffffffffffff81146112225781811015611214576040517f08c379a000000000000000000000000000000000000000000000000000000000815260040161120b90611691565b60405180910390fd5b6112218484848403610d43565b5b50505050565b6000818361123691906118ed565b905092915050565b6000818361124c9190611893565b905092915050565b600081836112629190611862565b905092915050565b505050565b505050565b60008135905061128381611d95565b92915050565b60008135905061129881611dac565b92915050565b6000602082840312156112b057600080fd5b60006112be84828501611274565b91505092915050565b600080604083850312156112da57600080fd5b60006112e885828601611274565b92505060206112f985828601611274565b9150509250929050565b60008060006060848603121561131857600080fd5b600061132686828701611274565b935050602061133786828701611274565b925050604061134886828701611289565b9150509250925092565b6000806040838503121561136557600080fd5b600061137385828601611274565b925050602061138485828601611289565b9150509250929050565b600080604083850312156113a157600080fd5b60006113af85828601611289565b92505060206113c085828601611274565b9150509250929050565b6113d381611933565b82525050565b60006113e4826117f0565b6113ee81856117fb565b93506113fe818560208601611976565b61140781611a68565b840191505092915050565b600061141f6023836117fb565b915061142a82611a79565b604082019050919050565b60006114426022836117fb565b915061144d82611ac8565b604082019050919050565b60006114656022836117fb565b915061147082611b17565b604082019050919050565b60006114886020836117fb565b915061149382611b66565b602082019050919050565b60006114ab601d836117fb565b91506114b682611b8f565b602082019050919050565b60006114ce6026836117fb565b91506114d982611bb8565b604082019050919050565b60006114f1600e836117fb565b91506114fc82611c07565b602082019050919050565b60006115146025836117fb565b915061151f82611c30565b604082019050919050565b60006115376024836117fb565b915061154282611c7f565b604082019050919050565b600061155a6012836117fb565b915061156582611cce565b602082019050919050565b600061157d6024836117fb565b915061158882611cf7565b604082019050919050565b60006115a06025836117fb565b91506115ab82611d46565b604082019050919050565b6115bf8161195f565b82525050565b6115ce81611969565b82525050565b60006020820190506115e960008301846113ca565b92915050565b6000602082019050818103600083015261160981846113d9565b905092915050565b6000602082019050818103600083015261162a81611412565b9050919050565b6000602082019050818103600083015261164a81611435565b9050919050565b6000602082019050818103600083015261166a81611458565b9050919050565b6000602082019050818103600083015261168a8161147b565b9050919050565b600060208201905081810360008301526116aa8161149e565b9050919050565b600060208201905081810360008301526116ca816114c1565b9050919050565b600060208201905081810360008301526116ea816114e4565b9050919050565b6000602082019050818103600083015261170a81611507565b9050919050565b6000602082019050818103600083015261172a8161152a565b9050919050565b6000602082019050818103600083015261174a8161154d565b9050919050565b6000602082019050818103600083015261176a81611570565b9050919050565b6000602082019050818103600083015261178a81611593565b9050919050565b60006020820190506117a660008301846115b6565b92915050565b60006040820190506117c160008301856115b6565b6117ce60208301846115b6565b9392505050565b60006020820190506117ea60008301846115c5565b92915050565b600081519050919050565b600082825260208201905092915050565b60006118178261195f565b91506118228361195f565b9250827fffffffffffffffffffffffffffffffffffffffffffffffffffffffffffffffff03821115611857576118566119db565b5b828201905092915050565b600061186d8261195f565b91506118788361195f565b92508261188857611887611a0a565b5b828204905092915050565b600061189e8261195f565b91506118a98361195f565b9250817fffffffffffffffffffffffffffffffffffffffffffffffffffffffffffffffff04831182151516156118e2576118e16119db565b5b828202905092915050565b60006118f88261195f565b91506119038361195f565b925082821015611916576119156119db565b5b828203905092915050565b600061192c8261193f565b9050919050565b60008115159050919050565b600073ffffffffffffffffffffffffffffffffffffffff82169050919050565b6000819050919050565b600060ff82169050919050565b60005b83811015611994578082015181840152602081019050611979565b838111156119a3576000848401525b50505050565b600060028204905060018216806119c157607f821691505b602082108114156119d5576119d4611a39565b5b50919050565b7f4e487b7100000000000000000000000000000000000000000000000000000000600052601160045260246000fd5b7f4e487b7100000000000000000000000000000000000000000000000000000000600052601260045260246000fd5b7f4e487b7100000000000000000000000000000000000000000000000000000000600052602260045260246000fd5b6000601f19601f8301169050919050565b7f45524332303a207472616e7366657220746f20746865207a65726f206164647260008201527f6573730000000000000000000000000000000000000000000000000000000000602082015250565b7f45524332303a20617070726f766520746f20746865207a65726f20616464726560008201527f7373000000000000000000000000000000000000000000000000000000000000602082015250565b7f43616e6e6f74207374616b65207768696c6520616c7265616479207374616b6960008201527f6e67000000000000000000000000000000000000000000000000000000000000602082015250565b7f416d6f756e74206d7573742062652067726561746572207468616e207a65726f600082015250565b7f45524332303a20696e73756666696369656e7420616c6c6f77616e6365000000600082015250565b7f45524332303a207472616e7366657220616d6f756e742065786365656473206260008201527f616c616e63650000000000000000000000000000000000000000000000000000602082015250565b7f4e6f207374616b6520666f756e64000000000000000000000000000000000000600082015250565b7f45524332303a207472616e736665722066726f6d20746865207a65726f20616460008201527f6472657373000000000000000000000000000000000000000000000000000000602082015250565b7f45524332303a20617070726f76652066726f6d20746865207a65726f2061646460008201527f7265737300000000000000000000000000000000000000000000000000000000602082015250565b7f546f6b656e732061726520736f6c646f75740000000000000000000000000000600082015250565b7f496e73756666696369656e742062616c616e636520696e2074686520636f6e7460008201527f7261637400000000000000000000000000000000000000000000000000000000602082015250565b7f45524332303a2064656372656173656420616c6c6f77616e63652062656c6f7760008201527f207a65726f000000000000000000000000000000000000000000000000000000602082015250565b611d9e81611921565b8114611da957600080fd5b50565b611db58161195f565b8114611dc057600080fd5b5056fea26469706673582212209adc68f35946b0551e9d9273b603e81e01f8d5a3d80f8e445df76ea7d09b485d64736f6c63430008010033",
  "linkReferences": {},
  "deployedLinkReferences": {}
}