{
  "_format": "hh-sol-artifact-1",
  "contractName": "Defi",
  "sourceName": "contracts/Defi.sol",
  "abi": [
    {
      "inputs": [],
      "stateMutability": "nonpayable",
      "type": "constructor"
    },
    {
      "anonymous": false,
      "inputs": [
        {
          "indexed": true,
          "internalType": "address",
          "name": "owner",
          "type": "address"
        },
        {
          "indexed": true,
          "internalType": "address",
          "name": "spender",
          "type": "address"
        },
        {
          "indexed": false,
          "internalType": "uint256",
          "name": "value",
          "type": "uint256"
        }
      ],
      "name": "Approval",
      "type": "event"
    },
    {
      "anonymous": false,
      "inputs": [
        {
          "indexed": true,
          "internalType": "address",
          "name": "from",
          "type": "address"
        },
        {
          "indexed": true,
          "internalType": "address",
          "name": "to",
          "type": "address"
        },
        {
          "indexed": false,
          "internalType": "uint256",
          "name": "value",
          "type": "uint256"
        }
      ],
      "name": "Transfer",
      "type": "event"
    },
    {
      "inputs": [
        {
          "internalType": "uint256",
          "name": "amount",
          "type": "uint256"
        },
        {
          "internalType": "address",
          "name": "pubkey",
          "type": "address"
        }
      ],
      "name": "BuyTokens",
      "outputs": [],
      "stateMutability": "nonpayable",
      "type": "function"
    },
    {
      "inputs": [
        {
          "internalType": "address",
          "name": "staker",
          "type": "address"
        },
        {
          "internalType": "uint256",
          "name": "amount",
          "type": "uint256"
        }
      ],
      "name": "RewardCalculater",
      "outputs": [
        {
          "internalType": "uint256",
          "name": "",
          "type": "uint256"
        }
      ],
      "stateMutability": "view",
      "type": "function"
    },
    {
      "inputs": [
        {
          "internalType": "address",
          "name": "",
          "type": "address"
        }
      ],
      "name": "StakeStore",
      "outputs": [
        {
          "internalType": "uint256",
          "name": "amount",
          "type": "uint256"
        },
        {
          "internalType": "uint256",
          "name": "startTime",
          "type": "uint256"
        }
      ],
      "stateMutability": "view",
      "type": "function"
    },
    {
      "inputs": [
        {
          "internalType": "uint256",
          "name": "amount",
          "type": "uint256"
        },
        {
          "internalType": "address",
          "name": "pubkey",
          "type": "address"
        }
      ],
      "name": "StakeTokens",
      "outputs": [],
      "stateMutability": "nonpayable",
      "type": "function"
    },
    {
      "inputs": [
        {
          "internalType": "address",
          "name": "staker",
          "type": "address"
        }
      ],
      "name": "Stakedamount",
      "outputs": [
        {
          "internalType": "uint256",
          "name": "",
          "type": "uint256"
        }
      ],
      "stateMutability": "view",
      "type": "function"
    },
    {
      "inputs": [
        {
          "internalType": "address",
          "name": "staker",
          "type": "address"
        }
      ],
      "name": "Stakedtime",
      "outputs": [
        {
          "internalType": "uint256",
          "name": "",
          "type": "uint256"
        }
      ],
      "stateMutability": "view",
      "type": "function"
    },
    {
      "inputs": [
        {
          "internalType": "uint256",
          "name": "amount",
          "type": "uint256"
        },
        {
          "internalType": "address",
          "name": "pubkey",
          "type": "address"
        }
      ],
      "name": "UnstakeTokens",
      "outputs": [],
      "stateMutability": "nonpayable",
      "type": "function"
    },
    {
      "inputs": [
        {
          "internalType": "address",
          "name": "owner",
          "type": "address"
        },
        {
          "internalType": "address",
          "name": "spender",
          "type": "address"
        }
      ],
      "name": "allowance",
      "outputs": [
        {
          "internalType": "uint256",
          "name": "",
          "type": "uint256"
        }
      ],
      "stateMutability": "view",
      "type": "function"
    },
    {
      "inputs": [
        {
          "internalType": "address",
          "name": "spender",
          "type": "address"
        },
        {
          "internalType": "uint256",
          "name": "amount",
          "type": "uint256"
        }
      ],
      "name": "approve",
      "outputs": [
        {
          "internalType": "bool",
          "name": "",
          "type": "bool"
        }
      ],
      "stateMutability": "nonpayable",
      "type": "function"
    },
    {
      "inputs": [
        {
          "internalType": "address",
          "name": "account",
          "type": "address"
        }
      ],
      "name": "balanceOf",
      "outputs": [
        {
          "internalType": "uint256",
          "name": "",
          "type": "uint256"
        }
      ],
      "stateMutability": "view",
      "type": "function"
    },
    {
      "inputs": [
        {
          "internalType": "address",
          "name": "pukey",
          "type": "address"
        }
      ],
      "name": "checkbalance",
      "outputs": [
        {
          "internalType": "uint256",
          "name": "",
          "type": "uint256"
        }
      ],
      "stateMutability": "view",
      "type": "function"
    },
    {
      "inputs": [],
      "name": "decimals",
      "outputs": [
        {
          "internalType": "uint8",
          "name": "",
          "type": "uint8"
        }
      ],
      "stateMutability": "view",
      "type": "function"
    },
    {
      "inputs": [
        {
          "internalType": "address",
          "name": "spender",
          "type": "address"
        },
        {
          "internalType": "uint256",
          "name": "subtractedValue",
          "type": "uint256"
        }
      ],
      "name": "decreaseAllowance",
      "outputs": [
        {
          "internalType": "bool",
          "name": "",
          "type": "bool"
        }
      ],
      "stateMutability": "nonpayable",
      "type": "function"
    },
    {
      "inputs": [
        {
          "internalType": "address",
          "name": "spender",
          "type": "address"
        },
        {
          "internalType": "uint256",
          "name": "addedValue",
          "type": "uint256"
        }
      ],
      "name": "increaseAllowance",
      "outputs": [
        {
          "internalType": "bool",
          "name": "",
          "type": "bool"
        }
      ],
      "stateMutability": "nonpayable",
      "type": "function"
    },
    {
      "inputs": [],
      "name": "name",
      "outputs": [
        {
          "internalType": "string",
          "name": "",
          "type": "string"
        }
      ],
      "stateMutability": "view",
      "type": "function"
    },
    {
      "inputs": [],
      "name": "symbol",
      "outputs": [
        {
          "internalType": "string",
          "name": "",
          "type": "string"
        }
      ],
      "stateMutability": "view",
      "type": "function"
    },
    {
      "inputs": [],
      "name": "totalSupply",
      "outputs": [
        {
          "internalType": "uint256",
          "name": "",
          "type": "uint256"
        }
      ],
      "stateMutability": "view",
      "type": "function"
    },
    {
      "inputs": [
        {
          "internalType": "address",
          "name": "to",
          "type": "address"
        },
        {
          "internalType": "uint256",
          "name": "amount",
          "type": "uint256"
        }
      ],
      "name": "transfer",
      "outputs": [
        {
          "internalType": "bool",
          "name": "",
          "type": "bool"
        }
      ],
      "stateMutability": "nonpayable",
      "type": "function"
    },
    {
      "inputs": [
        {
          "internalType": "address",
          "name": "fromAdd",
          "type": "address"
        },
        {
          "internalType": "address",
          "name": "toAdd",
          "type": "address"
        },
        {
          "internalType": "uint256",
          "name": "amount",
          "type": "uint256"
        }
      ],
      "name": "transferERTN",
      "outputs": [],
      "stateMutability": "nonpayable",
      "type": "function"
    },
    {
      "inputs": [
        {
          "internalType": "address",
          "name": "from",
          "type": "address"
        },
        {
          "internalType": "address",
          "name": "to",
          "type": "address"
        },
        {
          "internalType": "uint256",
          "name": "amount",
          "type": "uint256"
        }
      ],
      "name": "transferFrom",
      "outputs": [
        {
          "internalType": "bool",
          "name": "",
          "type": "bool"
        }
      ],
      "stateMutability": "nonpayable",
      "type": "function"
    }
  ],
  "bytecode": "0x60806040523480156200001157600080fd5b506040518060400160405280600b81526020016a22a921a722abaa27a5a2a760a91b8152506040518060400160405280600481526020016322a92a2760e11b8152508160039081620000649190620001ff565b506004620000738282620001ff565b5050506200008a306127106200009060201b60201c565b620002f3565b6001600160a01b038216620000eb5760405162461bcd60e51b815260206004820152601f60248201527f45524332303a206d696e7420746f20746865207a65726f206164647265737300604482015260640160405180910390fd5b8060026000828254620000ff9190620002cb565b90915550506001600160a01b038216600081815260208181526040808320805486019055518481527fddf252ad1be2c89b69c2b068fc378daa952ba7f163c4a11628f55a4df523b3ef910160405180910390a35050565b505050565b634e487b7160e01b600052604160045260246000fd5b600181811c908216806200018657607f821691505b602082108103620001a757634e487b7160e01b600052602260045260246000fd5b50919050565b601f8211156200015657600081815260208120601f850160051c81016020861015620001d65750805b601f850160051c820191505b81811015620001f757828155600101620001e2565b505050505050565b81516001600160401b038111156200021b576200021b6200015b565b62000233816200022c845462000171565b84620001ad565b602080601f8311600181146200026b5760008415620002525750858301515b600019600386901b1c1916600185901b178555620001f7565b600085815260208120601f198616915b828110156200029c578886015182559484019460019091019084016200027b565b5085821015620002bb5787850151600019600388901b60f8161c191681555b5050505050600190811b01905550565b80820180821115620002ed57634e487b7160e01b600052601160045260246000fd5b92915050565b610f9580620003036000396000f3fe608060405234801561001057600080fd5b506004361061016c5760003560e01c80638af31645116100cd578063db543a7b11610081578063dde0c65711610066578063dde0c6571461033c578063e4c3a53214610368578063e83029bb1461037b57600080fd5b8063db543a7b146102f0578063dd62ed3e1461030357600080fd5b8063a457c2d7116100b2578063a457c2d71461028e578063a9059cbb146102a1578063c913dc7d146102b457600080fd5b80638af316451461027357806395d89b411461028657600080fd5b8063313ce567116101245780635e89fd92116101095780635e89fd921461020e57806365759af21461023757806370a082311461024a57600080fd5b8063313ce567146101ec57806339509351146101fb57600080fd5b806318160ddd1161015557806318160ddd146101b257806322a9d91c146101c457806323b872dd146101d957600080fd5b806306fdde0314610171578063095ea7b31461018f575b600080fd5b61017961038e565b6040516101869190610d6f565b60405180910390f35b6101a261019d366004610dd9565b610420565b6040519015158152602001610186565b6002545b604051908152602001610186565b6101d76101d2366004610e03565b61043a565b005b6101a26101e7366004610e2f565b6105d8565b60405160128152602001610186565b6101a2610209366004610dd9565b6105fc565b6101b661021c366004610e6b565b6001600160a01b031660009081526005602052604090205490565b6101d7610245366004610e03565b61063b565b6101b6610258366004610e6b565b6001600160a01b031660009081526020819052604090205490565b6101b6610281366004610dd9565b61075b565b61017961080c565b6101a261029c366004610dd9565b61081b565b6101a26102af366004610dd9565b6108c5565b6102db6102c2366004610e6b565b6005602052600090815260409020805460019091015482565b60408051928352602083019190915201610186565b6101d76102fe366004610e2f565b6108d3565b6101b6610311366004610e86565b6001600160a01b03918216600090815260016020908152604080832093909416825291909152205490565b6101b661034a366004610e6b565b6001600160a01b031660009081526005602052604090206001015490565b6101d7610376366004610e03565b6108e3565b6101b6610389366004610e6b565b610949565b60606003805461039d90610eb0565b80601f01602080910402602001604051908101604052809291908181526020018280546103c990610eb0565b80156104165780601f106103eb57610100808354040283529160200191610416565b820191906000526020600020905b8154815290600101906020018083116103f957829003601f168201915b5050505050905090565b60003361042e818585610967565b60019150505b92915050565b6001600160a01b0381166000908152600560205260409020546104a45760405162461bcd60e51b815260206004820152600e60248201527f4e6f207374616b6520666f756e6400000000000000000000000000000000000060448201526064015b60405180910390fd5b60006104b0828461075b565b905060006104be8483610abf565b306000908152602081905260409020549091508111156105455760405162461bcd60e51b8152602060048201526024808201527f496e73756666696369656e742062616c616e636520696e2074686520636f6e7460448201527f7261637400000000000000000000000000000000000000000000000000000000606482015260840161049b565b6001600160a01b038316600090815260056020526040902054849003610589576001600160a01b0383166000908152600560205260408120818155600101556105c7565b6001600160a01b0383166000908152600560205260409020546105ad908590610f00565b6001600160a01b0384166000908152600560205260409020555b6105d2308483610ad2565b50505050565b6000336105e6858285610cbf565b6105f1858585610ad2565b506001949350505050565b3360008181526001602090815260408083206001600160a01b038716845290915281205490919061042e9082908690610636908790610f13565b610967565b6000821161068b5760405162461bcd60e51b815260206004820181905260248201527f416d6f756e74206d7573742062652067726561746572207468616e207a65726f604482015260640161049b565b6001600160a01b038116600090815260056020526040902054156107175760405162461bcd60e51b815260206004820152602260248201527f43616e6e6f74207374616b65207768696c6520616c7265616479207374616b6960448201527f6e67000000000000000000000000000000000000000000000000000000000000606482015260840161049b565b610722813084610ad2565b6040805180820182529283524260208085019182526001600160a01b039093166000908152600590935291209151825551600190910155565b6001600160a01b038216600090815260056020526040812080546107c15760405162461bcd60e51b815260206004820152600e60248201527f4e6f207374616b6520666f756e64000000000000000000000000000000000000604482015260640161049b565b60006107da826001015442610d4b90919063ffffffff16565b9050600061080260646107fc61012c81600a6107f68b89610d57565b90610d57565b90610d63565b9695505050505050565b60606004805461039d90610eb0565b3360008181526001602090815260408083206001600160a01b0387168452909152812054909190838110156108b85760405162461bcd60e51b815260206004820152602560248201527f45524332303a2064656372656173656420616c6c6f77616e63652062656c6f7760448201527f207a65726f000000000000000000000000000000000000000000000000000000606482015260840161049b565b6105f18286868403610967565b60003361042e818585610ad2565b6108de838383610ad2565b505050565b816108ed30610949565b1161093a5760405162461bcd60e51b815260206004820152601260248201527f546f6b656e732061726520736f6c646f75740000000000000000000000000000604482015260640161049b565b610945308284610ad2565b5050565b6001600160a01b038116600090815260208190526040812054610434565b6001600160a01b0383166109e25760405162461bcd60e51b8152602060048201526024808201527f45524332303a20617070726f76652066726f6d20746865207a65726f2061646460448201527f7265737300000000000000000000000000000000000000000000000000000000606482015260840161049b565b6001600160a01b038216610a5e5760405162461bcd60e51b815260206004820152602260248201527f45524332303a20617070726f766520746f20746865207a65726f20616464726560448201527f7373000000000000000000000000000000000000000000000000000000000000606482015260840161049b565b6001600160a01b0383811660008181526001602090815260408083209487168084529482529182902085905590518481527f8c5be1e5ebec7d5bd14f71427d1e84f3dd0314c0f7b2291e5b200ac8c7c3b925910160405180910390a3505050565b6000610acb8284610f13565b9392505050565b6001600160a01b038316610b4e5760405162461bcd60e51b815260206004820152602560248201527f45524332303a207472616e736665722066726f6d20746865207a65726f20616460448201527f6472657373000000000000000000000000000000000000000000000000000000606482015260840161049b565b6001600160a01b038216610bca5760405162461bcd60e51b815260206004820152602360248201527f45524332303a207472616e7366657220746f20746865207a65726f206164647260448201527f6573730000000000000000000000000000000000000000000000000000000000606482015260840161049b565b6001600160a01b03831660009081526020819052604090205481811015610c595760405162461bcd60e51b815260206004820152602660248201527f45524332303a207472616e7366657220616d6f756e742065786365656473206260448201527f616c616e63650000000000000000000000000000000000000000000000000000606482015260840161049b565b6001600160a01b03848116600081815260208181526040808320878703905593871680835291849020805487019055925185815290927fddf252ad1be2c89b69c2b068fc378daa952ba7f163c4a11628f55a4df523b3ef910160405180910390a36105d2565b6001600160a01b0383811660009081526001602090815260408083209386168352929052205460001981146105d25781811015610d3e5760405162461bcd60e51b815260206004820152601d60248201527f45524332303a20696e73756666696369656e7420616c6c6f77616e6365000000604482015260640161049b565b6105d28484848403610967565b6000610acb8284610f00565b6000610acb8284610f26565b6000610acb8284610f3d565b600060208083528351808285015260005b81811015610d9c57858101830151858201604001528201610d80565b506000604082860101526040601f19601f8301168501019250505092915050565b80356001600160a01b0381168114610dd457600080fd5b919050565b60008060408385031215610dec57600080fd5b610df583610dbd565b946020939093013593505050565b60008060408385031215610e1657600080fd5b82359150610e2660208401610dbd565b90509250929050565b600080600060608486031215610e4457600080fd5b610e4d84610dbd565b9250610e5b60208501610dbd565b9150604084013590509250925092565b600060208284031215610e7d57600080fd5b610acb82610dbd565b60008060408385031215610e9957600080fd5b610ea283610dbd565b9150610e2660208401610dbd565b600181811c90821680610ec457607f821691505b602082108103610ee457634e487b7160e01b600052602260045260246000fd5b50919050565b634e487b7160e01b600052601160045260246000fd5b8181038181111561043457610434610eea565b8082018082111561043457610434610eea565b808202811582820484141761043457610434610eea565b600082610f5a57634e487b7160e01b600052601260045260246000fd5b50049056fea2646970667358221220016ce1cd71dadfdf9966701cd58b203f5518cf85f330ba38b954be63582c2cbf64736f6c63430008140033",
  "linkReferences": {},
  "deployedLinkReferences": {}
}