{
  "_format": "hh-sol-artifact-1",
  "contractName": "PrivateAirdrop",
  "sourceName": "contracts/PrivateAirdrop.sol",
  "abi": [
    {
      "inputs": [
        {
          "internalType": "contract IERC20",
          "name": "_airdropToken",
          "type": "address"
        },
        {
          "internalType": "uint256",
          "name": "_amountPerRedemption",
          "type": "uint256"
        },
        {
          "internalType": "contract IPlonkVerifier",
          "name": "_verifier",
          "type": "address"
        },
        {
          "internalType": "bytes32",
          "name": "_root",
          "type": "bytes32"
        }
      ],
      "stateMutability": "nonpayable",
      "type": "constructor"
    },
    {
      "anonymous": false,
      "inputs": [
        {
          "indexed": true,
          "internalType": "address",
          "name": "previousOwner",
          "type": "address"
        },
        {
          "indexed": true,
          "internalType": "address",
          "name": "newOwner",
          "type": "address"
        }
      ],
      "name": "OwnershipTransferred",
      "type": "event"
    },
    {
      "inputs": [],
      "name": "airdropToken",
      "outputs": [
        {
          "internalType": "contract IERC20",
          "name": "",
          "type": "address"
        }
      ],
      "stateMutability": "view",
      "type": "function"
    },
    {
      "inputs": [],
      "name": "amountPerRedemption",
      "outputs": [
        {
          "internalType": "uint256",
          "name": "",
          "type": "uint256"
        }
      ],
      "stateMutability": "view",
      "type": "function"
    },
    {
      "inputs": [
        {
          "internalType": "bytes",
          "name": "proof",
          "type": "bytes"
        },
        {
          "internalType": "bytes32",
          "name": "nullifierHash",
          "type": "bytes32"
        }
      ],
      "name": "collectAirdrop",
      "outputs": [],
      "stateMutability": "nonpayable",
      "type": "function"
    },
    {
      "inputs": [
        {
          "internalType": "bytes32",
          "name": "",
          "type": "bytes32"
        }
      ],
      "name": "nullifierSpent",
      "outputs": [
        {
          "internalType": "bool",
          "name": "",
          "type": "bool"
        }
      ],
      "stateMutability": "view",
      "type": "function"
    },
    {
      "inputs": [],
      "name": "owner",
      "outputs": [
        {
          "internalType": "address",
          "name": "",
          "type": "address"
        }
      ],
      "stateMutability": "view",
      "type": "function"
    },
    {
      "inputs": [],
      "name": "renounceOwnership",
      "outputs": [],
      "stateMutability": "nonpayable",
      "type": "function"
    },
    {
      "inputs": [],
      "name": "root",
      "outputs": [
        {
          "internalType": "bytes32",
          "name": "",
          "type": "bytes32"
        }
      ],
      "stateMutability": "view",
      "type": "function"
    },
    {
      "inputs": [
        {
          "internalType": "address",
          "name": "newOwner",
          "type": "address"
        }
      ],
      "name": "transferOwnership",
      "outputs": [],
      "stateMutability": "nonpayable",
      "type": "function"
    },
    {
      "inputs": [
        {
          "internalType": "bytes32",
          "name": "newRoot",
          "type": "bytes32"
        }
      ],
      "name": "updateRoot",
      "outputs": [],
      "stateMutability": "nonpayable",
      "type": "function"
    }
  ],
  "bytecode": "0x60e06040523480156200001157600080fd5b50604051620012e6380380620012e6833981810160405281019062000037919062000206565b620000576200004b620000de60201b60201c565b620000e660201b60201c565b8373ffffffffffffffffffffffffffffffffffffffff1660808173ffffffffffffffffffffffffffffffffffffffff1660601b815250508260c081815250508173ffffffffffffffffffffffffffffffffffffffff1660a08173ffffffffffffffffffffffffffffffffffffffff1660601b8152505080600181905550505050506200034a565b600033905090565b60008060009054906101000a900473ffffffffffffffffffffffffffffffffffffffff169050816000806101000a81548173ffffffffffffffffffffffffffffffffffffffff021916908373ffffffffffffffffffffffffffffffffffffffff1602179055508173ffffffffffffffffffffffffffffffffffffffff168173ffffffffffffffffffffffffffffffffffffffff167f8be0079c531659141344cd1fd0a4f28419497f9722a3daafe3b4186f6b6457e060405160405180910390a35050565b600081519050620001bb81620002e2565b92915050565b600081519050620001d281620002fc565b92915050565b600081519050620001e98162000316565b92915050565b600081519050620002008162000330565b92915050565b600080600080608085870312156200021d57600080fd5b60006200022d87828801620001c1565b94505060206200024087828801620001ef565b93505060406200025387828801620001d8565b92505060606200026687828801620001aa565b91505092959194509250565b60006200027f82620002b8565b9050919050565b6000819050919050565b60006200029d8262000272565b9050919050565b6000620002b18262000272565b9050919050565b600073ffffffffffffffffffffffffffffffffffffffff82169050919050565b6000819050919050565b620002ed8162000286565b8114620002f957600080fd5b50565b620003078162000290565b81146200031357600080fd5b50565b6200032181620002a4565b81146200032d57600080fd5b50565b6200033b81620002d8565b81146200034757600080fd5b50565b60805160601c60a05160601c60c051610f586200038e600039600081816105220152610623015260006103cd0152600081816104e501526105eb0152610f586000f3fe608060405234801561001057600080fd5b50600436106100935760003560e01c8063715018a611610066578063715018a61461011e5780637f0d7159146101285780638da5cb5b14610146578063ebf0c71714610164578063f2fde38b1461018257610093565b8063213e0b171461009857806321ff9970146100b457806338c86911146100d05780634d06068a14610100575b600080fd5b6100b260048036038101906100ad9190610946565b61019e565b005b6100ce60048036038101906100c9919061091d565b6105b7565b005b6100ea60048036038101906100e5919061091d565b6105c9565b6040516100f79190610b8e565b60405180910390f35b6101086105e9565b6040516101159190610bfd565b60405180910390f35b61012661060d565b005b610130610621565b60405161013d9190610cb8565b60405180910390f35b61014e610645565b60405161015b9190610b4a565b60405180910390f35b61016c61066e565b6040516101799190610ba9565b60405180910390f35b61019c600480360381019061019791906108cb565b610674565b005b7f30644e72e131a029b85045b68181585d2833e84879b9709143e1f593f00000018160001c10610203576040517f08c379a00000000000000000000000000000000000000000000000000000000081526004016101fa90610c78565b60405180910390fd5b6002600082815260200190815260200160002060009054906101000a900460ff1615610264576040517f08c379a000000000000000000000000000000000000000000000000000000000815260040161025b90610c38565b60405180910390fd5b6000600367ffffffffffffffff8111156102a7577f4e487b7100000000000000000000000000000000000000000000000000000000600052604160045260246000fd5b6040519080825280602002602001820160405280156102d55781602001602082028036833780820191505090505b50905060015460001c81600081518110610318577f4e487b7100000000000000000000000000000000000000000000000000000000600052603260045260246000fd5b6020026020010181815250508160001c81600181518110610362577f4e487b7100000000000000000000000000000000000000000000000000000000600052603260045260246000fd5b6020026020010181815250503373ffffffffffffffffffffffffffffffffffffffff16816002815181106103bf577f4e487b7100000000000000000000000000000000000000000000000000000000600052603260045260246000fd5b6020026020010181815250507f000000000000000000000000000000000000000000000000000000000000000073ffffffffffffffffffffffffffffffffffffffff16631e8e1e138585846040518463ffffffff1660e01b815260040161042893929190610bc4565b60206040518083038186803b15801561044057600080fd5b505afa158015610454573d6000803e3d6000fd5b505050506040513d601f19601f8201168201806040525081019061047891906108f4565b6104b7576040517f08c379a00000000000000000000000000000000000000000000000000000000081526004016104ae90610c58565b60405180910390fd5b60016002600084815260200190815260200160002060006101000a81548160ff0219169083151502179055507f000000000000000000000000000000000000000000000000000000000000000073ffffffffffffffffffffffffffffffffffffffff1663a9059cbb337f00000000000000000000000000000000000000000000000000000000000000006040518363ffffffff1660e01b815260040161055e929190610b65565b602060405180830381600087803b15801561057857600080fd5b505af115801561058c573d6000803e3d6000fd5b505050506040513d601f19601f820116820180604052508101906105b091906108f4565b5050505050565b6105bf6106f8565b8060018190555050565b60026020528060005260406000206000915054906101000a900460ff1681565b7f000000000000000000000000000000000000000000000000000000000000000081565b6106156106f8565b61061f6000610776565b565b7f000000000000000000000000000000000000000000000000000000000000000081565b60008060009054906101000a900473ffffffffffffffffffffffffffffffffffffffff16905090565b60015481565b61067c6106f8565b600073ffffffffffffffffffffffffffffffffffffffff168173ffffffffffffffffffffffffffffffffffffffff1614156106ec576040517f08c379a00000000000000000000000000000000000000000000000000000000081526004016106e390610c18565b60405180910390fd5b6106f581610776565b50565b61070061083a565b73ffffffffffffffffffffffffffffffffffffffff1661071e610645565b73ffffffffffffffffffffffffffffffffffffffff1614610774576040517f08c379a000000000000000000000000000000000000000000000000000000000815260040161076b90610c98565b60405180910390fd5b565b60008060009054906101000a900473ffffffffffffffffffffffffffffffffffffffff169050816000806101000a81548173ffffffffffffffffffffffffffffffffffffffff021916908373ffffffffffffffffffffffffffffffffffffffff1602179055508173ffffffffffffffffffffffffffffffffffffffff168173ffffffffffffffffffffffffffffffffffffffff167f8be0079c531659141344cd1fd0a4f28419497f9722a3daafe3b4186f6b6457e060405160405180910390a35050565b600033905090565b60008135905061085181610edd565b92915050565b60008151905061086681610ef4565b92915050565b60008135905061087b81610f0b565b92915050565b60008083601f84011261089357600080fd5b8235905067ffffffffffffffff8111156108ac57600080fd5b6020830191508360018202830111156108c457600080fd5b9250929050565b6000602082840312156108dd57600080fd5b60006108eb84828501610842565b91505092915050565b60006020828403121561090657600080fd5b600061091484828501610857565b91505092915050565b60006020828403121561092f57600080fd5b600061093d8482850161086c565b91505092915050565b60008060006040848603121561095b57600080fd5b600084013567ffffffffffffffff81111561097557600080fd5b61098186828701610881565b935093505060206109948682870161086c565b9150509250925092565b60006109aa8383610b2c565b60208301905092915050565b6109bf81610d2e565b82525050565b60006109d082610ce3565b6109da8185610cfb565b93506109e583610cd3565b8060005b83811015610a165781516109fd888261099e565b9750610a0883610cee565b9250506001810190506109e9565b5085935050505092915050565b610a2c81610d40565b82525050565b610a3b81610d4c565b82525050565b6000610a4d8385610d0c565b9350610a5a838584610da4565b610a6383610db3565b840190509392505050565b610a7781610d80565b82525050565b6000610a8a602683610d1d565b9150610a9582610dc4565b604082019050919050565b6000610aad601883610d1d565b9150610ab882610e13565b602082019050919050565b6000610ad0601983610d1d565b9150610adb82610e3c565b602082019050919050565b6000610af3602183610d1d565b9150610afe82610e65565b604082019050919050565b6000610b16602083610d1d565b9150610b2182610eb4565b602082019050919050565b610b3581610d76565b82525050565b610b4481610d76565b82525050565b6000602082019050610b5f60008301846109b6565b92915050565b6000604082019050610b7a60008301856109b6565b610b876020830184610b3b565b9392505050565b6000602082019050610ba36000830184610a23565b92915050565b6000602082019050610bbe6000830184610a32565b92915050565b60006040820190508181036000830152610bdf818587610a41565b90508181036020830152610bf381846109c5565b9050949350505050565b6000602082019050610c126000830184610a6e565b92915050565b60006020820190508181036000830152610c3181610a7d565b9050919050565b60006020820190508181036000830152610c5181610aa0565b9050919050565b60006020820190508181036000830152610c7181610ac3565b9050919050565b60006020820190508181036000830152610c9181610ae6565b9050919050565b60006020820190508181036000830152610cb181610b09565b9050919050565b6000602082019050610ccd6000830184610b3b565b92915050565b6000819050602082019050919050565b600081519050919050565b6000602082019050919050565b600082825260208201905092915050565b600082825260208201905092915050565b600082825260208201905092915050565b6000610d3982610d56565b9050919050565b60008115159050919050565b6000819050919050565b600073ffffffffffffffffffffffffffffffffffffffff82169050919050565b6000819050919050565b6000610d8b82610d92565b9050919050565b6000610d9d82610d56565b9050919050565b82818337600083830152505050565b6000601f19601f8301169050919050565b7f4f776e61626c653a206e6577206f776e657220697320746865207a65726f206160008201527f6464726573730000000000000000000000000000000000000000000000000000602082015250565b7f41697264726f7020616c72656164792072656465656d65640000000000000000600082015250565b7f50726f6f6620766572696669636174696f6e206661696c656400000000000000600082015250565b7f4e756c6c6966696572206973206e6f742077697468696e20746865206669656c60008201527f6400000000000000000000000000000000000000000000000000000000000000602082015250565b7f4f776e61626c653a2063616c6c6572206973206e6f7420746865206f776e6572600082015250565b610ee681610d2e565b8114610ef157600080fd5b50565b610efd81610d40565b8114610f0857600080fd5b50565b610f1481610d4c565b8114610f1f57600080fd5b5056fea2646970667358221220236b6366a653b91a6379a4dcdf8c0e3ef5867fb284369cc44b735fc8406cc22564736f6c63430008010033",
  "linkReferences": {},
  "deployedLinkReferences": {}
}