{
  "_format": "hh-sol-artifact-1",
  "contractName": "NFTandDefiMerged",
  "sourceName": "contracts/NFTandDefiMerged.sol",
  "abi": [
    {
      "inputs": [
        {
          "internalType": "address",
          "name": "DefContractAddress",
          "type": "address"
        },
        {
          "internalType": "address",
          "name": "TweetContractAddress",
          "type": "address"
        }
      ],
      "stateMutability": "nonpayable",
      "type": "constructor"
    },
    {
      "anonymous": false,
      "inputs": [
        {
          "indexed": true,
          "internalType": "address",
          "name": "owner",
          "type": "address"
        },
        {
          "indexed": true,
          "internalType": "address",
          "name": "approved",
          "type": "address"
        },
        {
          "indexed": true,
          "internalType": "uint256",
          "name": "tokenId",
          "type": "uint256"
        }
      ],
      "name": "Approval",
      "type": "event"
    },
    {
      "anonymous": false,
      "inputs": [
        {
          "indexed": true,
          "internalType": "address",
          "name": "owner",
          "type": "address"
        },
        {
          "indexed": true,
          "internalType": "address",
          "name": "operator",
          "type": "address"
        },
        {
          "indexed": false,
          "internalType": "bool",
          "name": "approved",
          "type": "bool"
        }
      ],
      "name": "ApprovalForAll",
      "type": "event"
    },
    {
      "anonymous": false,
      "inputs": [
        {
          "indexed": false,
          "internalType": "uint256",
          "name": "_fromTokenId",
          "type": "uint256"
        },
        {
          "indexed": false,
          "internalType": "uint256",
          "name": "_toTokenId",
          "type": "uint256"
        }
      ],
      "name": "BatchMetadataUpdate",
      "type": "event"
    },
    {
      "anonymous": false,
      "inputs": [
        {
          "indexed": false,
          "internalType": "uint256",
          "name": "_tokenId",
          "type": "uint256"
        }
      ],
      "name": "MetadataUpdate",
      "type": "event"
    },
    {
      "anonymous": false,
      "inputs": [
        {
          "indexed": true,
          "internalType": "address",
          "name": "from",
          "type": "address"
        },
        {
          "indexed": true,
          "internalType": "address",
          "name": "to",
          "type": "address"
        },
        {
          "indexed": true,
          "internalType": "uint256",
          "name": "tokenId",
          "type": "uint256"
        }
      ],
      "name": "Transfer",
      "type": "event"
    },
    {
      "inputs": [
        {
          "internalType": "uint256[]",
          "name": "productIds",
          "type": "uint256[]"
        }
      ],
      "name": "BuyProducts",
      "outputs": [],
      "stateMutability": "payable",
      "type": "function"
    },
    {
      "inputs": [
        {
          "internalType": "uint256[]",
          "name": "productIds",
          "type": "uint256[]"
        }
      ],
      "name": "BuyProductsERTN",
      "outputs": [],
      "stateMutability": "payable",
      "type": "function"
    },
    {
      "inputs": [
        {
          "internalType": "uint256",
          "name": "amount",
          "type": "uint256"
        },
        {
          "internalType": "address",
          "name": "pubkey",
          "type": "address"
        }
      ],
      "name": "BuyTokens",
      "outputs": [],
      "stateMutability": "nonpayable",
      "type": "function"
    },
    {
      "inputs": [],
      "name": "DefiInstance",
      "outputs": [
        {
          "internalType": "contract Defi",
          "name": "",
          "type": "address"
        }
      ],
      "stateMutability": "view",
      "type": "function"
    },
    {
      "inputs": [
        {
          "internalType": "address",
          "name": "pubkey",
          "type": "address"
        },
        {
          "internalType": "uint256",
          "name": "index",
          "type": "uint256"
        }
      ],
      "name": "DeletingText",
      "outputs": [],
      "stateMutability": "nonpayable",
      "type": "function"
    },
    {
      "inputs": [],
      "name": "GetAllProducts",
      "outputs": [
        {
          "components": [
            {
              "internalType": "uint256",
              "name": "ProductId",
              "type": "uint256"
            },
            {
              "internalType": "string",
              "name": "ProductURI",
              "type": "string"
            },
            {
              "internalType": "address payable",
              "name": "owner",
              "type": "address"
            },
            {
              "internalType": "address payable",
              "name": "seller",
              "type": "address"
            },
            {
              "internalType": "uint256",
              "name": "price",
              "type": "uint256"
            },
            {
              "internalType": "bool",
              "name": "status",
              "type": "bool"
            },
            {
              "internalType": "string",
              "name": "ProductName",
              "type": "string"
            },
            {
              "internalType": "uint256",
              "name": "ERTNPrice",
              "type": "uint256"
            }
          ],
          "internalType": "struct NFTandDefiMerged.ProductProperties[]",
          "name": "",
          "type": "tuple[]"
        }
      ],
      "stateMutability": "view",
      "type": "function"
    },
    {
      "inputs": [],
      "name": "GetTextData",
      "outputs": [
        {
          "components": [
            {
              "internalType": "string",
              "name": "Profile",
              "type": "string"
            },
            {
              "internalType": "string",
              "name": "Fname",
              "type": "string"
            },
            {
              "internalType": "string",
              "name": "Lname",
              "type": "string"
            },
            {
              "internalType": "uint256",
              "name": "timestamp",
              "type": "uint256"
            },
            {
              "internalType": "string",
              "name": "text",
              "type": "string"
            },
            {
              "internalType": "address",
              "name": "owner",
              "type": "address"
            },
            {
              "internalType": "string",
              "name": "NFTUrl",
              "type": "string"
            }
          ],
          "internalType": "struct Tweets.textfeed[]",
          "name": "",
          "type": "tuple[]"
        }
      ],
      "stateMutability": "view",
      "type": "function"
    },
    {
      "inputs": [
        {
          "internalType": "address",
          "name": "pubkey",
          "type": "address"
        }
      ],
      "name": "GetUserData",
      "outputs": [
        {
          "components": [
            {
              "internalType": "string",
              "name": "FName",
              "type": "string"
            },
            {
              "internalType": "string",
              "name": "LName",
              "type": "string"
            },
            {
              "internalType": "string",
              "name": "profilePic",
              "type": "string"
            },
            {
              "internalType": "address",
              "name": "owner",
              "type": "address"
            },
            {
              "internalType": "uint256",
              "name": "timestamp",
              "type": "uint256"
            },
            {
              "internalType": "string",
              "name": "password",
              "type": "string"
            },
            {
              "internalType": "string[]",
              "name": "Text",
              "type": "string[]"
            }
          ],
          "internalType": "struct Tweets.User",
          "name": "",
          "type": "tuple"
        }
      ],
      "stateMutability": "view",
      "type": "function"
    },
    {
      "inputs": [
        {
          "internalType": "address",
          "name": "UserKey",
          "type": "address"
        },
        {
          "internalType": "string",
          "name": "pw",
          "type": "string"
        }
      ],
      "name": "Login",
      "outputs": [
        {
          "internalType": "bool",
          "name": "",
          "type": "bool"
        }
      ],
      "stateMutability": "view",
      "type": "function"
    },
    {
      "inputs": [
        {
          "internalType": "string",
          "name": "ProductURI",
          "type": "string"
        },
        {
          "internalType": "uint256",
          "name": "price",
          "type": "uint256"
        },
        {
          "internalType": "string",
          "name": "name",
          "type": "string"
        },
        {
          "internalType": "uint256",
          "name": "ertnprice",
          "type": "uint256"
        },
        {
          "internalType": "address",
          "name": "pubkey",
          "type": "address"
        },
        {
          "internalType": "bool",
          "name": "postPic",
          "type": "bool"
        }
      ],
      "name": "MintProduct",
      "outputs": [],
      "stateMutability": "payable",
      "type": "function"
    },
    {
      "inputs": [
        {
          "internalType": "string",
          "name": "Data",
          "type": "string"
        },
        {
          "internalType": "string",
          "name": "NFTUrl",
          "type": "string"
        },
        {
          "internalType": "address",
          "name": "pubkey",
          "type": "address"
        }
      ],
      "name": "PostText",
      "outputs": [],
      "stateMutability": "payable",
      "type": "function"
    },
    {
      "inputs": [
        {
          "internalType": "uint256",
          "name": "productid",
          "type": "uint256"
        },
        {
          "internalType": "uint256",
          "name": "price",
          "type": "uint256"
        },
        {
          "internalType": "uint256",
          "name": "ERTNPrice",
          "type": "uint256"
        }
      ],
      "name": "Resale",
      "outputs": [],
      "stateMutability": "payable",
      "type": "function"
    },
    {
      "inputs": [
        {
          "internalType": "address",
          "name": "staker",
          "type": "address"
        },
        {
          "internalType": "uint256",
          "name": "amount",
          "type": "uint256"
        }
      ],
      "name": "RewardCalculater",
      "outputs": [
        {
          "internalType": "uint256",
          "name": "",
          "type": "uint256"
        }
      ],
      "stateMutability": "view",
      "type": "function"
    },
    {
      "inputs": [
        {
          "internalType": "uint256",
          "name": "Productid",
          "type": "uint256"
        }
      ],
      "name": "SaleProduct",
      "outputs": [],
      "stateMutability": "payable",
      "type": "function"
    },
    {
      "inputs": [
        {
          "internalType": "uint256",
          "name": "Productid",
          "type": "uint256"
        }
      ],
      "name": "SaleProductERTN",
      "outputs": [],
      "stateMutability": "payable",
      "type": "function"
    },
    {
      "inputs": [
        {
          "internalType": "string",
          "name": "FirstName",
          "type": "string"
        },
        {
          "internalType": "string",
          "name": "LastName",
          "type": "string"
        },
        {
          "internalType": "string",
          "name": "Profile",
          "type": "string"
        },
        {
          "internalType": "address",
          "name": "userKey",
          "type": "address"
        },
        {
          "internalType": "string",
          "name": "password",
          "type": "string"
        }
      ],
      "name": "SignUp",
      "outputs": [],
      "stateMutability": "payable",
      "type": "function"
    },
    {
      "inputs": [
        {
          "internalType": "uint256",
          "name": "amount",
          "type": "uint256"
        },
        {
          "internalType": "address",
          "name": "pubkey",
          "type": "address"
        }
      ],
      "name": "StakeTokens",
      "outputs": [],
      "stateMutability": "nonpayable",
      "type": "function"
    },
    {
      "inputs": [
        {
          "internalType": "address",
          "name": "staker",
          "type": "address"
        }
      ],
      "name": "Stakedamount",
      "outputs": [
        {
          "internalType": "uint256",
          "name": "",
          "type": "uint256"
        }
      ],
      "stateMutability": "view",
      "type": "function"
    },
    {
      "inputs": [
        {
          "internalType": "address",
          "name": "staker",
          "type": "address"
        }
      ],
      "name": "Stakedtime",
      "outputs": [
        {
          "internalType": "uint256",
          "name": "",
          "type": "uint256"
        }
      ],
      "stateMutability": "view",
      "type": "function"
    },
    {
      "inputs": [],
      "name": "TweetInstance",
      "outputs": [
        {
          "internalType": "contract Tweets",
          "name": "",
          "type": "address"
        }
      ],
      "stateMutability": "view",
      "type": "function"
    },
    {
      "inputs": [
        {
          "internalType": "uint256",
          "name": "amount",
          "type": "uint256"
        },
        {
          "internalType": "address",
          "name": "pubkey",
          "type": "address"
        }
      ],
      "name": "UnstakeTokens",
      "outputs": [],
      "stateMutability": "nonpayable",
      "type": "function"
    },
    {
      "inputs": [
        {
          "internalType": "address",
          "name": "to",
          "type": "address"
        },
        {
          "internalType": "uint256",
          "name": "tokenId",
          "type": "uint256"
        }
      ],
      "name": "approve",
      "outputs": [],
      "stateMutability": "nonpayable",
      "type": "function"
    },
    {
      "inputs": [
        {
          "internalType": "address",
          "name": "owner",
          "type": "address"
        }
      ],
      "name": "balanceOf",
      "outputs": [
        {
          "internalType": "uint256",
          "name": "",
          "type": "uint256"
        }
      ],
      "stateMutability": "view",
      "type": "function"
    },
    {
      "inputs": [
        {
          "internalType": "address",
          "name": "pukey",
          "type": "address"
        }
      ],
      "name": "checkbalance",
      "outputs": [
        {
          "internalType": "uint256",
          "name": "",
          "type": "uint256"
        }
      ],
      "stateMutability": "view",
      "type": "function"
    },
    {
      "inputs": [
        {
          "internalType": "uint256",
          "name": "tokenId",
          "type": "uint256"
        }
      ],
      "name": "getApproved",
      "outputs": [
        {
          "internalType": "address",
          "name": "",
          "type": "address"
        }
      ],
      "stateMutability": "view",
      "type": "function"
    },
    {
      "inputs": [],
      "name": "getMyProducts",
      "outputs": [
        {
          "components": [
            {
              "internalType": "uint256",
              "name": "ProductId",
              "type": "uint256"
            },
            {
              "internalType": "string",
              "name": "ProductURI",
              "type": "string"
            },
            {
              "internalType": "address payable",
              "name": "owner",
              "type": "address"
            },
            {
              "internalType": "address payable",
              "name": "seller",
              "type": "address"
            },
            {
              "internalType": "uint256",
              "name": "price",
              "type": "uint256"
            },
            {
              "internalType": "bool",
              "name": "status",
              "type": "bool"
            },
            {
              "internalType": "string",
              "name": "ProductName",
              "type": "string"
            },
            {
              "internalType": "uint256",
              "name": "ERTNPrice",
              "type": "uint256"
            }
          ],
          "internalType": "struct NFTandDefiMerged.ProductProperties[]",
          "name": "",
          "type": "tuple[]"
        }
      ],
      "stateMutability": "view",
      "type": "function"
    },
    {
      "inputs": [
        {
          "internalType": "address",
          "name": "owner",
          "type": "address"
        },
        {
          "internalType": "address",
          "name": "operator",
          "type": "address"
        }
      ],
      "name": "isApprovedForAll",
      "outputs": [
        {
          "internalType": "bool",
          "name": "",
          "type": "bool"
        }
      ],
      "stateMutability": "view",
      "type": "function"
    },
    {
      "inputs": [],
      "name": "name",
      "outputs": [
        {
          "internalType": "string",
          "name": "",
          "type": "string"
        }
      ],
      "stateMutability": "view",
      "type": "function"
    },
    {
      "inputs": [
        {
          "internalType": "uint256",
          "name": "tokenId",
          "type": "uint256"
        }
      ],
      "name": "ownerOf",
      "outputs": [
        {
          "internalType": "address",
          "name": "",
          "type": "address"
        }
      ],
      "stateMutability": "view",
      "type": "function"
    },
    {
      "inputs": [
        {
          "internalType": "address",
          "name": "from",
          "type": "address"
        },
        {
          "internalType": "address",
          "name": "to",
          "type": "address"
        },
        {
          "internalType": "uint256",
          "name": "tokenId",
          "type": "uint256"
        }
      ],
      "name": "safeTransferFrom",
      "outputs": [],
      "stateMutability": "nonpayable",
      "type": "function"
    },
    {
      "inputs": [
        {
          "internalType": "address",
          "name": "from",
          "type": "address"
        },
        {
          "internalType": "address",
          "name": "to",
          "type": "address"
        },
        {
          "internalType": "uint256",
          "name": "tokenId",
          "type": "uint256"
        },
        {
          "internalType": "bytes",
          "name": "data",
          "type": "bytes"
        }
      ],
      "name": "safeTransferFrom",
      "outputs": [],
      "stateMutability": "nonpayable",
      "type": "function"
    },
    {
      "inputs": [
        {
          "internalType": "address",
          "name": "operator",
          "type": "address"
        },
        {
          "internalType": "bool",
          "name": "approved",
          "type": "bool"
        }
      ],
      "name": "setApprovalForAll",
      "outputs": [],
      "stateMutability": "nonpayable",
      "type": "function"
    },
    {
      "inputs": [
        {
          "internalType": "bytes4",
          "name": "interfaceId",
          "type": "bytes4"
        }
      ],
      "name": "supportsInterface",
      "outputs": [
        {
          "internalType": "bool",
          "name": "",
          "type": "bool"
        }
      ],
      "stateMutability": "view",
      "type": "function"
    },
    {
      "inputs": [],
      "name": "symbol",
      "outputs": [
        {
          "internalType": "string",
          "name": "",
          "type": "string"
        }
      ],
      "stateMutability": "view",
      "type": "function"
    },
    {
      "inputs": [
        {
          "internalType": "uint256",
          "name": "tokenId",
          "type": "uint256"
        }
      ],
      "name": "tokenURI",
      "outputs": [
        {
          "internalType": "string",
          "name": "",
          "type": "string"
        }
      ],
      "stateMutability": "view",
      "type": "function"
    },
    {
      "inputs": [
        {
          "internalType": "address",
          "name": "from",
          "type": "address"
        },
        {
          "internalType": "address",
          "name": "to",
          "type": "address"
        },
        {
          "internalType": "uint256",
          "name": "tokenId",
          "type": "uint256"
        }
      ],
      "name": "transferFrom",
      "outputs": [],
      "stateMutability": "nonpayable",
      "type": "function"
    }
  ],
  "bytecode": "0x6080604052662386f26fc10000600b553480156200001c57600080fd5b506040516200614b3803806200614b833981810160405281019062000042919062000274565b6040518060400160405280600e81526020017f4e46544d61726b6574506c6163650000000000000000000000000000000000008152506040518060400160405280600481526020017f4e46544d000000000000000000000000000000000000000000000000000000008152508160009080519060200190620000c6929190620001ad565b508060019080519060200190620000df929190620001ad565b50505033600960006101000a81548173ffffffffffffffffffffffffffffffffffffffff021916908373ffffffffffffffffffffffffffffffffffffffff16021790555081600760006101000a81548173ffffffffffffffffffffffffffffffffffffffff021916908373ffffffffffffffffffffffffffffffffffffffff16021790555080600860006101000a81548173ffffffffffffffffffffffffffffffffffffffff021916908373ffffffffffffffffffffffffffffffffffffffff160217905550505062000368565b828054620001bb90620002e9565b90600052602060002090601f016020900481019282620001df57600085556200022b565b82601f10620001fa57805160ff19168380011785556200022b565b828001600101855582156200022b579182015b828111156200022a5782518255916020019190600101906200020d565b5b5090506200023a91906200023e565b5090565b5b80821115620002595760008160009055506001016200023f565b5090565b6000815190506200026e816200034e565b92915050565b600080604083850312156200028857600080fd5b600062000298858286016200025d565b9250506020620002ab858286016200025d565b9150509250929050565b6000620002c282620002c9565b9050919050565b600073ffffffffffffffffffffffffffffffffffffffff82169050919050565b600060028204905060018216806200030257607f821691505b602082108114156200031957620003186200031f565b5b50919050565b7f4e487b7100000000000000000000000000000000000000000000000000000000600052602260045260246000fd5b6200035981620002b5565b81146200036557600080fd5b50565b615dd380620003786000396000f3fe60806040526004361061020f5760003560e01c806381a17a4a11610118578063d8cd6fba116100a0578063e83029bb1161006f578063e83029bb14610791578063e985e9c5146107ce578063ef6d44b11461080b578063f805964214610827578063fdca4ca3146108435761020f565b8063d8cd6fba146106e4578063dc92b32d14610700578063dde0c6571461072b578063e4c3a532146107685761020f565b8063a22cb465116100e7578063a22cb465146105fc578063a4b4e42b14610625578063b88d4fde14610662578063c87b56dd1461068b578063d3715584146106c85761020f565b806381a17a4a1461054d5780638af316451461057857806395d89b41146105b557806398dda60f146105e05761020f565b806335260d291161019b57806365759af21161016a57806365759af2146104845780636cc5f9fc146104ad57806370a08231146104d8578063754dbc3b146105155780637bc4fb2b146105315761020f565b806335260d29146103b857806342842e0e146103e15780635e89fd921461040a5780636352211e146104475761020f565b80630a7cfbdc116101e25780630a7cfbdc146102e2578063145aac051461030d57806322a9d91c1461032957806323b872dd146103525780632753fe7d1461037b5761020f565b806301ffc9a71461021457806306fdde0314610251578063081812fc1461027c578063095ea7b3146102b9575b600080fd5b34801561022057600080fd5b5061023b60048036038101906102369190614573565b61086e565b6040516102489190615183565b60405180910390f35b34801561025d57600080fd5b506102666108cf565b60405161027391906151d4565b60405180910390f35b34801561028857600080fd5b506102a3600480360381019061029e9190614815565b610961565b6040516102b09190615048565b60405180910390f35b3480156102c557600080fd5b506102e060048036038101906102db919061448c565b6109a7565b005b3480156102ee57600080fd5b506102f7610abf565b60405161030491906151b9565b60405180910390f35b61032760048036038101906103229190614509565b610ae5565b005b34801561033557600080fd5b50610350600480360381019061034b9190614867565b610bba565b005b34801561035e57600080fd5b5061037960048036038101906103749190614332565b610c4d565b005b34801561038757600080fd5b506103a2600480360381019061039d91906142cd565b610cad565b6040516103af919061548a565b60405180910390f35b3480156103c457600080fd5b506103df60048036038101906103da919061448c565b610d6c565b005b3480156103ed57600080fd5b5061040860048036038101906104039190614332565b610dff565b005b34801561041657600080fd5b50610431600480360381019061042c91906142cd565b610e1f565b60405161043e91906154ac565b60405180910390f35b34801561045357600080fd5b5061046e60048036038101906104699190614815565b610ed3565b60405161047b9190615048565b60405180910390f35b34801561049057600080fd5b506104ab60048036038101906104a69190614867565b610f5a565b005b3480156104b957600080fd5b506104c2610fed565b6040516104cf919061519e565b60405180910390f35b3480156104e457600080fd5b506104ff60048036038101906104fa91906142cd565b611013565b60405161050c91906154ac565b60405180910390f35b61052f600480360381019061052a91906148a3565b6110cb565b005b61054b60048036038101906105469190614509565b6111ea565b005b34801561055957600080fd5b506105626112bf565b60405161056f919061513f565b60405180910390f35b34801561058457600080fd5b5061059f600480360381019061059a919061448c565b611609565b6040516105ac91906154ac565b60405180910390f35b3480156105c157600080fd5b506105ca6116c0565b6040516105d791906151d4565b60405180910390f35b6105fa60048036038101906105f591906145c5565b611752565b005b34801561060857600080fd5b50610623600480360381019061061e91906143fc565b61182b565b005b34801561063157600080fd5b5061064c60048036038101906106479190614438565b611841565b6040516106599190615183565b60405180910390f35b34801561066e57600080fd5b5061068960048036038101906106849190614381565b6118f8565b005b34801561069757600080fd5b506106b260048036038101906106ad9190614815565b61195a565b6040516106bf91906151d4565b60405180910390f35b6106e260048036038101906106dd9190614815565b611a6d565b005b6106fe60048036038101906106f9919061471b565b611d34565b005b34801561070c57600080fd5b50610715611f55565b6040516107229190615161565b60405180910390f35b34801561073757600080fd5b50610752600480360381019061074d91906142cd565b612001565b60405161075f91906154ac565b60405180910390f35b34801561077457600080fd5b5061078f600480360381019061078a9190614867565b6120b5565b005b34801561079d57600080fd5b506107b860048036038101906107b391906142cd565b612148565b6040516107c591906154ac565b60405180910390f35b3480156107da57600080fd5b506107f560048036038101906107f091906142f6565b6121fc565b6040516108029190615183565b60405180910390f35b61082560048036038101906108209190614815565b612290565b005b610841600480360381019061083c9190614644565b612420565b005b34801561084f57600080fd5b506108586124ff565b604051610865919061513f565b60405180910390f35b6000634906490660e01b7bffffffffffffffffffffffffffffffffffffffffffffffffffffffff1916827bffffffffffffffffffffffffffffffffffffffffffffffffffffffff191614806108c857506108c782612a5c565b5b9050919050565b6060600080546108de90615860565b80601f016020809104026020016040519081016040528092919081815260200182805461090a90615860565b80156109575780601f1061092c57610100808354040283529160200191610957565b820191906000526020600020905b81548152906001019060200180831161093a57829003601f168201915b5050505050905090565b600061096c82612b3e565b6004600083815260200190815260200160002060009054906101000a900473ffffffffffffffffffffffffffffffffffffffff169050919050565b60006109b282610ed3565b90508073ffffffffffffffffffffffffffffffffffffffff168373ffffffffffffffffffffffffffffffffffffffff161415610a23576040517f08c379a0000000000000000000000000000000000000000000000000000000008152600401610a1a9061542a565b60405180910390fd5b8073ffffffffffffffffffffffffffffffffffffffff16610a42612b89565b73ffffffffffffffffffffffffffffffffffffffff161480610a715750610a7081610a6b612b89565b6121fc565b5b610ab0576040517f08c379a0000000000000000000000000000000000000000000000000000000008152600401610aa79061544a565b60405180910390fd5b610aba8383612b91565b505050565b600860009054906101000a900473ffffffffffffffffffffffffffffffffffffffff1681565b60005b8151811015610b4d57610b3a828281518110610b2d577f4e487b7100000000000000000000000000000000000000000000000000000000600052603260045260246000fd5b6020026020010151612290565b8080610b45906158c3565b915050610ae8565b50600960009054906101000a900473ffffffffffffffffffffffffffffffffffffffff1673ffffffffffffffffffffffffffffffffffffffff166108fc349081150290604051600060405180830381858888f19350505050158015610bb6573d6000803e3d6000fd5b5050565b600760009054906101000a900473ffffffffffffffffffffffffffffffffffffffff1673ffffffffffffffffffffffffffffffffffffffff166322a9d91c83836040518363ffffffff1660e01b8152600401610c179291906154c7565b600060405180830381600087803b158015610c3157600080fd5b505af1158015610c45573d6000803e3d6000fd5b505050505050565b610c5e610c58612b89565b82612c4a565b610c9d576040517f08c379a0000000000000000000000000000000000000000000000000000000008152600401610c94906152ca565b60405180910390fd5b610ca8838383612cdf565b505050565b610cb5613b90565b600860009054906101000a900473ffffffffffffffffffffffffffffffffffffffff1673ffffffffffffffffffffffffffffffffffffffff16632753fe7d836040518263ffffffff1660e01b8152600401610d109190615048565b60006040518083038186803b158015610d2857600080fd5b505afa158015610d3c573d6000803e3d6000fd5b505050506040513d6000823e3d601f19601f82011682018060405250810190610d6591906147d4565b9050919050565b600860009054906101000a900473ffffffffffffffffffffffffffffffffffffffff1673ffffffffffffffffffffffffffffffffffffffff166335260d2983836040518363ffffffff1660e01b8152600401610dc9929190615116565b600060405180830381600087803b158015610de357600080fd5b505af1158015610df7573d6000803e3d6000fd5b505050505050565b610e1a838383604051806020016040528060008152506118f8565b505050565b6000600760009054906101000a900473ffffffffffffffffffffffffffffffffffffffff1673ffffffffffffffffffffffffffffffffffffffff16635e89fd92836040518263ffffffff1660e01b8152600401610e7c9190615048565b60206040518083038186803b158015610e9457600080fd5b505afa158015610ea8573d6000803e3d6000fd5b505050506040513d601f19601f82011682018060405250810190610ecc919061483e565b9050919050565b600080610edf83612fd9565b9050600073ffffffffffffffffffffffffffffffffffffffff168173ffffffffffffffffffffffffffffffffffffffff161415610f51576040517f08c379a0000000000000000000000000000000000000000000000000000000008152600401610f489061540a565b60405180910390fd5b80915050919050565b600760009054906101000a900473ffffffffffffffffffffffffffffffffffffffff1673ffffffffffffffffffffffffffffffffffffffff166365759af283836040518363ffffffff1660e01b8152600401610fb79291906154c7565b600060405180830381600087803b158015610fd157600080fd5b505af1158015610fe5573d6000803e3d6000fd5b505050505050565b600760009054906101000a900473ffffffffffffffffffffffffffffffffffffffff1681565b60008073ffffffffffffffffffffffffffffffffffffffff168273ffffffffffffffffffffffffffffffffffffffff161415611084576040517f08c379a000000000000000000000000000000000000000000000000000000000815260040161107b906153aa565b60405180910390fd5b600360008373ffffffffffffffffffffffffffffffffffffffff1673ffffffffffffffffffffffffffffffffffffffff168152602001908152602001600020549050919050565b6001600c600085815260200190815260200160002060050160006101000a81548160ff02191690831515021790555030600c600085815260200190815260200160002060020160006101000a81548173ffffffffffffffffffffffffffffffffffffffff021916908373ffffffffffffffffffffffffffffffffffffffff16021790555033600c600085815260200190815260200160002060030160006101000a81548173ffffffffffffffffffffffffffffffffffffffff021916908373ffffffffffffffffffffffffffffffffffffffff16021790555081600c60008581526020019081526020016000206004018190555080600c6000858152602001908152602001600020600701819055506111e5333085612cdf565b505050565b60005b81518110156112525761123f828281518110611232577f4e487b7100000000000000000000000000000000000000000000000000000000600052603260045260246000fd5b6020026020010151611a6d565b808061124a906158c3565b9150506111ed565b50600960009054906101000a900473ffffffffffffffffffffffffffffffffffffffff1673ffffffffffffffffffffffffffffffffffffffff166108fc349081150290604051600060405180830381858888f193505050501580156112bb573d6000803e3d6000fd5b5050565b606060006112cd600a613016565b905060008167ffffffffffffffff811115611311577f4e487b7100000000000000000000000000000000000000000000000000000000600052604160045260246000fd5b60405190808252806020026020018201604052801561134a57816020015b611337613be3565b81526020019060019003908161132f5790505b5090506000805b838110156115ff57600060018261136891906156fa565b90506000600c600083815260200190815260200160002090508060405180610100016040529081600082015481526020016001820180546113a890615860565b80601f01602080910402602001604051908101604052809291908181526020018280546113d490615860565b80156114215780601f106113f657610100808354040283529160200191611421565b820191906000526020600020905b81548152906001019060200180831161140457829003601f168201915b505050505081526020016002820160009054906101000a900473ffffffffffffffffffffffffffffffffffffffff1673ffffffffffffffffffffffffffffffffffffffff1673ffffffffffffffffffffffffffffffffffffffff1681526020016003820160009054906101000a900473ffffffffffffffffffffffffffffffffffffffff1673ffffffffffffffffffffffffffffffffffffffff1673ffffffffffffffffffffffffffffffffffffffff168152602001600482015481526020016005820160009054906101000a900460ff1615151515815260200160068201805461150b90615860565b80601f016020809104026020016040519081016040528092919081815260200182805461153790615860565b80156115845780601f1061155957610100808354040283529160200191611584565b820191906000526020600020905b81548152906001019060200180831161156757829003601f168201915b505050505081526020016007820154815250508585815181106115d0577f4e487b7100000000000000000000000000000000000000000000000000000000600052603260045260246000fd5b60200260200101819052506001846115e891906156fa565b9350505080806115f7906158c3565b915050611351565b5081935050505090565b6000600760009054906101000a900473ffffffffffffffffffffffffffffffffffffffff1673ffffffffffffffffffffffffffffffffffffffff16638af3164584846040518363ffffffff1660e01b8152600401611668929190615116565b60206040518083038186803b15801561168057600080fd5b505afa158015611694573d6000803e3d6000fd5b505050506040513d601f19601f820116820180604052508101906116b8919061483e565b905092915050565b6060600180546116cf90615860565b80601f01602080910402602001604051908101604052809291908181526020018280546116fb90615860565b80156117485780601f1061171d57610100808354040283529160200191611748565b820191906000526020600020905b81548152906001019060200180831161172b57829003601f168201915b5050505050905090565b60003411611795576040517f08c379a000000000000000000000000000000000000000000000000000000000815260040161178c906152aa565b60405180910390fd5b600860009054906101000a900473ffffffffffffffffffffffffffffffffffffffff1673ffffffffffffffffffffffffffffffffffffffff166398dda60f8484846040518463ffffffff1660e01b81526004016117f4939291906151f6565b600060405180830381600087803b15801561180e57600080fd5b505af1158015611822573d6000803e3d6000fd5b50505050505050565b61183d611836612b89565b8383613024565b5050565b6000600860009054906101000a900473ffffffffffffffffffffffffffffffffffffffff1673ffffffffffffffffffffffffffffffffffffffff1663a4b4e42b84846040518363ffffffff1660e01b81526004016118a09291906150e6565b60206040518083038186803b1580156118b857600080fd5b505afa1580156118cc573d6000803e3d6000fd5b505050506040513d601f19601f820116820180604052508101906118f0919061454a565b905092915050565b611909611903612b89565b83612c4a565b611948576040517f08c379a000000000000000000000000000000000000000000000000000000000815260040161193f906152ca565b60405180910390fd5b61195484848484613191565b50505050565b606061196582612b3e565b600060066000848152602001908152602001600020805461198590615860565b80601f01602080910402602001604051908101604052809291908181526020018280546119b190615860565b80156119fe5780601f106119d3576101008083540402835291602001916119fe565b820191906000526020600020905b8154815290600101906020018083116119e157829003601f168201915b505050505090506000611a0f6131ed565b9050600081511415611a25578192505050611a68565b600082511115611a5a578082604051602001611a42929190615024565b60405160208183030381529060405292505050611a68565b611a6384613204565b925050505b919050565b6000600c600083815260200190815260200160002060070154905080600760009054906101000a900473ffffffffffffffffffffffffffffffffffffffff1673ffffffffffffffffffffffffffffffffffffffff1663e83029bb336040518263ffffffff1660e01b8152600401611ae49190615048565b60206040518083038186803b158015611afc57600080fd5b505afa158015611b10573d6000803e3d6000fd5b505050506040513d601f19601f82011682018060405250810190611b34919061483e565b1015611b75576040517f08c379a0000000000000000000000000000000000000000000000000000000008152600401611b6c9061546a565b60405180910390fd5b6000600c600084815260200190815260200160002060030160009054906101000a900473ffffffffffffffffffffffffffffffffffffffff1690506000600c600085815260200190815260200160002060050160006101000a81548160ff02191690831515021790555033600c600085815260200190815260200160002060030160006101000a81548173ffffffffffffffffffffffffffffffffffffffff021916908373ffffffffffffffffffffffffffffffffffffffff16021790555033600c600085815260200190815260200160002060020160006101000a81548173ffffffffffffffffffffffffffffffffffffffff021916908373ffffffffffffffffffffffffffffffffffffffff160217905550611c94303385612cdf565b611c9e30846109a7565b600760009054906101000a900473ffffffffffffffffffffffffffffffffffffffff1673ffffffffffffffffffffffffffffffffffffffff1663db543a7b3383856040518463ffffffff1660e01b8152600401611cfd93929190615063565b600060405180830381600087803b158015611d1757600080fd5b505af1158015611d2b573d6000803e3d6000fd5b50505050505050565b60008511611d77576040517f08c379a0000000000000000000000000000000000000000000000000000000008152600401611d6e9061538a565b60405180910390fd5b611d81600a61326c565b6000611d8d600a613016565b9050611d993382613282565b611da381886132a0565b6040518061010001604052808281526020018881526020013073ffffffffffffffffffffffffffffffffffffffff1681526020013373ffffffffffffffffffffffffffffffffffffffff16815260200187815260200160011515815260200186815260200185815250600c6000838152602001908152602001600020600082015181600001556020820151816001019080519060200190611e45929190613c56565b5060408201518160020160006101000a81548173ffffffffffffffffffffffffffffffffffffffff021916908373ffffffffffffffffffffffffffffffffffffffff16021790555060608201518160030160006101000a81548173ffffffffffffffffffffffffffffffffffffffff021916908373ffffffffffffffffffffffffffffffffffffffff1602179055506080820151816004015560a08201518160050160006101000a81548160ff02191690831515021790555060c0820151816006019080519060200190611f1a929190613c56565b5060e08201518160070155905050611f33333083612cdf565b600115158215151415611f4c57611f4b858885611752565b5b50505050505050565b6060600860009054906101000a900473ffffffffffffffffffffffffffffffffffffffff1673ffffffffffffffffffffffffffffffffffffffff1663dc92b32d6040518163ffffffff1660e01b815260040160006040518083038186803b158015611fbf57600080fd5b505afa158015611fd3573d6000803e3d6000fd5b505050506040513d6000823e3d601f19601f82011682018060405250810190611ffc91906144c8565b905090565b6000600760009054906101000a900473ffffffffffffffffffffffffffffffffffffffff1673ffffffffffffffffffffffffffffffffffffffff1663dde0c657836040518263ffffffff1660e01b815260040161205e9190615048565b60206040518083038186803b15801561207657600080fd5b505afa15801561208a573d6000803e3d6000fd5b505050506040513d601f19601f820116820180604052508101906120ae919061483e565b9050919050565b600760009054906101000a900473ffffffffffffffffffffffffffffffffffffffff1673ffffffffffffffffffffffffffffffffffffffff1663e4c3a53283836040518363ffffffff1660e01b81526004016121129291906154c7565b600060405180830381600087803b15801561212c57600080fd5b505af1158015612140573d6000803e3d6000fd5b505050505050565b6000600760009054906101000a900473ffffffffffffffffffffffffffffffffffffffff1673ffffffffffffffffffffffffffffffffffffffff1663e83029bb836040518263ffffffff1660e01b81526004016121a59190615048565b60206040518083038186803b1580156121bd57600080fd5b505afa1580156121d1573d6000803e3d6000fd5b505050506040513d601f19601f820116820180604052508101906121f5919061483e565b9050919050565b6000600560008473ffffffffffffffffffffffffffffffffffffffff1673ffffffffffffffffffffffffffffffffffffffff16815260200190815260200160002060008373ffffffffffffffffffffffffffffffffffffffff1673ffffffffffffffffffffffffffffffffffffffff16815260200190815260200160002060009054906101000a900460ff16905092915050565b6000600c60008381526020019081526020016000206004015490506000600c600084815260200190815260200160002060030160009054906101000a900473ffffffffffffffffffffffffffffffffffffffff1690506000600c600085815260200190815260200160002060050160006101000a81548160ff02191690831515021790555033600c600085815260200190815260200160002060030160006101000a81548173ffffffffffffffffffffffffffffffffffffffff021916908373ffffffffffffffffffffffffffffffffffffffff16021790555033600c600085815260200190815260200160002060020160006101000a81548173ffffffffffffffffffffffffffffffffffffffff021916908373ffffffffffffffffffffffffffffffffffffffff1602179055506123ca303385612cdf565b6123d430846109a7565b8073ffffffffffffffffffffffffffffffffffffffff166108fc839081150290604051600060405180830381858888f1935050505015801561241a573d6000803e3d6000fd5b50505050565b60003411612463576040517f08c379a000000000000000000000000000000000000000000000000000000000815260040161245a906152aa565b60405180910390fd5b600860009054906101000a900473ffffffffffffffffffffffffffffffffffffffff1673ffffffffffffffffffffffffffffffffffffffff1663f805964286868686866040518663ffffffff1660e01b81526004016124c695949392919061523b565b600060405180830381600087803b1580156124e057600080fd5b505af11580156124f4573d6000803e3d6000fd5b505050505050505050565b6060600061250d600a613016565b90506000806000905060005b83811015612632573373ffffffffffffffffffffffffffffffffffffffff16600c600060018461254991906156fa565b815260200190815260200160002060020160009054906101000a900473ffffffffffffffffffffffffffffffffffffffff1673ffffffffffffffffffffffffffffffffffffffff16148061260a57503373ffffffffffffffffffffffffffffffffffffffff16600c60006001846125c091906156fa565b815260200190815260200160002060030160009054906101000a900473ffffffffffffffffffffffffffffffffffffffff1673ffffffffffffffffffffffffffffffffffffffff16145b1561261f5760018361261c91906156fa565b92505b808061262a906158c3565b915050612519565b5060008267ffffffffffffffff811115612675577f4e487b7100000000000000000000000000000000000000000000000000000000600052604160045260246000fd5b6040519080825280602002602001820160405280156126ae57816020015b61269b613be3565b8152602001906001900390816126935790505b50905060005b83811015612a51573373ffffffffffffffffffffffffffffffffffffffff16600c60006001846126e491906156fa565b815260200190815260200160002060020160009054906101000a900473ffffffffffffffffffffffffffffffffffffffff1673ffffffffffffffffffffffffffffffffffffffff1614806127a557503373ffffffffffffffffffffffffffffffffffffffff16600c600060018461275b91906156fa565b815260200190815260200160002060030160009054906101000a900473ffffffffffffffffffffffffffffffffffffffff1673ffffffffffffffffffffffffffffffffffffffff16145b15612a3e5760006001826127b991906156fa565b90506000600c600083815260200190815260200160002090508060405180610100016040529081600082015481526020016001820180546127f990615860565b80601f016020809104026020016040519081016040528092919081815260200182805461282590615860565b80156128725780601f1061284757610100808354040283529160200191612872565b820191906000526020600020905b81548152906001019060200180831161285557829003601f168201915b505050505081526020016002820160009054906101000a900473ffffffffffffffffffffffffffffffffffffffff1673ffffffffffffffffffffffffffffffffffffffff1673ffffffffffffffffffffffffffffffffffffffff1681526020016003820160009054906101000a900473ffffffffffffffffffffffffffffffffffffffff1673ffffffffffffffffffffffffffffffffffffffff1673ffffffffffffffffffffffffffffffffffffffff168152602001600482015481526020016005820160009054906101000a900460ff1615151515815260200160068201805461295c90615860565b80601f016020809104026020016040519081016040528092919081815260200182805461298890615860565b80156129d55780601f106129aa576101008083540402835291602001916129d5565b820191906000526020600020905b8154815290600101906020018083116129b857829003601f168201915b50505050508152602001600782015481525050848681518110612a21577f4e487b7100000000000000000000000000000000000000000000000000000000600052603260045260246000fd5b6020026020010181905250600185612a3991906156fa565b945050505b8080612a49906158c3565b9150506126b4565b508094505050505090565b60007f80ac58cd000000000000000000000000000000000000000000000000000000007bffffffffffffffffffffffffffffffffffffffffffffffffffffffff1916827bffffffffffffffffffffffffffffffffffffffffffffffffffffffff19161480612b2757507f5b5e139f000000000000000000000000000000000000000000000000000000007bffffffffffffffffffffffffffffffffffffffffffffffffffffffff1916827bffffffffffffffffffffffffffffffffffffffffffffffffffffffff1916145b80612b375750612b368261334b565b5b9050919050565b612b47816133b5565b612b86576040517f08c379a0000000000000000000000000000000000000000000000000000000008152600401612b7d9061540a565b60405180910390fd5b50565b600033905090565b816004600083815260200190815260200160002060006101000a81548173ffffffffffffffffffffffffffffffffffffffff021916908373ffffffffffffffffffffffffffffffffffffffff160217905550808273ffffffffffffffffffffffffffffffffffffffff16612c0483610ed3565b73ffffffffffffffffffffffffffffffffffffffff167f8c5be1e5ebec7d5bd14f71427d1e84f3dd0314c0f7b2291e5b200ac8c7c3b92560405160405180910390a45050565b600080612c5683610ed3565b90508073ffffffffffffffffffffffffffffffffffffffff168473ffffffffffffffffffffffffffffffffffffffff161480612c985750612c9781856121fc565b5b80612cd657508373ffffffffffffffffffffffffffffffffffffffff16612cbe84610961565b73ffffffffffffffffffffffffffffffffffffffff16145b91505092915050565b8273ffffffffffffffffffffffffffffffffffffffff16612cff82610ed3565b73ffffffffffffffffffffffffffffffffffffffff1614612d55576040517f08c379a0000000000000000000000000000000000000000000000000000000008152600401612d4c9061530a565b60405180910390fd5b600073ffffffffffffffffffffffffffffffffffffffff168273ffffffffffffffffffffffffffffffffffffffff161415612dc5576040517f08c379a0000000000000000000000000000000000000000000000000000000008152600401612dbc9061534a565b60405180910390fd5b612dd283838360016133f6565b8273ffffffffffffffffffffffffffffffffffffffff16612df282610ed3565b73ffffffffffffffffffffffffffffffffffffffff1614612e48576040517f08c379a0000000000000000000000000000000000000000000000000000000008152600401612e3f9061530a565b60405180910390fd5b6004600082815260200190815260200160002060006101000a81549073ffffffffffffffffffffffffffffffffffffffff02191690556001600360008573ffffffffffffffffffffffffffffffffffffffff1673ffffffffffffffffffffffffffffffffffffffff168152602001908152602001600020600082825403925050819055506001600360008473ffffffffffffffffffffffffffffffffffffffff1673ffffffffffffffffffffffffffffffffffffffff16815260200190815260200160002060008282540192505081905550816002600083815260200190815260200160002060006101000a81548173ffffffffffffffffffffffffffffffffffffffff021916908373ffffffffffffffffffffffffffffffffffffffff160217905550808273ffffffffffffffffffffffffffffffffffffffff168473ffffffffffffffffffffffffffffffffffffffff167fddf252ad1be2c89b69c2b068fc378daa952ba7f163c4a11628f55a4df523b3ef60405160405180910390a4612fd483838360016133fc565b505050565b60006002600083815260200190815260200160002060009054906101000a900473ffffffffffffffffffffffffffffffffffffffff169050919050565b600081600001549050919050565b8173ffffffffffffffffffffffffffffffffffffffff168373ffffffffffffffffffffffffffffffffffffffff161415613093576040517f08c379a000000000000000000000000000000000000000000000000000000000815260040161308a9061536a565b60405180910390fd5b80600560008573ffffffffffffffffffffffffffffffffffffffff1673ffffffffffffffffffffffffffffffffffffffff16815260200190815260200160002060008473ffffffffffffffffffffffffffffffffffffffff1673ffffffffffffffffffffffffffffffffffffffff16815260200190815260200160002060006101000a81548160ff0219169083151502179055508173ffffffffffffffffffffffffffffffffffffffff168373ffffffffffffffffffffffffffffffffffffffff167f17307eab39ab6107e8899845ad3d59bd9653f200f220920489ca2b5937696c31836040516131849190615183565b60405180910390a3505050565b61319c848484612cdf565b6131a884848484613402565b6131e7576040517f08c379a00000000000000000000000000000000000000000000000000000000081526004016131de906152ea565b60405180910390fd5b50505050565b606060405180602001604052806000815250905090565b606061320f82612b3e565b60006132196131ed565b905060008151116132395760405180602001604052806000815250613264565b8061324384613599565b604051602001613254929190615024565b6040516020818303038152906040525b915050919050565b6001816000016000828254019250508190555050565b61329c8282604051806020016040528060008152506136bd565b5050565b6132a9826133b5565b6132e8576040517f08c379a00000000000000000000000000000000000000000000000000000000081526004016132df906153ca565b60405180910390fd5b8060066000848152602001908152602001600020908051906020019061330f929190613c56565b507ff8e1a15aba9398e019f0b49df1a4fde98ee17ae345cb5f6b5e2c27f5033e8ce78260405161333f91906154ac565b60405180910390a15050565b60007f01ffc9a7000000000000000000000000000000000000000000000000000000007bffffffffffffffffffffffffffffffffffffffffffffffffffffffff1916827bffffffffffffffffffffffffffffffffffffffffffffffffffffffff1916149050919050565b60008073ffffffffffffffffffffffffffffffffffffffff166133d783612fd9565b73ffffffffffffffffffffffffffffffffffffffff1614159050919050565b50505050565b50505050565b60006134238473ffffffffffffffffffffffffffffffffffffffff16613718565b1561358c578373ffffffffffffffffffffffffffffffffffffffff1663150b7a0261344c612b89565b8786866040518563ffffffff1660e01b815260040161346e949392919061509a565b602060405180830381600087803b15801561348857600080fd5b505af19250505080156134b957506040513d601f19601f820116820180604052508101906134b6919061459c565b60015b61353c573d80600081146134e9576040519150601f19603f3d011682016040523d82523d6000602084013e6134ee565b606091505b50600081511415613534576040517f08c379a000000000000000000000000000000000000000000000000000000000815260040161352b906152ea565b60405180910390fd5b805181602001fd5b63150b7a0260e01b7bffffffffffffffffffffffffffffffffffffffffffffffffffffffff1916817bffffffffffffffffffffffffffffffffffffffffffffffffffffffff191614915050613591565b600190505b949350505050565b6060600060016135a88461373b565b01905060008167ffffffffffffffff8111156135ed577f4e487b7100000000000000000000000000000000000000000000000000000000600052604160045260246000fd5b6040519080825280601f01601f19166020018201604052801561361f5781602001600182028036833780820191505090505b509050600082602001820190505b6001156136b2578080600190039150507f3031323334353637383961626364656600000000000000000000000000000000600a86061a8153600a858161369c577f4e487b7100000000000000000000000000000000000000000000000000000000600052601260045260246000fd5b04945060008514156136ad576136b2565b61362d565b819350505050919050565b6136c78383613972565b6136d46000848484613402565b613713576040517f08c379a000000000000000000000000000000000000000000000000000000000815260040161370a906152ea565b60405180910390fd5b505050565b6000808273ffffffffffffffffffffffffffffffffffffffff163b119050919050565b600080600090507a184f03e93ff9f4daa797ed6e38ed64bf6a1f01000000000000000083106137bf577a184f03e93ff9f4daa797ed6e38ed64bf6a1f01000000000000000083816137b5577f4e487b7100000000000000000000000000000000000000000000000000000000600052601260045260246000fd5b0492506040810190505b6d04ee2d6d415b85acef81000000008310613822576d04ee2d6d415b85acef81000000008381613818577f4e487b7100000000000000000000000000000000000000000000000000000000600052601260045260246000fd5b0492506020810190505b662386f26fc10000831061387757662386f26fc10000838161386d577f4e487b7100000000000000000000000000000000000000000000000000000000600052601260045260246000fd5b0492506010810190505b6305f5e10083106138c6576305f5e10083816138bc577f4e487b7100000000000000000000000000000000000000000000000000000000600052601260045260246000fd5b0492506008810190505b6127108310613911576127108381613907577f4e487b7100000000000000000000000000000000000000000000000000000000600052601260045260246000fd5b0492506004810190505b6064831061395a5760648381613950577f4e487b7100000000000000000000000000000000000000000000000000000000600052601260045260246000fd5b0492506002810190505b600a8310613969576001810190505b80915050919050565b600073ffffffffffffffffffffffffffffffffffffffff168273ffffffffffffffffffffffffffffffffffffffff1614156139e2576040517f08c379a00000000000000000000000000000000000000000000000000000000081526004016139d9906153ea565b60405180910390fd5b6139eb816133b5565b15613a2b576040517f08c379a0000000000000000000000000000000000000000000000000000000008152600401613a229061532a565b60405180910390fd5b613a396000838360016133f6565b613a42816133b5565b15613a82576040517f08c379a0000000000000000000000000000000000000000000000000000000008152600401613a799061532a565b60405180910390fd5b6001600360008473ffffffffffffffffffffffffffffffffffffffff1673ffffffffffffffffffffffffffffffffffffffff16815260200190815260200160002060008282540192505081905550816002600083815260200190815260200160002060006101000a81548173ffffffffffffffffffffffffffffffffffffffff021916908373ffffffffffffffffffffffffffffffffffffffff160217905550808273ffffffffffffffffffffffffffffffffffffffff16600073ffffffffffffffffffffffffffffffffffffffff167fddf252ad1be2c89b69c2b068fc378daa952ba7f163c4a11628f55a4df523b3ef60405160405180910390a4613b8c6000838360016133fc565b5050565b6040518060e00160405280606081526020016060815260200160608152602001600073ffffffffffffffffffffffffffffffffffffffff1681526020016000815260200160608152602001606081525090565b6040518061010001604052806000815260200160608152602001600073ffffffffffffffffffffffffffffffffffffffff168152602001600073ffffffffffffffffffffffffffffffffffffffff1681526020016000815260200160001515815260200160608152602001600081525090565b828054613c6290615860565b90600052602060002090601f016020900481019282613c845760008555613ccb565b82601f10613c9d57805160ff1916838001178555613ccb565b82800160010185558215613ccb579182015b82811115613cca578251825591602001919060010190613caf565b5b509050613cd89190613cdc565b5090565b5b80821115613cf5576000816000905550600101613cdd565b5090565b6000613d0c613d0784615515565b6154f0565b9050808382526020820190508260005b85811015613d4c5781518501613d328882614029565b845260208401935060208301925050600181019050613d1c565b5050509392505050565b6000613d69613d6484615541565b6154f0565b9050808382526020820190508260005b85811015613da95781518501613d8f888261417b565b845260208401935060208301925050600181019050613d79565b5050509392505050565b6000613dc6613dc18461556d565b6154f0565b90508083825260208201905082856020860282011115613de557600080fd5b60005b85811015613e155781613dfb88826142a3565b845260208401935060208301925050600181019050613de8565b5050509392505050565b6000613e32613e2d84615599565b6154f0565b905082815260208101848484011115613e4a57600080fd5b613e5584828561581e565b509392505050565b6000613e70613e6b846155ca565b6154f0565b905082815260208101848484011115613e8857600080fd5b613e9384828561581e565b509392505050565b6000613eae613ea9846155ca565b6154f0565b905082815260208101848484011115613ec657600080fd5b613ed184828561582d565b509392505050565b600081359050613ee881615d41565b92915050565b600081519050613efd81615d41565b92915050565b600082601f830112613f1457600080fd5b8151613f24848260208601613cf9565b91505092915050565b600082601f830112613f3e57600080fd5b8151613f4e848260208601613d56565b91505092915050565b600082601f830112613f6857600080fd5b8135613f78848260208601613db3565b91505092915050565b600081359050613f9081615d58565b92915050565b600081519050613fa581615d58565b92915050565b600081359050613fba81615d6f565b92915050565b600081519050613fcf81615d6f565b92915050565b600082601f830112613fe657600080fd5b8135613ff6848260208601613e1f565b91505092915050565b600082601f83011261401057600080fd5b8135614020848260208601613e5d565b91505092915050565b600082601f83011261403a57600080fd5b815161404a848260208601613e9b565b91505092915050565b600060e0828403121561406557600080fd5b61406f60e06154f0565b9050600082015167ffffffffffffffff81111561408b57600080fd5b61409784828501614029565b600083015250602082015167ffffffffffffffff8111156140b757600080fd5b6140c384828501614029565b602083015250604082015167ffffffffffffffff8111156140e357600080fd5b6140ef84828501614029565b604083015250606061410384828501613eee565b6060830152506080614117848285016142b8565b60808301525060a082015167ffffffffffffffff81111561413757600080fd5b61414384828501614029565b60a08301525060c082015167ffffffffffffffff81111561416357600080fd5b61416f84828501613f03565b60c08301525092915050565b600060e0828403121561418d57600080fd5b61419760e06154f0565b9050600082015167ffffffffffffffff8111156141b357600080fd5b6141bf84828501614029565b600083015250602082015167ffffffffffffffff8111156141df57600080fd5b6141eb84828501614029565b602083015250604082015167ffffffffffffffff81111561420b57600080fd5b61421784828501614029565b604083015250606061422b848285016142b8565b606083015250608082015167ffffffffffffffff81111561424b57600080fd5b61425784828501614029565b60808301525060a061426b84828501613eee565b60a08301525060c082015167ffffffffffffffff81111561428b57600080fd5b61429784828501614029565b60c08301525092915050565b6000813590506142b281615d86565b92915050565b6000815190506142c781615d86565b92915050565b6000602082840312156142df57600080fd5b60006142ed84828501613ed9565b91505092915050565b6000806040838503121561430957600080fd5b600061431785828601613ed9565b925050602061432885828601613ed9565b9150509250929050565b60008060006060848603121561434757600080fd5b600061435586828701613ed9565b935050602061436686828701613ed9565b9250506040614377868287016142a3565b9150509250925092565b6000806000806080858703121561439757600080fd5b60006143a587828801613ed9565b94505060206143b687828801613ed9565b93505060406143c7878288016142a3565b925050606085013567ffffffffffffffff8111156143e457600080fd5b6143f087828801613fd5565b91505092959194509250565b6000806040838503121561440f57600080fd5b600061441d85828601613ed9565b925050602061442e85828601613f81565b9150509250929050565b6000806040838503121561444b57600080fd5b600061445985828601613ed9565b925050602083013567ffffffffffffffff81111561447657600080fd5b61448285828601613fff565b9150509250929050565b6000806040838503121561449f57600080fd5b60006144ad85828601613ed9565b92505060206144be858286016142a3565b9150509250929050565b6000602082840312156144da57600080fd5b600082015167ffffffffffffffff8111156144f457600080fd5b61450084828501613f2d565b91505092915050565b60006020828403121561451b57600080fd5b600082013567ffffffffffffffff81111561453557600080fd5b61454184828501613f57565b91505092915050565b60006020828403121561455c57600080fd5b600061456a84828501613f96565b91505092915050565b60006020828403121561458557600080fd5b600061459384828501613fab565b91505092915050565b6000602082840312156145ae57600080fd5b60006145bc84828501613fc0565b91505092915050565b6000806000606084860312156145da57600080fd5b600084013567ffffffffffffffff8111156145f457600080fd5b61460086828701613fff565b935050602084013567ffffffffffffffff81111561461d57600080fd5b61462986828701613fff565b925050604061463a86828701613ed9565b9150509250925092565b600080600080600060a0868803121561465c57600080fd5b600086013567ffffffffffffffff81111561467657600080fd5b61468288828901613fff565b955050602086013567ffffffffffffffff81111561469f57600080fd5b6146ab88828901613fff565b945050604086013567ffffffffffffffff8111156146c857600080fd5b6146d488828901613fff565b93505060606146e588828901613ed9565b925050608086013567ffffffffffffffff81111561470257600080fd5b61470e88828901613fff565b9150509295509295909350565b60008060008060008060c0878903121561473457600080fd5b600087013567ffffffffffffffff81111561474e57600080fd5b61475a89828a01613fff565b965050602061476b89828a016142a3565b955050604087013567ffffffffffffffff81111561478857600080fd5b61479489828a01613fff565b94505060606147a589828a016142a3565b93505060806147b689828a01613ed9565b92505060a06147c789828a01613f81565b9150509295509295509295565b6000602082840312156147e657600080fd5b600082015167ffffffffffffffff81111561480057600080fd5b61480c84828501614053565b91505092915050565b60006020828403121561482757600080fd5b6000614835848285016142a3565b91505092915050565b60006020828403121561485057600080fd5b600061485e848285016142b8565b91505092915050565b6000806040838503121561487a57600080fd5b6000614888858286016142a3565b925050602061489985828601613ed9565b9150509250929050565b6000806000606084860312156148b857600080fd5b60006148c6868287016142a3565b93505060206148d7868287016142a3565b92505060406148e8868287016142a3565b9150509250925092565b60006148fe8383614b2f565b905092915050565b60006149128383614ddf565b905092915050565b60006149268383614f4e565b905092915050565b61493781615762565b82525050565b61494681615750565b82525050565b61495581615750565b82525050565b60006149668261562b565b6149708185615689565b935083602082028501614982856155fb565b8060005b858110156149be578484038952815161499f85826148f2565b94506149aa83615662565b925060208a01995050600181019050614986565b50829750879550505050505092915050565b60006149db82615636565b6149e5818561569a565b9350836020820285016149f78561560b565b8060005b85811015614a335784840389528151614a148582614906565b9450614a1f8361566f565b925060208a019950506001810190506149fb565b50829750879550505050505092915050565b6000614a5082615641565b614a5a81856156ab565b935083602082028501614a6c8561561b565b8060005b85811015614aa85784840389528151614a89858261491a565b9450614a948361567c565b925060208a01995050600181019050614a70565b50829750879550505050505092915050565b614ac381615774565b82525050565b614ad281615774565b82525050565b6000614ae38261564c565b614aed81856156bc565b9350614afd81856020860161582d565b614b0681615999565b840191505092915050565b614b1a816157d6565b82525050565b614b29816157fa565b82525050565b6000614b3a82615657565b614b4481856156cd565b9350614b5481856020860161582d565b614b5d81615999565b840191505092915050565b6000614b7382615657565b614b7d81856156de565b9350614b8d81856020860161582d565b614b9681615999565b840191505092915050565b6000614bac82615657565b614bb681856156ef565b9350614bc681856020860161582d565b80840191505092915050565b6000614bdf6010836156de565b9150614bea826159aa565b602082019050919050565b6000614c02602d836156de565b9150614c0d826159d3565b604082019050919050565b6000614c256032836156de565b9150614c3082615a22565b604082019050919050565b6000614c486025836156de565b9150614c5382615a71565b604082019050919050565b6000614c6b601c836156de565b9150614c7682615ac0565b602082019050919050565b6000614c8e6024836156de565b9150614c9982615ae9565b604082019050919050565b6000614cb16019836156de565b9150614cbc82615b38565b602082019050919050565b6000614cd46017836156de565b9150614cdf82615b61565b602082019050919050565b6000614cf76029836156de565b9150614d0282615b8a565b604082019050919050565b6000614d1a602e836156de565b9150614d2582615bd9565b604082019050919050565b6000614d3d6020836156de565b9150614d4882615c28565b602082019050919050565b6000614d606018836156de565b9150614d6b82615c51565b602082019050919050565b6000614d836021836156de565b9150614d8e82615c7a565b604082019050919050565b6000614da6603d836156de565b9150614db182615cc9565b604082019050919050565b6000614dc9601b836156de565b9150614dd482615d18565b602082019050919050565b600061010083016000830151614df86000860182615006565b5060208301518482036020860152614e108282614b2f565b9150506040830151614e25604086018261492e565b506060830151614e38606086018261492e565b506080830151614e4b6080860182615006565b5060a0830151614e5e60a0860182614aba565b5060c083015184820360c0860152614e768282614b2f565b91505060e0830151614e8b60e0860182615006565b508091505092915050565b600060e0830160008301518482036000860152614eb38282614b2f565b91505060208301518482036020860152614ecd8282614b2f565b91505060408301518482036040860152614ee78282614b2f565b9150506060830151614efc606086018261493d565b506080830151614f0f6080860182615006565b5060a083015184820360a0860152614f278282614b2f565b91505060c083015184820360c0860152614f41828261495b565b9150508091505092915050565b600060e0830160008301518482036000860152614f6b8282614b2f565b91505060208301518482036020860152614f858282614b2f565b91505060408301518482036040860152614f9f8282614b2f565b9150506060830151614fb46060860182615006565b5060808301518482036080860152614fcc8282614b2f565b91505060a0830151614fe160a086018261493d565b5060c083015184820360c0860152614ff98282614b2f565b9150508091505092915050565b61500f816157cc565b82525050565b61501e816157cc565b82525050565b60006150308285614ba1565b915061503c8284614ba1565b91508190509392505050565b600060208201905061505d600083018461494c565b92915050565b6000606082019050615078600083018661494c565b615085602083018561494c565b6150926040830184615015565b949350505050565b60006080820190506150af600083018761494c565b6150bc602083018661494c565b6150c96040830185615015565b81810360608301526150db8184614ad8565b905095945050505050565b60006040820190506150fb600083018561494c565b818103602083015261510d8184614b68565b90509392505050565b600060408201905061512b600083018561494c565b6151386020830184615015565b9392505050565b6000602082019050818103600083015261515981846149d0565b905092915050565b6000602082019050818103600083015261517b8184614a45565b905092915050565b60006020820190506151986000830184614ac9565b92915050565b60006020820190506151b36000830184614b11565b92915050565b60006020820190506151ce6000830184614b20565b92915050565b600060208201905081810360008301526151ee8184614b68565b905092915050565b600060608201905081810360008301526152108186614b68565b905081810360208301526152248185614b68565b9050615233604083018461494c565b949350505050565b600060a08201905081810360008301526152558188614b68565b905081810360208301526152698187614b68565b9050818103604083015261527d8186614b68565b905061528c606083018561494c565b818103608083015261529e8184614b68565b90509695505050505050565b600060208201905081810360008301526152c381614bd2565b9050919050565b600060208201905081810360008301526152e381614bf5565b9050919050565b6000602082019050818103600083015261530381614c18565b9050919050565b6000602082019050818103600083015261532381614c3b565b9050919050565b6000602082019050818103600083015261534381614c5e565b9050919050565b6000602082019050818103600083015261536381614c81565b9050919050565b6000602082019050818103600083015261538381614ca4565b9050919050565b600060208201905081810360008301526153a381614cc7565b9050919050565b600060208201905081810360008301526153c381614cea565b9050919050565b600060208201905081810360008301526153e381614d0d565b9050919050565b6000602082019050818103600083015261540381614d30565b9050919050565b6000602082019050818103600083015261542381614d53565b9050919050565b6000602082019050818103600083015261544381614d76565b9050919050565b6000602082019050818103600083015261546381614d99565b9050919050565b6000602082019050818103600083015261548381614dbc565b9050919050565b600060208201905081810360008301526154a48184614e96565b905092915050565b60006020820190506154c16000830184615015565b92915050565b60006040820190506154dc6000830185615015565b6154e9602083018461494c565b9392505050565b60006154fa61550b565b90506155068282615892565b919050565b6000604051905090565b600067ffffffffffffffff8211156155305761552f61596a565b5b602082029050602081019050919050565b600067ffffffffffffffff82111561555c5761555b61596a565b5b602082029050602081019050919050565b600067ffffffffffffffff8211156155885761558761596a565b5b602082029050602081019050919050565b600067ffffffffffffffff8211156155b4576155b361596a565b5b6155bd82615999565b9050602081019050919050565b600067ffffffffffffffff8211156155e5576155e461596a565b5b6155ee82615999565b9050602081019050919050565b6000819050602082019050919050565b6000819050602082019050919050565b6000819050602082019050919050565b600081519050919050565b600081519050919050565b600081519050919050565b600081519050919050565b600081519050919050565b6000602082019050919050565b6000602082019050919050565b6000602082019050919050565b600082825260208201905092915050565b600082825260208201905092915050565b600082825260208201905092915050565b600082825260208201905092915050565b600082825260208201905092915050565b600082825260208201905092915050565b600081905092915050565b6000615705826157cc565b9150615710836157cc565b9250827fffffffffffffffffffffffffffffffffffffffffffffffffffffffffffffffff038211156157455761574461590c565b5b828201905092915050565b600061575b826157ac565b9050919050565b600061576d826157ac565b9050919050565b60008115159050919050565b60007fffffffff0000000000000000000000000000000000000000000000000000000082169050919050565b600073ffffffffffffffffffffffffffffffffffffffff82169050919050565b6000819050919050565b60006157e1826157e8565b9050919050565b60006157f3826157ac565b9050919050565b60006158058261580c565b9050919050565b6000615817826157ac565b9050919050565b82818337600083830152505050565b60005b8381101561584b578082015181840152602081019050615830565b8381111561585a576000848401525b50505050565b6000600282049050600182168061587857607f821691505b6020821081141561588c5761588b61593b565b5b50919050565b61589b82615999565b810181811067ffffffffffffffff821117156158ba576158b961596a565b5b80604052505050565b60006158ce826157cc565b91507fffffffffffffffffffffffffffffffffffffffffffffffffffffffffffffffff8214156159015761590061590c565b5b600182019050919050565b7f4e487b7100000000000000000000000000000000000000000000000000000000600052601160045260246000fd5b7f4e487b7100000000000000000000000000000000000000000000000000000000600052602260045260246000fd5b7f4e487b7100000000000000000000000000000000000000000000000000000000600052604160045260246000fd5b6000601f19601f8301169050919050565b7f706c656173652070617920312047776900000000000000000000000000000000600082015250565b7f4552433732313a2063616c6c6572206973206e6f7420746f6b656e206f776e6560008201527f72206f7220617070726f76656400000000000000000000000000000000000000602082015250565b7f4552433732313a207472616e7366657220746f206e6f6e20455243373231526560008201527f63656976657220696d706c656d656e7465720000000000000000000000000000602082015250565b7f4552433732313a207472616e736665722066726f6d20696e636f72726563742060008201527f6f776e6572000000000000000000000000000000000000000000000000000000602082015250565b7f4552433732313a20746f6b656e20616c7265616479206d696e74656400000000600082015250565b7f4552433732313a207472616e7366657220746f20746865207a65726f2061646460008201527f7265737300000000000000000000000000000000000000000000000000000000602082015250565b7f4552433732313a20617070726f766520746f2063616c6c657200000000000000600082015250565b7f50726963652043616e2774206265206e65676174697665000000000000000000600082015250565b7f4552433732313a2061646472657373207a65726f206973206e6f74206120766160008201527f6c6964206f776e65720000000000000000000000000000000000000000000000602082015250565b7f45524337323155524953746f726167653a2055524920736574206f66206e6f6e60008201527f6578697374656e7420746f6b656e000000000000000000000000000000000000602082015250565b7f4552433732313a206d696e7420746f20746865207a65726f2061646472657373600082015250565b7f4552433732313a20696e76616c696420746f6b656e2049440000000000000000600082015250565b7f4552433732313a20617070726f76616c20746f2063757272656e74206f776e6560008201527f7200000000000000000000000000000000000000000000000000000000000000602082015250565b7f4552433732313a20617070726f76652063616c6c6572206973206e6f7420746f60008201527f6b656e206f776e6572206f7220617070726f76656420666f7220616c6c000000602082015250565b7f596f7520646f6e74206861766520656e6f75676820546f6b656e730000000000600082015250565b615d4a81615750565b8114615d5557600080fd5b50565b615d6181615774565b8114615d6c57600080fd5b50565b615d7881615780565b8114615d8357600080fd5b50565b615d8f816157cc565b8114615d9a57600080fd5b5056fea2646970667358221220a6638e2a6a10bcdfce39f519d5ff0ed715330991ff37a2659788734f29f3da6664736f6c63430008010033",
  "linkReferences": {},
  "deployedLinkReferences": {}
}