{
  "_format": "hh-sol-artifact-1",
  "contractName": "Tweets",
  "sourceName": "contracts/Tweets.sol",
  "abi": [
    {
      "inputs": [
        {
          "internalType": "address",
          "name": "pubkey",
          "type": "address"
        },
        {
          "internalType": "uint256",
          "name": "index",
          "type": "uint256"
        }
      ],
      "name": "DeletingText",
      "outputs": [],
      "stateMutability": "nonpayable",
      "type": "function"
    },
    {
      "inputs": [],
      "name": "GetTextData",
      "outputs": [
        {
          "components": [
            {
              "internalType": "string",
              "name": "Profile",
              "type": "string"
            },
            {
              "internalType": "string",
              "name": "Fname",
              "type": "string"
            },
            {
              "internalType": "string",
              "name": "Lname",
              "type": "string"
            },
            {
              "internalType": "uint256",
              "name": "timestamp",
              "type": "uint256"
            },
            {
              "internalType": "string",
              "name": "text",
              "type": "string"
            },
            {
              "internalType": "address",
              "name": "owner",
              "type": "address"
            },
            {
              "internalType": "string",
              "name": "NFTUrl",
              "type": "string"
            }
          ],
          "internalType": "struct Tweets.textfeed[]",
          "name": "",
          "type": "tuple[]"
        }
      ],
      "stateMutability": "view",
      "type": "function"
    },
    {
      "inputs": [
        {
          "internalType": "address",
          "name": "pubkey",
          "type": "address"
        }
      ],
      "name": "GetUserData",
      "outputs": [
        {
          "components": [
            {
              "internalType": "string",
              "name": "FName",
              "type": "string"
            },
            {
              "internalType": "string",
              "name": "LName",
              "type": "string"
            },
            {
              "internalType": "string",
              "name": "profilePic",
              "type": "string"
            },
            {
              "internalType": "address",
              "name": "owner",
              "type": "address"
            },
            {
              "internalType": "uint256",
              "name": "timestamp",
              "type": "uint256"
            },
            {
              "internalType": "string",
              "name": "password",
              "type": "string"
            },
            {
              "internalType": "string[]",
              "name": "Text",
              "type": "string[]"
            }
          ],
          "internalType": "struct Tweets.User",
          "name": "",
          "type": "tuple"
        }
      ],
      "stateMutability": "view",
      "type": "function"
    },
    {
      "inputs": [
        {
          "internalType": "uint256",
          "name": "",
          "type": "uint256"
        }
      ],
      "name": "GlobaltextFeed",
      "outputs": [
        {
          "internalType": "string",
          "name": "Profile",
          "type": "string"
        },
        {
          "internalType": "string",
          "name": "Fname",
          "type": "string"
        },
        {
          "internalType": "string",
          "name": "Lname",
          "type": "string"
        },
        {
          "internalType": "uint256",
          "name": "timestamp",
          "type": "uint256"
        },
        {
          "internalType": "string",
          "name": "text",
          "type": "string"
        },
        {
          "internalType": "address",
          "name": "owner",
          "type": "address"
        },
        {
          "internalType": "string",
          "name": "NFTUrl",
          "type": "string"
        }
      ],
      "stateMutability": "view",
      "type": "function"
    },
    {
      "inputs": [
        {
          "internalType": "address",
          "name": "userKey",
          "type": "address"
        },
        {
          "internalType": "string",
          "name": "password",
          "type": "string"
        }
      ],
      "name": "Login",
      "outputs": [
        {
          "internalType": "bool",
          "name": "",
          "type": "bool"
        }
      ],
      "stateMutability": "view",
      "type": "function"
    },
    {
      "inputs": [
        {
          "internalType": "string",
          "name": "Data",
          "type": "string"
        },
        {
          "internalType": "string",
          "name": "NFTUrl",
          "type": "string"
        },
        {
          "internalType": "address",
          "name": "pubkey",
          "type": "address"
        }
      ],
      "name": "PostText",
      "outputs": [],
      "stateMutability": "payable",
      "type": "function"
    },
    {
      "inputs": [
        {
          "internalType": "string",
          "name": "FirstName",
          "type": "string"
        },
        {
          "internalType": "string",
          "name": "LastName",
          "type": "string"
        },
        {
          "internalType": "string",
          "name": "Profile",
          "type": "string"
        },
        {
          "internalType": "address",
          "name": "userKey",
          "type": "address"
        },
        {
          "internalType": "string",
          "name": "password",
          "type": "string"
        }
      ],
      "name": "SignUp",
      "outputs": [],
      "stateMutability": "payable",
      "type": "function"
    },
    {
      "inputs": [
        {
          "internalType": "uint256",
          "name": "",
          "type": "uint256"
        }
      ],
      "name": "Users",
      "outputs": [
        {
          "internalType": "string",
          "name": "FName",
          "type": "string"
        },
        {
          "internalType": "string",
          "name": "LName",
          "type": "string"
        },
        {
          "internalType": "string",
          "name": "profilePic",
          "type": "string"
        },
        {
          "internalType": "address",
          "name": "owner",
          "type": "address"
        },
        {
          "internalType": "uint256",
          "name": "timestamp",
          "type": "uint256"
        },
        {
          "internalType": "string",
          "name": "password",
          "type": "string"
        }
      ],
      "stateMutability": "view",
      "type": "function"
    },
    {
      "inputs": [
        {
          "internalType": "address",
          "name": "pubkey",
          "type": "address"
        }
      ],
      "name": "checksignup",
      "outputs": [
        {
          "internalType": "bool",
          "name": "",
          "type": "bool"
        }
      ],
      "stateMutability": "view",
      "type": "function"
    }
  ],
  "bytecode": "0x608060405234801561001057600080fd5b50613347806100206000396000f3fe6080604052600436106100865760003560e01c8063a4b4e42b11610059578063a4b4e42b1461014f578063dc92b32d1461018c578063de27affc146101b7578063ecdef347146101fa578063f80596421461023757610086565b80631e98fd1c1461008b5780632753fe7d146100cd57806335260d291461010a57806398dda60f14610133575b600080fd5b34801561009757600080fd5b506100b260048036038101906100ad9190612878565b610253565b6040516100c496959493929190612d64565b60405180910390f35b3480156100d957600080fd5b506100f460048036038101906100ef9190612669565b6104df565b6040516101019190612ed3565b60405180910390f35b34801561011657600080fd5b50610131600480360381019061012c91906126e6565b61098c565b005b61014d60048036038101906101489190612722565b61128d565b005b34801561015b57600080fd5b5061017660048036038101906101719190612692565b611800565b6040516101839190612d49565b60405180910390f35b34801561019857600080fd5b506101a16119c3565b6040516101ae9190612d27565b60405180910390f35b3480156101c357600080fd5b506101de60048036038101906101d99190612878565b611d5c565b6040516101f19796959493929190612de1565b60405180910390f35b34801561020657600080fd5b50610221600480360381019061021c9190612669565b612076565b60405161022e9190612d49565b60405180910390f35b610251600480360381019061024c91906127a1565b612152565b005b6000818154811061026357600080fd5b90600052602060002090600702016000915090508060000180546102869061311e565b80601f01602080910402602001604051908101604052809291908181526020018280546102b29061311e565b80156102ff5780601f106102d4576101008083540402835291602001916102ff565b820191906000526020600020905b8154815290600101906020018083116102e257829003601f168201915b5050505050908060010180546103149061311e565b80601f01602080910402602001604051908101604052809291908181526020018280546103409061311e565b801561038d5780601f106103625761010080835404028352916020019161038d565b820191906000526020600020905b81548152906001019060200180831161037057829003601f168201915b5050505050908060020180546103a29061311e565b80601f01602080910402602001604051908101604052809291908181526020018280546103ce9061311e565b801561041b5780601f106103f05761010080835404028352916020019161041b565b820191906000526020600020905b8154815290600101906020018083116103fe57829003601f168201915b5050505050908060030160009054906101000a900473ffffffffffffffffffffffffffffffffffffffff169080600401549080600501805461045c9061311e565b80601f01602080910402602001604051908101604052809291908181526020018280546104889061311e565b80156104d55780601f106104aa576101008083540402835291602001916104d5565b820191906000526020600020905b8154815290600101906020018083116104b857829003601f168201915b5050505050905086565b6104e7612303565b60005b600080549050811015610985578273ffffffffffffffffffffffffffffffffffffffff1660008281548110610548577f4e487b7100000000000000000000000000000000000000000000000000000000600052603260045260246000fd5b906000526020600020906007020160030160009054906101000a900473ffffffffffffffffffffffffffffffffffffffff1673ffffffffffffffffffffffffffffffffffffffff16141561097257600081815481106105d0577f4e487b7100000000000000000000000000000000000000000000000000000000600052603260045260246000fd5b90600052602060002090600702016040518060e00160405290816000820180546105f99061311e565b80601f01602080910402602001604051908101604052809291908181526020018280546106259061311e565b80156106725780601f1061064757610100808354040283529160200191610672565b820191906000526020600020905b81548152906001019060200180831161065557829003601f168201915b5050505050815260200160018201805461068b9061311e565b80601f01602080910402602001604051908101604052809291908181526020018280546106b79061311e565b80156107045780601f106106d957610100808354040283529160200191610704565b820191906000526020600020905b8154815290600101906020018083116106e757829003601f168201915b5050505050815260200160028201805461071d9061311e565b80601f01602080910402602001604051908101604052809291908181526020018280546107499061311e565b80156107965780601f1061076b57610100808354040283529160200191610796565b820191906000526020600020905b81548152906001019060200180831161077957829003601f168201915b505050505081526020016003820160009054906101000a900473ffffffffffffffffffffffffffffffffffffffff1673ffffffffffffffffffffffffffffffffffffffff1673ffffffffffffffffffffffffffffffffffffffff1681526020016004820154815260200160058201805461080f9061311e565b80601f016020809104026020016040519081016040528092919081815260200182805461083b9061311e565b80156108885780601f1061085d57610100808354040283529160200191610888565b820191906000526020600020905b81548152906001019060200180831161086b57829003601f168201915b5050505050815260200160068201805480602002602001604051908101604052809291908181526020016000905b828210156109625783829060005260206000200180546108d59061311e565b80601f01602080910402602001604051908101604052809291908181526020018280546109019061311e565b801561094e5780601f106109235761010080835404028352916020019161094e565b820191906000526020600020905b81548152906001019060200180831161093157829003601f168201915b5050505050815260200190600101906108b6565b5050505081525050915050610987565b808061097d90613181565b9150506104ea565b505b919050565b60008060005b600080549050811015610a5857600081815481106109d9577f4e487b7100000000000000000000000000000000000000000000000000000000600052603260045260246000fd5b906000526020600020906007020160030160009054906101000a900473ffffffffffffffffffffffffffffffffffffffff1673ffffffffffffffffffffffffffffffffffffffff168573ffffffffffffffffffffffffffffffffffffffff161415610a45578092508391505b8080610a5090613181565b915050610992565b5060008190505b600160008481548110610a9b577f4e487b7100000000000000000000000000000000000000000000000000000000600052603260045260246000fd5b906000526020600020906007020160060180549050610aba9190613060565b811015610c125760008381548110610afb577f4e487b7100000000000000000000000000000000000000000000000000000000600052603260045260246000fd5b9060005260206000209060070201600601600182610b19919061300a565b81548110610b50577f4e487b7100000000000000000000000000000000000000000000000000000000600052603260045260246000fd5b9060005260206000200160008481548110610b94577f4e487b7100000000000000000000000000000000000000000000000000000000600052603260045260246000fd5b90600052602060002090600702016006018281548110610bdd577f4e487b7100000000000000000000000000000000000000000000000000000000600052603260045260246000fd5b90600052602060002001908054610bf39061311e565b610bfe929190612356565b508080610c0a90613181565b915050610a5f565b5060008281548110610c4d577f4e487b7100000000000000000000000000000000000000000000000000000000600052603260045260246000fd5b9060005260206000209060070201600601600160008481548110610c9a577f4e487b7100000000000000000000000000000000000000000000000000000000600052603260045260246000fd5b906000526020600020906007020160060180549050610cb99190613060565b81548110610cf0577f4e487b7100000000000000000000000000000000000000000000000000000000600052603260045260246000fd5b906000526020600020016000610d0691906123e3565b60008281548110610d40577f4e487b7100000000000000000000000000000000000000000000000000000000600052603260045260246000fd5b9060005260206000209060070201600601805480610d87577f4e487b7100000000000000000000000000000000000000000000000000000000600052603160045260246000fd5b600190038181906000526020600020016000610da391906123e3565b9055600080600090505b600180549050811015610efb5760018181548110610df4577f4e487b7100000000000000000000000000000000000000000000000000000000600052603260045260246000fd5b9060005260206000209060070201600401604051602001610e159190612d10565b6040516020818303038152906040528051906020012060008581548110610e65577f4e487b7100000000000000000000000000000000000000000000000000000000600052603260045260246000fd5b90600052602060002090600702016006018481548110610eae577f4e487b7100000000000000000000000000000000000000000000000000000000600052603260045260246000fd5b90600052602060002001604051602001610ec89190612d10565b604051602081830303815290604052805190602001201415610ee8578091505b8080610ef390613181565b915050610dad565b5060008190505b60018080549050610f139190613060565b8110156110dc5760018082610f28919061300a565b81548110610f5f577f4e487b7100000000000000000000000000000000000000000000000000000000600052603260045260246000fd5b906000526020600020906007020160018281548110610fa7577f4e487b7100000000000000000000000000000000000000000000000000000000600052603260045260246000fd5b90600052602060002090600702016000820181600001908054610fc99061311e565b610fd4929190612423565b506001820181600101908054610fe99061311e565b610ff4929190612423565b5060028201816002019080546110099061311e565b611014929190612423565b506003820154816003015560048201816004019080546110339061311e565b61103e929190612423565b506005820160009054906101000a900473ffffffffffffffffffffffffffffffffffffffff168160050160006101000a81548173ffffffffffffffffffffffffffffffffffffffff021916908373ffffffffffffffffffffffffffffffffffffffff16021790555060068201816006019080546110ba9061311e565b6110c5929190612423565b5090505080806110d490613181565b915050610f02565b5060018080805490506110ef9190613060565b81548110611126577f4e487b7100000000000000000000000000000000000000000000000000000000600052603260045260246000fd5b90600052602060002090600702016000808201600061114591906123e3565b60018201600061115591906123e3565b60028201600061116591906123e3565b600382016000905560048201600061117d91906123e3565b6005820160006101000a81549073ffffffffffffffffffffffffffffffffffffffff02191690556006820160006111b491906123e3565b505060018054806111ee577f4e487b7100000000000000000000000000000000000000000000000000000000600052603160045260246000fd5b60019003818190600052602060002090600702016000808201600061121391906123e3565b60018201600061122391906123e3565b60028201600061123391906123e3565b600382016000905560048201600061124b91906123e3565b6005820160006101000a81549073ffffffffffffffffffffffffffffffffffffffff021916905560068201600061128291906123e3565b505090555050505050565b6001151561129a82612076565b1515146112dc576040517f08c379a00000000000000000000000000000000000000000000000000000000081526004016112d390612e73565b60405180910390fd5b6000805b6000805490508110156114285760008181548110611327577f4e487b7100000000000000000000000000000000000000000000000000000000600052603260045260246000fd5b906000526020600020906007020160030160009054906101000a900473ffffffffffffffffffffffffffffffffffffffff1673ffffffffffffffffffffffffffffffffffffffff168373ffffffffffffffffffffffffffffffffffffffff16141561141557600081815481106113c6577f4e487b7100000000000000000000000000000000000000000000000000000000600052603260045260246000fd5b9060005260206000209060070201600601859080600181540180825580915050600190039060005260206000200160009091909190915090805190602001906114109291906124b0565b508091505b808061142090613181565b9150506112e0565b5060016040518060e0016040528060008481548110611470577f4e487b7100000000000000000000000000000000000000000000000000000000600052603260045260246000fd5b9060005260206000209060070201600201805461148c9061311e565b80601f01602080910402602001604051908101604052809291908181526020018280546114b89061311e565b80156115055780601f106114da57610100808354040283529160200191611505565b820191906000526020600020905b8154815290600101906020018083116114e857829003601f168201915b5050505050815260200160008481548110611549577f4e487b7100000000000000000000000000000000000000000000000000000000600052603260045260246000fd5b906000526020600020906007020160000180546115659061311e565b80601f01602080910402602001604051908101604052809291908181526020018280546115919061311e565b80156115de5780601f106115b3576101008083540402835291602001916115de565b820191906000526020600020905b8154815290600101906020018083116115c157829003601f168201915b5050505050815260200160008481548110611622577f4e487b7100000000000000000000000000000000000000000000000000000000600052603260045260246000fd5b9060005260206000209060070201600101805461163e9061311e565b80601f016020809104026020016040519081016040528092919081815260200182805461166a9061311e565b80156116b75780601f1061168c576101008083540402835291602001916116b7565b820191906000526020600020905b81548152906001019060200180831161169a57829003601f168201915b505050505081526020014281526020018681526020018473ffffffffffffffffffffffffffffffffffffffff16815260200185815250908060018154018082558091505060019003906000526020600020906007020160009091909190915060008201518160000190805190602001906117329291906124b0565b50602082015181600101908051906020019061174f9291906124b0565b50604082015181600201908051906020019061176c9291906124b0565b506060820151816003015560808201518160040190805190602001906117939291906124b0565b5060a08201518160050160006101000a81548173ffffffffffffffffffffffffffffffffffffffff021916908373ffffffffffffffffffffffffffffffffffffffff16021790555060c08201518160060190805190602001906117f79291906124b0565b50505050505050565b600061180b83612076565b61184a576040517f08c379a000000000000000000000000000000000000000000000000000000000815260040161184190612e93565b60405180910390fd5b60005b6000805490508110156119b7578373ffffffffffffffffffffffffffffffffffffffff16600082815481106118ab577f4e487b7100000000000000000000000000000000000000000000000000000000600052603260045260246000fd5b906000526020600020906007020160030160009054906101000a900473ffffffffffffffffffffffffffffffffffffffff1673ffffffffffffffffffffffffffffffffffffffff1614801561199557508260405160200161190c9190612cf9565b604051602081830303815290604052805190602001206000828154811061195c577f4e487b7100000000000000000000000000000000000000000000000000000000600052603260045260246000fd5b906000526020600020906007020160050160405160200161197d9190612d10565b60405160208183030381529060405280519060200120145b156119a45760019150506119bd565b80806119af90613181565b91505061184d565b50600090505b92915050565b60606001805480602002602001604051908101604052809291908181526020016000905b82821015611d5357838290600052602060002090600702016040518060e0016040529081600082018054611a1a9061311e565b80601f0160208091040260200160405190810160405280929190818152602001828054611a469061311e565b8015611a935780601f10611a6857610100808354040283529160200191611a93565b820191906000526020600020905b815481529060010190602001808311611a7657829003601f168201915b50505050508152602001600182018054611aac9061311e565b80601f0160208091040260200160405190810160405280929190818152602001828054611ad89061311e565b8015611b255780601f10611afa57610100808354040283529160200191611b25565b820191906000526020600020905b815481529060010190602001808311611b0857829003601f168201915b50505050508152602001600282018054611b3e9061311e565b80601f0160208091040260200160405190810160405280929190818152602001828054611b6a9061311e565b8015611bb75780601f10611b8c57610100808354040283529160200191611bb7565b820191906000526020600020905b815481529060010190602001808311611b9a57829003601f168201915b5050505050815260200160038201548152602001600482018054611bda9061311e565b80601f0160208091040260200160405190810160405280929190818152602001828054611c069061311e565b8015611c535780601f10611c2857610100808354040283529160200191611c53565b820191906000526020600020905b815481529060010190602001808311611c3657829003601f168201915b505050505081526020016005820160009054906101000a900473ffffffffffffffffffffffffffffffffffffffff1673ffffffffffffffffffffffffffffffffffffffff1673ffffffffffffffffffffffffffffffffffffffff168152602001600682018054611cc29061311e565b80601f0160208091040260200160405190810160405280929190818152602001828054611cee9061311e565b8015611d3b5780601f10611d1057610100808354040283529160200191611d3b565b820191906000526020600020905b815481529060010190602001808311611d1e57829003601f168201915b505050505081525050815260200190600101906119e7565b50505050905090565b60018181548110611d6c57600080fd5b9060005260206000209060070201600091509050806000018054611d8f9061311e565b80601f0160208091040260200160405190810160405280929190818152602001828054611dbb9061311e565b8015611e085780601f10611ddd57610100808354040283529160200191611e08565b820191906000526020600020905b815481529060010190602001808311611deb57829003601f168201915b505050505090806001018054611e1d9061311e565b80601f0160208091040260200160405190810160405280929190818152602001828054611e499061311e565b8015611e965780601f10611e6b57610100808354040283529160200191611e96565b820191906000526020600020905b815481529060010190602001808311611e7957829003601f168201915b505050505090806002018054611eab9061311e565b80601f0160208091040260200160405190810160405280929190818152602001828054611ed79061311e565b8015611f245780601f10611ef957610100808354040283529160200191611f24565b820191906000526020600020905b815481529060010190602001808311611f0757829003601f168201915b505050505090806003015490806004018054611f3f9061311e565b80601f0160208091040260200160405190810160405280929190818152602001828054611f6b9061311e565b8015611fb85780601f10611f8d57610100808354040283529160200191611fb8565b820191906000526020600020905b815481529060010190602001808311611f9b57829003601f168201915b5050505050908060050160009054906101000a900473ffffffffffffffffffffffffffffffffffffffff1690806006018054611ff39061311e565b80601f016020809104026020016040519081016040528092919081815260200182805461201f9061311e565b801561206c5780601f106120415761010080835404028352916020019161206c565b820191906000526020600020905b81548152906001019060200180831161204f57829003601f168201915b5050505050905087565b600080600090505b600080549050811015612147578273ffffffffffffffffffffffffffffffffffffffff16600082815481106120dc577f4e487b7100000000000000000000000000000000000000000000000000000000600052603260045260246000fd5b906000526020600020906007020160030160009054906101000a900473ffffffffffffffffffffffffffffffffffffffff1673ffffffffffffffffffffffffffffffffffffffff16141561213457600191505061214d565b808061213f90613181565b91505061207e565b50600090505b919050565b6000151561215f83612076565b1515146121a1576040517f08c379a000000000000000000000000000000000000000000000000000000000815260040161219890612eb3565b60405180910390fd5b606060006040518060e001604052808881526020018781526020018681526020018573ffffffffffffffffffffffffffffffffffffffff16815260200142815260200184815260200183815250908060018154018082558091505060019003906000526020600020906007020160009091909190915060008201518160000190805190602001906122339291906124b0565b5060208201518160010190805190602001906122509291906124b0565b50604082015181600201908051906020019061226d9291906124b0565b5060608201518160030160006101000a81548173ffffffffffffffffffffffffffffffffffffffff021916908373ffffffffffffffffffffffffffffffffffffffff1602179055506080820151816004015560a08201518160050190805190602001906122db9291906124b0565b5060c08201518160060190805190602001906122f8929190612536565b505050505050505050565b6040518060e00160405280606081526020016060815260200160608152602001600073ffffffffffffffffffffffffffffffffffffffff1681526020016000815260200160608152602001606081525090565b8280546123629061311e565b90600052602060002090601f01602090048101928261238457600085556123d2565b82601f1061239557805485556123d2565b828001600101855582156123d257600052602060002091601f016020900482015b828111156123d15782548255916001019190600101906123b6565b5b5090506123df9190612596565b5090565b5080546123ef9061311e565b6000825580601f106124015750612420565b601f01602090049060005260206000209081019061241f9190612596565b5b50565b82805461242f9061311e565b90600052602060002090601f016020900481019282612451576000855561249f565b82601f10612462578054855561249f565b8280016001018555821561249f57600052602060002091601f016020900482015b8281111561249e578254825591600101919060010190612483565b5b5090506124ac9190612596565b5090565b8280546124bc9061311e565b90600052602060002090601f0160209004810192826124de5760008555612525565b82601f106124f757805160ff1916838001178555612525565b82800160010185558215612525579182015b82811115612524578251825591602001919060010190612509565b5b5090506125329190612596565b5090565b828054828255906000526020600020908101928215612585579160200282015b828111156125845782518290805190602001906125749291906124b0565b5091602001919060010190612556565b5b50905061259291906125b3565b5090565b5b808211156125af576000816000905550600101612597565b5090565b5b808211156125d357600081816125ca91906123e3565b506001016125b4565b5090565b60006125ea6125e584612f1a565b612ef5565b90508281526020810184848401111561260257600080fd5b61260d8482856130dc565b509392505050565b600081359050612624816132e3565b92915050565b600082601f83011261263b57600080fd5b813561264b8482602086016125d7565b91505092915050565b600081359050612663816132fa565b92915050565b60006020828403121561267b57600080fd5b600061268984828501612615565b91505092915050565b600080604083850312156126a557600080fd5b60006126b385828601612615565b925050602083013567ffffffffffffffff8111156126d057600080fd5b6126dc8582860161262a565b9150509250929050565b600080604083850312156126f957600080fd5b600061270785828601612615565b925050602061271885828601612654565b9150509250929050565b60008060006060848603121561273757600080fd5b600084013567ffffffffffffffff81111561275157600080fd5b61275d8682870161262a565b935050602084013567ffffffffffffffff81111561277a57600080fd5b6127868682870161262a565b925050604061279786828701612615565b9150509250925092565b600080600080600060a086880312156127b957600080fd5b600086013567ffffffffffffffff8111156127d357600080fd5b6127df8882890161262a565b955050602086013567ffffffffffffffff8111156127fc57600080fd5b6128088882890161262a565b945050604086013567ffffffffffffffff81111561282557600080fd5b6128318882890161262a565b935050606061284288828901612615565b925050608086013567ffffffffffffffff81111561285f57600080fd5b61286b8882890161262a565b9150509295509295909350565b60006020828403121561288a57600080fd5b600061289884828501612654565b91505092915050565b60006128ad83836129e0565b905092915050565b60006128c18383612c23565b905092915050565b6128d281613094565b82525050565b6128e181613094565b82525050565b60006128f282612f80565b6128fc8185612fbb565b93508360208202850161290e85612f4b565b8060005b8581101561294a578484038952815161292b85826128a1565b945061293683612fa1565b925060208a01995050600181019050612912565b50829750879550505050505092915050565b600061296782612f8b565b6129718185612fcc565b93508360208202850161298385612f5b565b8060005b858110156129bf57848403895281516129a085826128b5565b94506129ab83612fae565b925060208a01995050600181019050612987565b50829750879550505050505092915050565b6129da816130a6565b82525050565b60006129eb82612f96565b6129f58185612fdd565b9350612a058185602086016130eb565b612a0e81613257565b840191505092915050565b6000612a2482612f96565b612a2e8185612fee565b9350612a3e8185602086016130eb565b612a4781613257565b840191505092915050565b6000612a5d82612f96565b612a678185612fff565b9350612a778185602086016130eb565b80840191505092915050565b60008154612a908161311e565b612a9a8186612fff565b94506001821660008114612ab55760018114612ac657612af9565b60ff19831686528186019350612af9565b612acf85612f6b565b60005b83811015612af157815481890152600182019150602081019050612ad2565b838801955050505b50505092915050565b6000612b0f600e83612fee565b9150612b1a82613268565b602082019050919050565b6000612b32600e83612fee565b9150612b3d82613291565b602082019050919050565b6000612b55601783612fee565b9150612b60826132ba565b602082019050919050565b600060e0830160008301518482036000860152612b8882826129e0565b91505060208301518482036020860152612ba282826129e0565b91505060408301518482036040860152612bbc82826129e0565b9150506060830151612bd160608601826128c9565b506080830151612be46080860182612cdb565b5060a083015184820360a0860152612bfc82826129e0565b91505060c083015184820360c0860152612c1682826128e7565b9150508091505092915050565b600060e0830160008301518482036000860152612c4082826129e0565b91505060208301518482036020860152612c5a82826129e0565b91505060408301518482036040860152612c7482826129e0565b9150506060830151612c896060860182612cdb565b5060808301518482036080860152612ca182826129e0565b91505060a0830151612cb660a08601826128c9565b5060c083015184820360c0860152612cce82826129e0565b9150508091505092915050565b612ce4816130d2565b82525050565b612cf3816130d2565b82525050565b6000612d058284612a52565b915081905092915050565b6000612d1c8284612a83565b915081905092915050565b60006020820190508181036000830152612d41818461295c565b905092915050565b6000602082019050612d5e60008301846129d1565b92915050565b600060c0820190508181036000830152612d7e8189612a19565b90508181036020830152612d928188612a19565b90508181036040830152612da68187612a19565b9050612db560608301866128d8565b612dc26080830185612cea565b81810360a0830152612dd48184612a19565b9050979650505050505050565b600060e0820190508181036000830152612dfb818a612a19565b90508181036020830152612e0f8189612a19565b90508181036040830152612e238188612a19565b9050612e326060830187612cea565b8181036080830152612e448186612a19565b9050612e5360a08301856128d8565b81810360c0830152612e658184612a19565b905098975050505050505050565b60006020820190508181036000830152612e8c81612b02565b9050919050565b60006020820190508181036000830152612eac81612b25565b9050919050565b60006020820190508181036000830152612ecc81612b48565b9050919050565b60006020820190508181036000830152612eed8184612b6b565b905092915050565b6000612eff612f10565b9050612f0b8282613150565b919050565b6000604051905090565b600067ffffffffffffffff821115612f3557612f34613228565b5b612f3e82613257565b9050602081019050919050565b6000819050602082019050919050565b6000819050602082019050919050565b60008190508160005260206000209050919050565b600081519050919050565b600081519050919050565b600081519050919050565b6000602082019050919050565b6000602082019050919050565b600082825260208201905092915050565b600082825260208201905092915050565b600082825260208201905092915050565b600082825260208201905092915050565b600081905092915050565b6000613015826130d2565b9150613020836130d2565b9250827fffffffffffffffffffffffffffffffffffffffffffffffffffffffffffffffff03821115613055576130546131ca565b5b828201905092915050565b600061306b826130d2565b9150613076836130d2565b925082821015613089576130886131ca565b5b828203905092915050565b600061309f826130b2565b9050919050565b60008115159050919050565b600073ffffffffffffffffffffffffffffffffffffffff82169050919050565b6000819050919050565b82818337600083830152505050565b60005b838110156131095780820151818401526020810190506130ee565b83811115613118576000848401525b50505050565b6000600282049050600182168061313657607f821691505b6020821081141561314a576131496131f9565b5b50919050565b61315982613257565b810181811067ffffffffffffffff8211171561317857613177613228565b5b80604052505050565b600061318c826130d2565b91507fffffffffffffffffffffffffffffffffffffffffffffffffffffffffffffffff8214156131bf576131be6131ca565b5b600182019050919050565b7f4e487b7100000000000000000000000000000000000000000000000000000000600052601160045260246000fd5b7f4e487b7100000000000000000000000000000000000000000000000000000000600052602260045260246000fd5b7f4e487b7100000000000000000000000000000000000000000000000000000000600052604160045260246000fd5b6000601f19601f8301169050919050565b7f55736572204e6f7420666f756e64000000000000000000000000000000000000600082015250565b7f55736572204e6f7420466f756e64000000000000000000000000000000000000600082015250565b7f596f75206861766520616c7265616479205369676e5570000000000000000000600082015250565b6132ec81613094565b81146132f757600080fd5b50565b613303816130d2565b811461330e57600080fd5b5056fea2646970667358221220492cd65f415adb0f77dbd4774d1c27685a6e6c3371105e65e85070b2465718e364736f6c63430008010033",
  "linkReferences": {},
  "deployedLinkReferences": {}
}