{
  "_format": "hh-sol-artifact-1",
  "contractName": "Staking",
  "sourceName": "contracts/Staking.sol",
  "abi": [
    {
      "inputs": [
        {
          "internalType": "address",
          "name": "_token",
          "type": "address"
        },
        {
          "internalType": "uint256",
          "name": "_rewardRate",
          "type": "uint256"
        }
      ],
      "stateMutability": "nonpayable",
      "type": "constructor"
    },
    {
      "anonymous": false,
      "inputs": [
        {
          "indexed": true,
          "internalType": "address",
          "name": "user",
          "type": "address"
        },
        {
          "indexed": false,
          "internalType": "uint256",
          "name": "amount",
          "type": "uint256"
        }
      ],
      "name": "RewardClaimed",
      "type": "event"
    },
    {
      "anonymous": false,
      "inputs": [
        {
          "indexed": true,
          "internalType": "address",
          "name": "user",
          "type": "address"
        },
        {
          "indexed": false,
          "internalType": "uint256",
          "name": "amount",
          "type": "uint256"
        }
      ],
      "name": "Staked",
      "type": "event"
    },
    {
      "anonymous": false,
      "inputs": [
        {
          "indexed": true,
          "internalType": "address",
          "name": "user",
          "type": "address"
        },
        {
          "indexed": false,
          "internalType": "uint256",
          "name": "amount",
          "type": "uint256"
        }
      ],
      "name": "Withdrawn",
      "type": "event"
    },
    {
      "inputs": [],
      "name": "claimReward",
      "outputs": [],
      "stateMutability": "nonpayable",
      "type": "function"
    },
    {
      "inputs": [
        {
          "internalType": "address",
          "name": "_user",
          "type": "address"
        }
      ],
      "name": "pendingReward",
      "outputs": [
        {
          "internalType": "uint256",
          "name": "",
          "type": "uint256"
        }
      ],
      "stateMutability": "view",
      "type": "function"
    },
    {
      "inputs": [],
      "name": "rewardRate",
      "outputs": [
        {
          "internalType": "uint256",
          "name": "",
          "type": "uint256"
        }
      ],
      "stateMutability": "view",
      "type": "function"
    },
    {
      "inputs": [],
      "name": "rewardToken",
      "outputs": [
        {
          "internalType": "contract IERC20",
          "name": "",
          "type": "address"
        }
      ],
      "stateMutability": "view",
      "type": "function"
    },
    {
      "inputs": [
        {
          "internalType": "uint256",
          "name": "_amount",
          "type": "uint256"
        }
      ],
      "name": "stake",
      "outputs": [],
      "stateMutability": "nonpayable",
      "type": "function"
    },
    {
      "inputs": [
        {
          "internalType": "address",
          "name": "_user",
          "type": "address"
        }
      ],
      "name": "stakedAmount",
      "outputs": [
        {
          "internalType": "uint256",
          "name": "",
          "type": "uint256"
        }
      ],
      "stateMutability": "view",
      "type": "function"
    },
    {
      "inputs": [
        {
          "internalType": "address",
          "name": "",
          "type": "address"
        }
      ],
      "name": "stakes",
      "outputs": [
        {
          "internalType": "uint256",
          "name": "amount",
          "type": "uint256"
        },
        {
          "internalType": "uint256",
          "name": "lastUpdated",
          "type": "uint256"
        },
        {
          "internalType": "uint256",
          "name": "rewardDebt",
          "type": "uint256"
        }
      ],
      "stateMutability": "view",
      "type": "function"
    },
    {
      "inputs": [
        {
          "internalType": "uint256",
          "name": "_amount",
          "type": "uint256"
        }
      ],
      "name": "withdraw",
      "outputs": [],
      "stateMutability": "nonpayable",
      "type": "function"
    }
  ],
  "bytecode": "0x608060405234801561001057600080fd5b5060405161097138038061097183398101604081905261002f91610058565b600080546001600160a01b0319166001600160a01b039390931692909217909155600155610092565b6000806040838503121561006b57600080fd5b82516001600160a01b038116811461008257600080fd5b6020939093015192949293505050565b6108d0806100a16000396000f3fe608060405234801561001057600080fd5b50600436106100885760003560e01c8063b88a802f1161005b578063b88a802f1461011a578063f40f0f5214610122578063f7c618c114610135578063f99318551461016057600080fd5b806316934fc41461008d5780632e1a7d4d146100db5780637b0a47ee146100f0578063a694fc3a14610107575b600080fd5b6100bb61009b3660046107b4565b600260208190526000918252604090912080546001820154919092015483565b604080519384526020840192909252908201526060015b60405180910390f35b6100ee6100e93660046107e4565b610189565b005b6100f960015481565b6040519081526020016100d2565b6100ee6101153660046107e4565b610364565b6100ee610508565b6100f96101303660046107b4565b61067b565b600054610148906001600160a01b031681565b6040516001600160a01b0390911681526020016100d2565b6100f961016e3660046107b4565b6001600160a01b031660009081526002602052604090205490565b600081116101de5760405162461bcd60e51b815260206004820152601260248201527f416d6f756e74206d757374206265203e2030000000000000000000000000000060448201526064015b60405180910390fd5b3360009081526002602052604090205481111561023d5760405162461bcd60e51b815260206004820152601360248201527f496e73756666696369656e74207374616b65640000000000000000000000000060448201526064016101d5565b61024633610727565b3360009081526002602052604081208054839290610265908490610813565b909155505060005460405163a9059cbb60e01b8152336004820152602481018390526001600160a01b039091169063a9059cbb906044016020604051808303816000875af11580156102bb573d6000803e3d6000fd5b505050506040513d601f19601f820116820180604052508101906102df919061082c565b61032b5760405162461bcd60e51b815260206004820152600f60248201527f5472616e73666572206661696c6564000000000000000000000000000000000060448201526064016101d5565b60405181815233907f7084f5476618d8e60b11ef0d7d3f06914655adb8793e28ff7f018d4c76d505d5906020015b60405180910390a250565b600081116103b45760405162461bcd60e51b815260206004820152601260248201527f416d6f756e74206d757374206265203e2030000000000000000000000000000060448201526064016101d5565b6103bd33610727565b33600090815260026020526040812080548392906103dc90849061084e565b90915550503360008181526002602052604080822042600190910155905490517f23b872dd0000000000000000000000000000000000000000000000000000000081526004810192909252306024830152604482018390526001600160a01b0316906323b872dd906064016020604051808303816000875af1158015610466573d6000803e3d6000fd5b505050506040513d601f19601f8201168201806040525081019061048a919061082c565b6104d65760405162461bcd60e51b815260206004820152600f60248201527f5472616e73666572206661696c6564000000000000000000000000000000000060448201526064016101d5565b60405181815233907f9e71bc8eea02a63969f509818f2dafb9254532904319f9dbda79b67bd34a5f3d90602001610359565b61051133610727565b3360009081526002602081905260409091200154806105725760405162461bcd60e51b815260206004820152600960248201527f4e6f20726577617264000000000000000000000000000000000000000000000060448201526064016101d5565b3360008181526002602081905260408083209091018290559054905163a9059cbb60e01b81526004810192909252602482018390526001600160a01b03169063a9059cbb906044016020604051808303816000875af11580156105d9573d6000803e3d6000fd5b505050506040513d601f19601f820116820180604052508101906105fd919061082c565b6106495760405162461bcd60e51b815260206004820152601660248201527f526577617264207472616e73666572206661696c65640000000000000000000060448201526064016101d5565b60405181815233907f106f923f993c2149d49b4255ff723acafa1f2d94393f561d3eda32ae348f724190602001610359565b6001600160a01b0381166000908152600260208181526040808420815160608101835281548082526001830154948201949094529301549083015282036106c6576040015192915050565b60008160200151426106d89190610813565b90506000670de0b6b3a76400008360000151600154846106f89190610861565b6107029190610861565b61070c9190610878565b905080836040015161071e919061084e565b95945050505050565b6001600160a01b03811660009081526002602052604090208054156107aa5760008160010154426107589190610813565b90506000670de0b6b3a76400008360000154600154846107789190610861565b6107829190610861565b61078c9190610878565b9050808360020160008282546107a2919061084e565b909155505050505b4260019091015550565b6000602082840312156107c657600080fd5b81356001600160a01b03811681146107dd57600080fd5b9392505050565b6000602082840312156107f657600080fd5b5035919050565b634e487b7160e01b600052601160045260246000fd5b81810381811115610826576108266107fd565b92915050565b60006020828403121561083e57600080fd5b815180151581146107dd57600080fd5b80820180821115610826576108266107fd565b8082028115828204841417610826576108266107fd565b60008261089557634e487b7160e01b600052601260045260246000fd5b50049056fea2646970667358221220383e656b9579f88e1f1775c4df8b418a1946276791637b3c9aa1459247404cc764736f6c63430008140033",
  "linkReferences": {},
  "deployedLinkReferences": {}
}