{
  "_format": "hh-sol-artifact-1",
  "contractName": "NFTandDefiMerged",
  "sourceName": "contracts/NFTandDefiMerged.sol",
  "abi": [
    {
      "inputs": [
        {
          "internalType": "address",
          "name": "DefContractAddress",
          "type": "address"
        },
        {
          "internalType": "address",
          "name": "TweetContractAddress",
          "type": "address"
        },
        {
          "internalType": "address",
          "name": "AirdropContractAddress",
          "type": "address"
        },
        {
          "internalType": "address",
          "name": "StakingContractAddress",
          "type": "address"
        }
      ],
      "stateMutability": "nonpayable",
      "type": "constructor"
    },
    {
      "anonymous": false,
      "inputs": [
        {
          "indexed": true,
          "internalType": "address",
          "name": "owner",
          "type": "address"
        },
        {
          "indexed": true,
          "internalType": "address",
          "name": "approved",
          "type": "address"
        },
        {
          "indexed": true,
          "internalType": "uint256",
          "name": "tokenId",
          "type": "uint256"
        }
      ],
      "name": "Approval",
      "type": "event"
    },
    {
      "anonymous": false,
      "inputs": [
        {
          "indexed": true,
          "internalType": "address",
          "name": "owner",
          "type": "address"
        },
        {
          "indexed": true,
          "internalType": "address",
          "name": "operator",
          "type": "address"
        },
        {
          "indexed": false,
          "internalType": "bool",
          "name": "approved",
          "type": "bool"
        }
      ],
      "name": "ApprovalForAll",
      "type": "event"
    },
    {
      "anonymous": false,
      "inputs": [
        {
          "indexed": false,
          "internalType": "uint256",
          "name": "_fromTokenId",
          "type": "uint256"
        },
        {
          "indexed": false,
          "internalType": "uint256",
          "name": "_toTokenId",
          "type": "uint256"
        }
      ],
      "name": "BatchMetadataUpdate",
      "type": "event"
    },
    {
      "anonymous": false,
      "inputs": [
        {
          "indexed": false,
          "internalType": "uint256",
          "name": "_tokenId",
          "type": "uint256"
        }
      ],
      "name": "MetadataUpdate",
      "type": "event"
    },
    {
      "anonymous": false,
      "inputs": [
        {
          "indexed": true,
          "internalType": "address",
          "name": "from",
          "type": "address"
        },
        {
          "indexed": true,
          "internalType": "address",
          "name": "to",
          "type": "address"
        },
        {
          "indexed": true,
          "internalType": "uint256",
          "name": "tokenId",
          "type": "uint256"
        }
      ],
      "name": "Transfer",
      "type": "event"
    },
    {
      "inputs": [],
      "name": "AirdropInstance",
      "outputs": [
        {
          "internalType": "contract IPrivateAirdrop",
          "name": "",
          "type": "address"
        }
      ],
      "stateMutability": "view",
      "type": "function"
    },
    {
      "inputs": [
        {
          "internalType": "uint256[]",
          "name": "productIds",
          "type": "uint256[]"
        }
      ],
      "name": "BuyProducts",
      "outputs": [],
      "stateMutability": "payable",
      "type": "function"
    },
    {
      "inputs": [
        {
          "internalType": "uint256[]",
          "name": "productIds",
          "type": "uint256[]"
        }
      ],
      "name": "BuyProductsERTN",
      "outputs": [],
      "stateMutability": "payable",
      "type": "function"
    },
    {
      "inputs": [
        {
          "internalType": "uint256",
          "name": "amount",
          "type": "uint256"
        },
        {
          "internalType": "address",
          "name": "pubkey",
          "type": "address"
        }
      ],
      "name": "BuyTokens",
      "outputs": [],
      "stateMutability": "nonpayable",
      "type": "function"
    },
    {
      "inputs": [],
      "name": "DefiInstance",
      "outputs": [
        {
          "internalType": "contract Defi",
          "name": "",
          "type": "address"
        }
      ],
      "stateMutability": "view",
      "type": "function"
    },
    {
      "inputs": [
        {
          "internalType": "address",
          "name": "pubkey",
          "type": "address"
        },
        {
          "internalType": "uint256",
          "name": "index",
          "type": "uint256"
        }
      ],
      "name": "DeletingText",
      "outputs": [],
      "stateMutability": "nonpayable",
      "type": "function"
    },
    {
      "inputs": [],
      "name": "GetAllProducts",
      "outputs": [
        {
          "components": [
            {
              "internalType": "uint256",
              "name": "ProductId",
              "type": "uint256"
            },
            {
              "internalType": "string",
              "name": "ProductURI",
              "type": "string"
            },
            {
              "internalType": "address payable",
              "name": "owner",
              "type": "address"
            },
            {
              "internalType": "address payable",
              "name": "seller",
              "type": "address"
            },
            {
              "internalType": "uint256",
              "name": "price",
              "type": "uint256"
            },
            {
              "internalType": "bool",
              "name": "status",
              "type": "bool"
            },
            {
              "internalType": "string",
              "name": "ProductName",
              "type": "string"
            },
            {
              "internalType": "uint256",
              "name": "ERTNPrice",
              "type": "uint256"
            },
            {
              "internalType": "uint256",
              "name": "resaleCount",
              "type": "uint256"
            },
            {
              "internalType": "address",
              "name": "originalMinter",
              "type": "address"
            }
          ],
          "internalType": "struct NFTandDefiMerged.ProductProperties[]",
          "name": "",
          "type": "tuple[]"
        }
      ],
      "stateMutability": "view",
      "type": "function"
    },
    {
      "inputs": [],
      "name": "GetTextData",
      "outputs": [
        {
          "components": [
            {
              "internalType": "string",
              "name": "Profile",
              "type": "string"
            },
            {
              "internalType": "string",
              "name": "Fname",
              "type": "string"
            },
            {
              "internalType": "string",
              "name": "Lname",
              "type": "string"
            },
            {
              "internalType": "uint256",
              "name": "timestamp",
              "type": "uint256"
            },
            {
              "internalType": "string",
              "name": "text",
              "type": "string"
            },
            {
              "internalType": "address",
              "name": "owner",
              "type": "address"
            },
            {
              "internalType": "string",
              "name": "NFTUrl",
              "type": "string"
            }
          ],
          "internalType": "struct Tweets.textfeed[]",
          "name": "",
          "type": "tuple[]"
        }
      ],
      "stateMutability": "view",
      "type": "function"
    },
    {
      "inputs": [
        {
          "internalType": "address",
          "name": "pubkey",
          "type": "address"
        }
      ],
      "name": "GetUserData",
      "outputs": [
        {
          "components": [
            {
              "internalType": "string",
              "name": "FName",
              "type": "string"
            },
            {
              "internalType": "string",
              "name": "LName",
              "type": "string"
            },
            {
              "internalType": "string",
              "name": "profilePic",
              "type": "string"
            },
            {
              "internalType": "address",
              "name": "owner",
              "type": "address"
            },
            {
              "internalType": "uint256",
              "name": "timestamp",
              "type": "uint256"
            },
            {
              "internalType": "string",
              "name": "password",
              "type": "string"
            },
            {
              "internalType": "string[]",
              "name": "Text",
              "type": "string[]"
            }
          ],
          "internalType": "struct Tweets.User",
          "name": "",
          "type": "tuple"
        }
      ],
      "stateMutability": "view",
      "type": "function"
    },
    {
      "inputs": [
        {
          "internalType": "address",
          "name": "UserKey",
          "type": "address"
        },
        {
          "internalType": "string",
          "name": "pw",
          "type": "string"
        }
      ],
      "name": "Login",
      "outputs": [
        {
          "internalType": "bool",
          "name": "",
          "type": "bool"
        }
      ],
      "stateMutability": "view",
      "type": "function"
    },
    {
      "inputs": [
        {
          "internalType": "string",
          "name": "ProductURI",
          "type": "string"
        },
        {
          "internalType": "uint256",
          "name": "price",
          "type": "uint256"
        },
        {
          "internalType": "string",
          "name": "name",
          "type": "string"
        },
        {
          "internalType": "uint256",
          "name": "ertnprice",
          "type": "uint256"
        },
        {
          "internalType": "address",
          "name": "pubkey",
          "type": "address"
        },
        {
          "internalType": "bool",
          "name": "postPic",
          "type": "bool"
        }
      ],
      "name": "MintProduct",
      "outputs": [],
      "stateMutability": "payable",
      "type": "function"
    },
    {
      "inputs": [
        {
          "internalType": "string",
          "name": "Data",
          "type": "string"
        },
        {
          "internalType": "string",
          "name": "NFTUrl",
          "type": "string"
        },
        {
          "internalType": "address",
          "name": "pubkey",
          "type": "address"
        }
      ],
      "name": "PostText",
      "outputs": [],
      "stateMutability": "payable",
      "type": "function"
    },
    {
      "inputs": [
        {
          "internalType": "uint256",
          "name": "productid",
          "type": "uint256"
        },
        {
          "internalType": "uint256",
          "name": "price",
          "type": "uint256"
        },
        {
          "internalType": "uint256",
          "name": "ERTNPrice",
          "type": "uint256"
        }
      ],
      "name": "Resale",
      "outputs": [],
      "stateMutability": "payable",
      "type": "function"
    },
    {
      "inputs": [
        {
          "internalType": "address",
          "name": "staker",
          "type": "address"
        },
        {
          "internalType": "uint256",
          "name": "amount",
          "type": "uint256"
        }
      ],
      "name": "RewardCalculater",
      "outputs": [
        {
          "internalType": "uint256",
          "name": "",
          "type": "uint256"
        }
      ],
      "stateMutability": "view",
      "type": "function"
    },
    {
      "inputs": [
        {
          "internalType": "uint256",
          "name": "Productid",
          "type": "uint256"
        }
      ],
      "name": "SaleProduct",
      "outputs": [],
      "stateMutability": "payable",
      "type": "function"
    },
    {
      "inputs": [
        {
          "internalType": "uint256",
          "name": "Productid",
          "type": "uint256"
        }
      ],
      "name": "SaleProductERTN",
      "outputs": [],
      "stateMutability": "payable",
      "type": "function"
    },
    {
      "inputs": [
        {
          "internalType": "string",
          "name": "FirstName",
          "type": "string"
        },
        {
          "internalType": "string",
          "name": "LastName",
          "type": "string"
        },
        {
          "internalType": "string",
          "name": "Profile",
          "type": "string"
        },
        {
          "internalType": "address",
          "name": "userKey",
          "type": "address"
        },
        {
          "internalType": "string",
          "name": "password",
          "type": "string"
        }
      ],
      "name": "SignUp",
      "outputs": [],
      "stateMutability": "payable",
      "type": "function"
    },
    {
      "inputs": [
        {
          "internalType": "uint256",
          "name": "amount",
          "type": "uint256"
        },
        {
          "internalType": "address",
          "name": "pubkey",
          "type": "address"
        }
      ],
      "name": "StakeTokens",
      "outputs": [],
      "stateMutability": "nonpayable",
      "type": "function"
    },
    {
      "inputs": [
        {
          "internalType": "address",
          "name": "staker",
          "type": "address"
        }
      ],
      "name": "Stakedamount",
      "outputs": [
        {
          "internalType": "uint256",
          "name": "",
          "type": "uint256"
        }
      ],
      "stateMutability": "view",
      "type": "function"
    },
    {
      "inputs": [
        {
          "internalType": "address",
          "name": "staker",
          "type": "address"
        }
      ],
      "name": "Stakedtime",
      "outputs": [
        {
          "internalType": "uint256",
          "name": "",
          "type": "uint256"
        }
      ],
      "stateMutability": "view",
      "type": "function"
    },
    {
      "inputs": [],
      "name": "StakingInstance",
      "outputs": [
        {
          "internalType": "contract IStaking",
          "name": "",
          "type": "address"
        }
      ],
      "stateMutability": "view",
      "type": "function"
    },
    {
      "inputs": [],
      "name": "TweetInstance",
      "outputs": [
        {
          "internalType": "contract Tweets",
          "name": "",
          "type": "address"
        }
      ],
      "stateMutability": "view",
      "type": "function"
    },
    {
      "inputs": [
        {
          "internalType": "uint256",
          "name": "amount",
          "type": "uint256"
        },
        {
          "internalType": "address",
          "name": "pubkey",
          "type": "address"
        }
      ],
      "name": "UnstakeTokens",
      "outputs": [],
      "stateMutability": "nonpayable",
      "type": "function"
    },
    {
      "inputs": [
        {
          "internalType": "address",
          "name": "to",
          "type": "address"
        },
        {
          "internalType": "uint256",
          "name": "tokenId",
          "type": "uint256"
        }
      ],
      "name": "approve",
      "outputs": [],
      "stateMutability": "nonpayable",
      "type": "function"
    },
    {
      "inputs": [
        {
          "internalType": "address",
          "name": "owner",
          "type": "address"
        }
      ],
      "name": "balanceOf",
      "outputs": [
        {
          "internalType": "uint256",
          "name": "",
          "type": "uint256"
        }
      ],
      "stateMutability": "view",
      "type": "function"
    },
    {
      "inputs": [
        {
          "internalType": "address",
          "name": "pukey",
          "type": "address"
        }
      ],
      "name": "checkbalance",
      "outputs": [
        {
          "internalType": "uint256",
          "name": "",
          "type": "uint256"
        }
      ],
      "stateMutability": "view",
      "type": "function"
    },
    {
      "inputs": [
        {
          "internalType": "uint256",
          "name": "tokenId",
          "type": "uint256"
        }
      ],
      "name": "getApproved",
      "outputs": [
        {
          "internalType": "address",
          "name": "",
          "type": "address"
        }
      ],
      "stateMutability": "view",
      "type": "function"
    },
    {
      "inputs": [],
      "name": "getMyProducts",
      "outputs": [
        {
          "components": [
            {
              "internalType": "uint256",
              "name": "ProductId",
              "type": "uint256"
            },
            {
              "internalType": "string",
              "name": "ProductURI",
              "type": "string"
            },
            {
              "internalType": "address payable",
              "name": "owner",
              "type": "address"
            },
            {
              "internalType": "address payable",
              "name": "seller",
              "type": "address"
            },
            {
              "internalType": "uint256",
              "name": "price",
              "type": "uint256"
            },
            {
              "internalType": "bool",
              "name": "status",
              "type": "bool"
            },
            {
              "internalType": "string",
              "name": "ProductName",
              "type": "string"
            },
            {
              "internalType": "uint256",
              "name": "ERTNPrice",
              "type": "uint256"
            },
            {
              "internalType": "uint256",
              "name": "resaleCount",
              "type": "uint256"
            },
            {
              "internalType": "address",
              "name": "originalMinter",
              "type": "address"
            }
          ],
          "internalType": "struct NFTandDefiMerged.ProductProperties[]",
          "name": "",
          "type": "tuple[]"
        }
      ],
      "stateMutability": "view",
      "type": "function"
    },
    {
      "inputs": [
        {
          "internalType": "address",
          "name": "owner",
          "type": "address"
        },
        {
          "internalType": "address",
          "name": "operator",
          "type": "address"
        }
      ],
      "name": "isApprovedForAll",
      "outputs": [
        {
          "internalType": "bool",
          "name": "",
          "type": "bool"
        }
      ],
      "stateMutability": "view",
      "type": "function"
    },
    {
      "inputs": [],
      "name": "name",
      "outputs": [
        {
          "internalType": "string",
          "name": "",
          "type": "string"
        }
      ],
      "stateMutability": "view",
      "type": "function"
    },
    {
      "inputs": [
        {
          "internalType": "uint256",
          "name": "tokenId",
          "type": "uint256"
        }
      ],
      "name": "ownerOf",
      "outputs": [
        {
          "internalType": "address",
          "name": "",
          "type": "address"
        }
      ],
      "stateMutability": "view",
      "type": "function"
    },
    {
      "inputs": [
        {
          "internalType": "address",
          "name": "from",
          "type": "address"
        },
        {
          "internalType": "address",
          "name": "to",
          "type": "address"
        },
        {
          "internalType": "uint256",
          "name": "tokenId",
          "type": "uint256"
        }
      ],
      "name": "safeTransferFrom",
      "outputs": [],
      "stateMutability": "nonpayable",
      "type": "function"
    },
    {
      "inputs": [
        {
          "internalType": "address",
          "name": "from",
          "type": "address"
        },
        {
          "internalType": "address",
          "name": "to",
          "type": "address"
        },
        {
          "internalType": "uint256",
          "name": "tokenId",
          "type": "uint256"
        },
        {
          "internalType": "bytes",
          "name": "data",
          "type": "bytes"
        }
      ],
      "name": "safeTransferFrom",
      "outputs": [],
      "stateMutability": "nonpayable",
      "type": "function"
    },
    {
      "inputs": [
        {
          "internalType": "address",
          "name": "operator",
          "type": "address"
        },
        {
          "internalType": "bool",
          "name": "approved",
          "type": "bool"
        }
      ],
      "name": "setApprovalForAll",
      "outputs": [],
      "stateMutability": "nonpayable",
      "type": "function"
    },
    {
      "inputs": [
        {
          "internalType": "address",
          "name": "stakingAddress",
          "type": "address"
        }
      ],
      "name": "setStakingContract",
      "outputs": [],
      "stateMutability": "nonpayable",
      "type": "function"
    },
    {
      "inputs": [
        {
          "internalType": "bytes4",
          "name": "interfaceId",
          "type": "bytes4"
        }
      ],
      "name": "supportsInterface",
      "outputs": [
        {
          "internalType": "bool",
          "name": "",
          "type": "bool"
        }
      ],
      "stateMutability": "view",
      "type": "function"
    },
    {
      "inputs": [],
      "name": "symbol",
      "outputs": [
        {
          "internalType": "string",
          "name": "",
          "type": "string"
        }
      ],
      "stateMutability": "view",
      "type": "function"
    },
    {
      "inputs": [
        {
          "internalType": "uint256",
          "name": "tokenId",
          "type": "uint256"
        }
      ],
      "name": "tokenURI",
      "outputs": [
        {
          "internalType": "string",
          "name": "",
          "type": "string"
        }
      ],
      "stateMutability": "view",
      "type": "function"
    },
    {
      "inputs": [
        {
          "internalType": "address",
          "name": "from",
          "type": "address"
        },
        {
          "internalType": "address",
          "name": "to",
          "type": "address"
        },
        {
          "internalType": "uint256",
          "name": "tokenId",
          "type": "uint256"
        }
      ],
      "name": "transferFrom",
      "outputs": [],
      "stateMutability": "nonpayable",
      "type": "function"
    }
  ],
  "bytecode": "0x6080604052662386f26fc10000600d553480156200001c57600080fd5b506040516200421e3803806200421e8339810160408190526200003f9162000121565b6040518060400160405280600e81526020016d4e46544d61726b6574506c61636560901b815250604051806040016040528060048152602001634e46544d60e01b815250816000908162000094919062000223565b506001620000a3828262000223565b5050600c8054336001600160a01b0319918216179091556008805482166001600160a01b039788161790556009805482169587169590951790945550600a8054841692851692909217909155600b80549092169216919091179055620002ef565b80516001600160a01b03811681146200011c57600080fd5b919050565b600080600080608085870312156200013857600080fd5b620001438562000104565b9350620001536020860162000104565b9250620001636040860162000104565b9150620001736060860162000104565b905092959194509250565b634e487b7160e01b600052604160045260246000fd5b600181811c90821680620001a957607f821691505b602082108103620001ca57634e487b7160e01b600052602260045260246000fd5b50919050565b601f8211156200021e57600081815260208120601f850160051c81016020861015620001f95750805b601f850160051c820191505b818110156200021a5782815560010162000205565b5050505b505050565b81516001600160401b038111156200023f576200023f6200017e565b620002578162000250845462000194565b84620001d0565b602080601f8311600181146200028f5760008415620002765750858301515b600019600386901b1c1916600185901b1785556200021a565b600085815260208120601f198616915b82811015620002c0578886015182559484019460019091019084016200029f565b5085821015620002df5787850151600019600388901b60f8161c191681555b5050505050600190811b01905550565b613f1f80620002ff6000396000f3fe6080604052600436106102a05760003560e01c80638af316451161016e578063d8cd6fba116100cb578063e985e9c51161007f578063f3f131dd11610064578063f3f131dd14610738578063f805964214610758578063fdca4ca31461076b57600080fd5b8063e985e9c5146106dc578063ef6d44b11461072557600080fd5b8063dde0c657116100b0578063dde0c6571461067c578063e4c3a5321461069c578063e83029bb146106bc57600080fd5b8063d8cd6fba14610647578063dc92b32d1461065a57600080fd5b8063a22cb46511610122578063b88d4fde11610107578063b88d4fde146105f4578063c87b56dd14610614578063d37155841461063457600080fd5b8063a22cb465146105b4578063a4b4e42b146105d457600080fd5b806398dda60f1161015357806398dda60f146105615780639b65f2db146105745780639dd373b91461059457600080fd5b80638af316451461052c57806395d89b411461054c57600080fd5b806335260d291161021c5780636cc5f9fc116101d0578063754dbc3b116101b5578063754dbc3b146104e45780637bc4fb2b146104f757806381a17a4a1461050a57600080fd5b80636cc5f9fc146104a457806370a08231146104c457600080fd5b80635e89fd92116102015780635e89fd92146104365780636352211e1461046457806365759af21461048457600080fd5b806335260d29146103f657806342842e0e1461041657600080fd5b80630a7cfbdc1161027357806322a9d91c1161025857806322a9d91c1461038957806323b872dd146103a95780632753fe7d146103c957600080fd5b80630a7cfbdc14610356578063145aac051461037657600080fd5b806301ffc9a7146102a557806306fdde03146102da578063081812fc146102fc578063095ea7b314610334575b600080fd5b3480156102b157600080fd5b506102c56102c0366004612e93565b610780565b60405190151581526020015b60405180910390f35b3480156102e657600080fd5b506102ef6107c4565b6040516102d19190612f00565b34801561030857600080fd5b5061031c610317366004612f13565b610856565b6040516001600160a01b0390911681526020016102d1565b34801561034057600080fd5b5061035461034f366004612f41565b61087d565b005b34801561036257600080fd5b5060095461031c906001600160a01b031681565b610354610384366004613001565b6109b3565b34801561039557600080fd5b506103546103a4366004613097565b610a31565b3480156103b557600080fd5b506103546103c43660046130c7565b610ab5565b3480156103d557600080fd5b506103e96103e4366004613108565b610b2c565b6040516102d1919061317a565b34801561040257600080fd5b50610354610411366004612f41565b610c00565b34801561042257600080fd5b506103546104313660046130c7565b610c52565b34801561044257600080fd5b50610456610451366004613108565b610c6d565b6040519081526020016102d1565b34801561047057600080fd5b5061031c61047f366004612f13565b610cf6565b34801561049057600080fd5b5061035461049f366004613097565b610d5b565b3480156104b057600080fd5b5060085461031c906001600160a01b031681565b3480156104d057600080fd5b506104566104df366004613108565b610dad565b6103546104f2366004613233565b610e47565b610354610505366004613001565b610ea5565b34801561051657600080fd5b5061051f610ee5565b6040516102d1919061325f565b34801561053857600080fd5b50610456610547366004612f41565b6111d2565b34801561055857600080fd5b506102ef611268565b61035461056f3660046133eb565b611277565b34801561058057600080fd5b50600a5461031c906001600160a01b031681565b3480156105a057600080fd5b506103546105af366004613108565b61134b565b3480156105c057600080fd5b506103546105cf366004613471565b6113ed565b3480156105e057600080fd5b506102c56105ef36600461349f565b6113f8565b34801561060057600080fd5b5061035461060f3660046134ef565b611485565b34801561062057600080fd5b506102ef61062f366004612f13565b611503565b610354610642366004612f13565b611613565b61035461065536600461356f565b611879565b34801561066657600080fd5b5061066f611b69565b6040516102d1919061360c565b34801561068857600080fd5b50610456610697366004613108565b611bf9565b3480156106a857600080fd5b506103546106b7366004613097565b611c45565b3480156106c857600080fd5b506104566106d7366004613108565b611c97565b3480156106e857600080fd5b506102c56106f73660046136f4565b6001600160a01b03918216600090815260056020908152604080832093909416825291909152205460ff1690565b610354610733366004612f13565b611cca565b34801561074457600080fd5b50600b5461031c906001600160a01b031681565b610354610766366004613722565b611e53565b34801561077757600080fd5b5061051f611f22565b60006001600160e01b031982167f490649060000000000000000000000000000000000000000000000000000000014806107be57506107be8261230c565b92915050565b6060600080546107d3906137e4565b80601f01602080910402602001604051908101604052809291908181526020018280546107ff906137e4565b801561084c5780601f106108215761010080835404028352916020019161084c565b820191906000526020600020905b81548152906001019060200180831161082f57829003601f168201915b5050505050905090565b6000610861826123a7565b506000908152600460205260409020546001600160a01b031690565b600061088882610cf6565b9050806001600160a01b0316836001600160a01b0316036109165760405162461bcd60e51b815260206004820152602160248201527f4552433732313a20617070726f76616c20746f2063757272656e74206f776e6560448201527f720000000000000000000000000000000000000000000000000000000000000060648201526084015b60405180910390fd5b336001600160a01b0382161480610932575061093281336106f7565b6109a45760405162461bcd60e51b815260206004820152603d60248201527f4552433732313a20617070726f76652063616c6c6572206973206e6f7420746f60448201527f6b656e206f776e6572206f7220617070726f76656420666f7220616c6c000000606482015260840161090d565b6109ae838361240e565b505050565b60005b81518110156109f3576109e18282815181106109d4576109d461381e565b6020026020010151611cca565b806109eb8161384a565b9150506109b6565b50600c546040516001600160a01b03909116903480156108fc02916000818181858888f19350505050158015610a2d573d6000803e3d6000fd5b5050565b6008546040517f22a9d91c000000000000000000000000000000000000000000000000000000008152600481018490526001600160a01b038381166024830152909116906322a9d91c906044015b600060405180830381600087803b158015610a9957600080fd5b505af1158015610aad573d6000803e3d6000fd5b505050505050565b610abf338261247c565b610b215760405162461bcd60e51b815260206004820152602d60248201527f4552433732313a2063616c6c6572206973206e6f7420746f6b656e206f776e6560448201526c1c881bdc88185c1c1c9bdd9959609a1b606482015260840161090d565b6109ae8383836124fa565b610b756040518060e0016040528060608152602001606081526020016060815260200160006001600160a01b031681526020016000815260200160608152602001606081525090565b6009546040517f2753fe7d0000000000000000000000000000000000000000000000000000000081526001600160a01b03848116600483015290911690632753fe7d90602401600060405180830381865afa158015610bd8573d6000803e3d6000fd5b505050506040513d6000823e601f3d908101601f191682016040526107be9190810190613943565b6009546040517f35260d290000000000000000000000000000000000000000000000000000000081526001600160a01b03848116600483015260248201849052909116906335260d2990604401610a7f565b6109ae83838360405180602001604052806000815250611485565b6008546040517f5e89fd920000000000000000000000000000000000000000000000000000000081526001600160a01b0383811660048301526000921690635e89fd92906024015b602060405180830381865afa158015610cd2573d6000803e3d6000fd5b505050506040513d601f19601f820116820180604052508101906107be9190613a5b565b6000818152600260205260408120546001600160a01b0316806107be5760405162461bcd60e51b815260206004820152601860248201527f4552433732313a20696e76616c696420746f6b656e2049440000000000000000604482015260640161090d565b6008546040517f65759af2000000000000000000000000000000000000000000000000000000008152600481018490526001600160a01b038381166024830152909116906365759af290604401610a7f565b60006001600160a01b038216610e2b5760405162461bcd60e51b815260206004820152602960248201527f4552433732313a2061646472657373207a65726f206973206e6f74206120766160448201527f6c6964206f776e65720000000000000000000000000000000000000000000000606482015260840161090d565b506001600160a01b031660009081526003602052604090205490565b6000838152600e60205260409020600581018054600160ff19909116179055600281018054306001600160a01b03199182168117909255600383018054339216821790556004830185905560079092018390556109ae9190856124fa565b60005b81518110156109f357610ed3828281518110610ec657610ec661381e565b6020026020010151611613565b80610edd8161384a565b915050610ea8565b60606000610ef260075490565b905060008167ffffffffffffffff811115610f0f57610f0f612f6d565b604051908082528060200260200182016040528015610fb357816020015b610fa0604051806101400160405280600081526020016060815260200160006001600160a01b0316815260200160006001600160a01b031681526020016000815260200160001515815260200160608152602001600081526020016000815260200160006001600160a01b031681525090565b815260200190600190039081610f2d5790505b5090506000805b838110156111c9576000610fcf826001613a74565b90506000600e6000838152602001908152602001600020905080604051806101400160405290816000820154815260200160018201805461100f906137e4565b80601f016020809104026020016040519081016040528092919081815260200182805461103b906137e4565b80156110885780601f1061105d57610100808354040283529160200191611088565b820191906000526020600020905b81548152906001019060200180831161106b57829003601f168201915b505050918352505060028201546001600160a01b039081166020830152600383015416604082015260048201546060820152600582015460ff161515608082015260068201805460a0909201916110de906137e4565b80601f016020809104026020016040519081016040528092919081815260200182805461110a906137e4565b80156111575780601f1061112c57610100808354040283529160200191611157565b820191906000526020600020905b81548152906001019060200180831161113a57829003601f168201915b505050918352505060078201546020820152600882015460408201526009909101546001600160a01b0316606090910152855186908690811061119c5761119c61381e565b60209081029190910101526111b2846001613a74565b9350505080806111c19061384a565b915050610fba565b50909392505050565b6008546040517f8af316450000000000000000000000000000000000000000000000000000000081526001600160a01b038481166004830152602482018490526000921690638af3164590604401602060405180830381865afa15801561123d573d6000803e3d6000fd5b505050506040513d601f19601f820116820180604052508101906112619190613a5b565b9392505050565b6060600180546107d3906137e4565b600034116112c75760405162461bcd60e51b815260206004820152601060248201527f706c656173652070617920312047776900000000000000000000000000000000604482015260640161090d565b6009546040517f98dda60f0000000000000000000000000000000000000000000000000000000081526001600160a01b03909116906398dda60f9061131490869086908690600401613a87565b600060405180830381600087803b15801561132e57600080fd5b505af1158015611342573d6000803e3d6000fd5b50505050505050565b600c546001600160a01b031633146113cb5760405162461bcd60e51b815260206004820152602360248201527f4f6e6c79206f776e65722063616e20736574207374616b696e6720636f6e747260448201527f6163740000000000000000000000000000000000000000000000000000000000606482015260840161090d565b600b80546001600160a01b0319166001600160a01b0392909216919091179055565b610a2d3383836126f3565b6009546040517fa4b4e42b0000000000000000000000000000000000000000000000000000000081526000916001600160a01b03169063a4b4e42b906114449086908690600401613ac6565b602060405180830381865afa158015611461573d6000803e3d6000fd5b505050506040513d601f19601f820116820180604052508101906112619190613ae8565b61148f338361247c565b6114f15760405162461bcd60e51b815260206004820152602d60248201527f4552433732313a2063616c6c6572206973206e6f7420746f6b656e206f776e6560448201526c1c881bdc88185c1c1c9bdd9959609a1b606482015260840161090d565b6114fd848484846127c1565b50505050565b606061150e826123a7565b60008281526006602052604081208054611527906137e4565b80601f0160208091040260200160405190810160405280929190818152602001828054611553906137e4565b80156115a05780601f10611575576101008083540402835291602001916115a0565b820191906000526020600020905b81548152906001019060200180831161158357829003601f168201915b5050505050905060006115be60408051602081019091526000815290565b905080516000036115d0575092915050565b8151156116025780826040516020016115ea929190613b05565b60405160208183030381529060405292505050919050565b61160b8461283f565b949350505050565b6000818152600e60205260409081902060070154600854915163e83029bb60e01b8152336004820152909182916001600160a01b039091169063e83029bb90602401602060405180830381865afa158015611672573d6000803e3d6000fd5b505050506040513d601f19601f820116820180604052508101906116969190613a5b565b10156116e45760405162461bcd60e51b815260206004820152600f60248201527f4e6f7420656e6f756768204552544e0000000000000000000000000000000000604482015260640161090d565b6000828152600e60205260408120600381018054600983015460058401805460ff19169055336001600160a01b0319808416821790945560028501805490941617909255600890920180546001600160a01b0393841694939092169260019261174e908490613a74565b9091555061175f90503033866124fa565b611769308561087d565b60006064611778856005613b34565b6117829190613b4b565b905060006117908286613b6d565b905081156118055760085460405163db543a7b60e01b81523360048201526001600160a01b038581166024830152604482018590529091169063db543a7b90606401600060405180830381600087803b1580156117ec57600080fd5b505af1158015611800573d6000803e3d6000fd5b505050505b60085460405163db543a7b60e01b81523360048201526001600160a01b038681166024830152604482018490529091169063db543a7b90606401600060405180830381600087803b15801561185957600080fd5b505af115801561186d573d6000803e3d6000fd5b50505050505050505050565b600085116118c95760405162461bcd60e51b815260206004820152601760248201527f50726963652063616e2774206265206e65676174697665000000000000000000604482015260640161090d565b600b546040517ff99318550000000000000000000000000000000000000000000000000000000081523360048201526000916001600160a01b03169063f993185590602401602060405180830381865afa15801561192b573d6000803e3d6000fd5b505050506040513d601f19601f8201168201806040525081019061194f9190613a5b565b905068056bc75e2d6310000081101561196c600780546001019055565b600061197760075490565b905061198333826128b2565b61198d818a6128cc565b604080516101408101825282815260208082018c815230838501523360608401819052608084018d9052600160a0850181905260c085018d905260e085018c905260006101008601819052610120860192909252868252600e9093529390932082518155925191929190820190611a049082613bc6565b5060408201516002820180546001600160a01b039283166001600160a01b03199182161790915560608401516003840180549190931691161790556080820151600482015560a082015160058201805491151560ff1990921691909117905560c08201516006820190611a779082613bc6565b5060e08201516007820155610100820151600882015561012090910151600990910180546001600160a01b0319166001600160a01b03909216919091179055611ac13330836124fa565b8315611b5e578115611add57611ad8878a87611277565b611b5e565b60003411611b535760405162461bcd60e51b815260206004820152602260248201527f506c65617365207061792031204777656920746f207368617265206f6e20666560448201527f6564000000000000000000000000000000000000000000000000000000000000606482015260840161090d565b611b5e878a87611277565b505050505050505050565b600954604080517fdc92b32d00000000000000000000000000000000000000000000000000000000815290516060926001600160a01b03169163dc92b32d9160048083019260009291908290030181865afa158015611bcc573d6000803e3d6000fd5b505050506040513d6000823e601f3d908101601f19168201604052611bf49190810190613c86565b905090565b6008546040517fdde0c6570000000000000000000000000000000000000000000000000000000081526001600160a01b038381166004830152600092169063dde0c65790602401610cb5565b6008546040517fe4c3a532000000000000000000000000000000000000000000000000000000008152600481018490526001600160a01b0383811660248301529091169063e4c3a53290604401610a7f565b60085460405163e83029bb60e01b81526001600160a01b038381166004830152600092169063e83029bb90602401610cb5565b6000818152600e602052604090206004810154600382015460099092015490916001600160a01b03908116911634831115611d475760405162461bcd60e51b815260206004820152601560248201527f496e73756666696369656e74204554482073656e740000000000000000000000604482015260640161090d565b6000848152600e6020526040812060058101805460ff19169055600381018054336001600160a01b031991821681179092556002830180549091169091179055600801805460019290611d9b908490613a74565b90915550611dac90503033866124fa565b611db6308561087d565b60006064611dc5856005613b34565b611dcf9190613b4b565b90506000611ddd8286613b6d565b90508115611e1d576040516001600160a01b0384169083156108fc029084906000818181858888f19350505050158015611e1b573d6000803e3d6000fd5b505b6040516001600160a01b0385169082156108fc029083906000818181858888f19350505050158015611342573d6000803e3d6000fd5b60003411611ea35760405162461bcd60e51b815260206004820152601060248201527f706c656173652070617920312047776900000000000000000000000000000000604482015260640161090d565b6009546040517ff80596420000000000000000000000000000000000000000000000000000000081526001600160a01b039091169063f805964290611ef49088908890889088908890600401613e28565b600060405180830381600087803b158015611f0e57600080fd5b505af1158015611b5e573d6000803e3d6000fd5b60606000611f2f60075490565b9050600080805b83811015611fc65733600e6000611f4e846001613a74565b81526020810191909152604001600020600201546001600160a01b03161480611fa1575033600e6000611f82846001613a74565b81526020810191909152604001600020600301546001600160a01b0316145b15611fb457611fb1836001613a74565b92505b80611fbe8161384a565b915050611f36565b5060008267ffffffffffffffff811115611fe257611fe2612f6d565b60405190808252806020026020018201604052801561208657816020015b612073604051806101400160405280600081526020016060815260200160006001600160a01b0316815260200160006001600160a01b031681526020016000815260200160001515815260200160608152602001600081526020016000815260200160006001600160a01b031681525090565b8152602001906001900390816120005790505b50905060005b838110156123035733600e60006120a4846001613a74565b81526020810191909152604001600020600201546001600160a01b031614806120f7575033600e60006120d8846001613a74565b81526020810191909152604001600020600301546001600160a01b0316145b156122f1576000612109826001613a74565b90506000600e60008381526020019081526020016000209050806040518061014001604052908160008201548152602001600182018054612149906137e4565b80601f0160208091040260200160405190810160405280929190818152602001828054612175906137e4565b80156121c25780601f10612197576101008083540402835291602001916121c2565b820191906000526020600020905b8154815290600101906020018083116121a557829003601f168201915b505050918352505060028201546001600160a01b039081166020830152600383015416604082015260048201546060820152600582015460ff161515608082015260068201805460a090920191612218906137e4565b80601f0160208091040260200160405190810160405280929190818152602001828054612244906137e4565b80156122915780601f1061226657610100808354040283529160200191612291565b820191906000526020600020905b81548152906001019060200180831161227457829003601f168201915b505050918352505060078201546020820152600882015460408201526009909101546001600160a01b031660609091015284518590879081106122d6576122d661381e565b60209081029190910101526122ec856001613a74565b945050505b806122fb8161384a565b91505061208c565b50949350505050565b60006001600160e01b031982167f80ac58cd00000000000000000000000000000000000000000000000000000000148061236f57506001600160e01b031982167f5b5e139f00000000000000000000000000000000000000000000000000000000145b806107be57507f01ffc9a7000000000000000000000000000000000000000000000000000000006001600160e01b03198316146107be565b6000818152600260205260409020546001600160a01b031661240b5760405162461bcd60e51b815260206004820152601860248201527f4552433732313a20696e76616c696420746f6b656e2049440000000000000000604482015260640161090d565b50565b600081815260046020526040902080546001600160a01b0319166001600160a01b038416908117909155819061244382610cf6565b6001600160a01b03167f8c5be1e5ebec7d5bd14f71427d1e84f3dd0314c0f7b2291e5b200ac8c7c3b92560405160405180910390a45050565b60008061248883610cf6565b9050806001600160a01b0316846001600160a01b031614806124cf57506001600160a01b0380821660009081526005602090815260408083209388168352929052205460ff165b8061160b5750836001600160a01b03166124e884610856565b6001600160a01b031614949350505050565b826001600160a01b031661250d82610cf6565b6001600160a01b0316146125715760405162461bcd60e51b815260206004820152602560248201527f4552433732313a207472616e736665722066726f6d20696e636f72726563742060448201526437bbb732b960d91b606482015260840161090d565b6001600160a01b0382166125ec5760405162461bcd60e51b8152602060048201526024808201527f4552433732313a207472616e7366657220746f20746865207a65726f2061646460448201527f7265737300000000000000000000000000000000000000000000000000000000606482015260840161090d565b826001600160a01b03166125ff82610cf6565b6001600160a01b0316146126635760405162461bcd60e51b815260206004820152602560248201527f4552433732313a207472616e736665722066726f6d20696e636f72726563742060448201526437bbb732b960d91b606482015260840161090d565b600081815260046020908152604080832080546001600160a01b03199081169091556001600160a01b0387811680865260038552838620805460001901905590871680865283862080546001019055868652600290945282852080549092168417909155905184937fddf252ad1be2c89b69c2b068fc378daa952ba7f163c4a11628f55a4df523b3ef91a4505050565b816001600160a01b0316836001600160a01b0316036127545760405162461bcd60e51b815260206004820152601960248201527f4552433732313a20617070726f766520746f2063616c6c657200000000000000604482015260640161090d565b6001600160a01b03838116600081815260056020908152604080832094871680845294825291829020805460ff191686151590811790915591519182527f17307eab39ab6107e8899845ad3d59bd9653f200f220920489ca2b5937696c31910160405180910390a3505050565b6127cc8484846124fa565b6127d8848484846129a6565b6114fd5760405162461bcd60e51b815260206004820152603260248201527f4552433732313a207472616e7366657220746f206e6f6e20455243373231526560448201527131b2b4bb32b91034b6b83632b6b2b73a32b960711b606482015260840161090d565b606061284a826123a7565b600061286160408051602081019091526000815290565b905060008151116128815760405180602001604052806000815250611261565b8061288b84612af2565b60405160200161289c929190613b05565b6040516020818303038152906040529392505050565b610a2d828260405180602001604052806000815250612b92565b6000828152600260205260409020546001600160a01b03166129565760405162461bcd60e51b815260206004820152602e60248201527f45524337323155524953746f726167653a2055524920736574206f66206e6f6e60448201527f6578697374656e7420746f6b656e000000000000000000000000000000000000606482015260840161090d565b600082815260066020526040902061296e8282613bc6565b506040518281527ff8e1a15aba9398e019f0b49df1a4fde98ee17ae345cb5f6b5e2c27f5033e8ce79060200160405180910390a15050565b60006001600160a01b0384163b15612ae757604051630a85bd0160e11b81526001600160a01b0385169063150b7a02906129ea903390899088908890600401613e90565b6020604051808303816000875af1925050508015612a25575060408051601f3d908101601f19168201909252612a2291810190613ecc565b60015b612acd573d808015612a53576040519150601f19603f3d011682016040523d82523d6000602084013e612a58565b606091505b508051600003612ac55760405162461bcd60e51b815260206004820152603260248201527f4552433732313a207472616e7366657220746f206e6f6e20455243373231526560448201527131b2b4bb32b91034b6b83632b6b2b73a32b960711b606482015260840161090d565b805181602001fd5b6001600160e01b031916630a85bd0160e11b14905061160b565b506001949350505050565b60606000612aff83612c10565b600101905060008167ffffffffffffffff811115612b1f57612b1f612f6d565b6040519080825280601f01601f191660200182016040528015612b49576020820181803683370190505b5090508181016020015b600019017f3031323334353637383961626364656600000000000000000000000000000000600a86061a8153600a8504945084612b5357509392505050565b612b9c8383612cf2565b612ba960008484846129a6565b6109ae5760405162461bcd60e51b815260206004820152603260248201527f4552433732313a207472616e7366657220746f206e6f6e20455243373231526560448201527131b2b4bb32b91034b6b83632b6b2b73a32b960711b606482015260840161090d565b6000807a184f03e93ff9f4daa797ed6e38ed64bf6a1f0100000000000000008310612c59577a184f03e93ff9f4daa797ed6e38ed64bf6a1f010000000000000000830492506040015b6d04ee2d6d415b85acef81000000008310612c85576d04ee2d6d415b85acef8100000000830492506020015b662386f26fc100008310612ca357662386f26fc10000830492506010015b6305f5e1008310612cbb576305f5e100830492506008015b6127108310612ccf57612710830492506004015b60648310612ce1576064830492506002015b600a83106107be5760010192915050565b6001600160a01b038216612d485760405162461bcd60e51b815260206004820181905260248201527f4552433732313a206d696e7420746f20746865207a65726f2061646472657373604482015260640161090d565b6000818152600260205260409020546001600160a01b031615612dad5760405162461bcd60e51b815260206004820152601c60248201527f4552433732313a20746f6b656e20616c7265616479206d696e74656400000000604482015260640161090d565b6000818152600260205260409020546001600160a01b031615612e125760405162461bcd60e51b815260206004820152601c60248201527f4552433732313a20746f6b656e20616c7265616479206d696e74656400000000604482015260640161090d565b6001600160a01b038216600081815260036020908152604080832080546001019055848352600290915280822080546001600160a01b0319168417905551839291907fddf252ad1be2c89b69c2b068fc378daa952ba7f163c4a11628f55a4df523b3ef908290a45050565b6001600160e01b03198116811461240b57600080fd5b600060208284031215612ea557600080fd5b813561126181612e7d565b60005b83811015612ecb578181015183820152602001612eb3565b50506000910152565b60008151808452612eec816020860160208601612eb0565b601f01601f19169290920160200192915050565b6020815260006112616020830184612ed4565b600060208284031215612f2557600080fd5b5035919050565b6001600160a01b038116811461240b57600080fd5b60008060408385031215612f5457600080fd5b8235612f5f81612f2c565b946020939093013593505050565b634e487b7160e01b600052604160045260246000fd5b60405160e0810167ffffffffffffffff81118282101715612fa657612fa6612f6d565b60405290565b604051601f8201601f1916810167ffffffffffffffff81118282101715612fd557612fd5612f6d565b604052919050565b600067ffffffffffffffff821115612ff757612ff7612f6d565b5060051b60200190565b6000602080838503121561301457600080fd5b823567ffffffffffffffff81111561302b57600080fd5b8301601f8101851361303c57600080fd5b803561304f61304a82612fdd565b612fac565b81815260059190911b8201830190838101908783111561306e57600080fd5b928401925b8284101561308c57833582529284019290840190613073565b979650505050505050565b600080604083850312156130aa57600080fd5b8235915060208301356130bc81612f2c565b809150509250929050565b6000806000606084860312156130dc57600080fd5b83356130e781612f2c565b925060208401356130f781612f2c565b929592945050506040919091013590565b60006020828403121561311a57600080fd5b813561126181612f2c565b600081518084526020808501808196508360051b8101915082860160005b8581101561316d57828403895261315b848351612ed4565b98850198935090840190600101613143565b5091979650505050505050565b602081526000825160e06020840152613197610100840182612ed4565b90506020840151601f19808584030160408601526131b58383612ed4565b925060408601519150808584030160608601526131d28383612ed4565b92506001600160a01b036060870151166080860152608086015160a086015260a08601519150808584030160c086015261320c8383612ed4565b925060c08601519150808584030160e08601525061322a8282613125565b95945050505050565b60008060006060848603121561324857600080fd5b505081359360208301359350604090920135919050565b60006020808301818452808551808352604092508286019150828160051b87010184880160005b8381101561335c57603f1989840301855281516101408151855288820151818a8701526132b582870182612ed4565b915050878201516132d0898701826001600160a01b03169052565b506060828101516001600160a01b0316908601526080808301519086015260a08083015115159086015260c080830151868303828801526133118382612ed4565b60e085810151908901526101008086015190890152610120948501516001600160a01b038116868a01529490935091506133489050565b509588019593505090860190600101613286565b509098975050505050505050565b600067ffffffffffffffff82111561338457613384612f6d565b50601f01601f191660200190565b60006133a061304a8461336a565b90508281528383830111156133b457600080fd5b828260208301376000602084830101529392505050565b600082601f8301126133dc57600080fd5b61126183833560208501613392565b60008060006060848603121561340057600080fd5b833567ffffffffffffffff8082111561341857600080fd5b613424878388016133cb565b9450602086013591508082111561343a57600080fd5b50613447868287016133cb565b925050604084013561345881612f2c565b809150509250925092565b801515811461240b57600080fd5b6000806040838503121561348457600080fd5b823561348f81612f2c565b915060208301356130bc81613463565b600080604083850312156134b257600080fd5b82356134bd81612f2c565b9150602083013567ffffffffffffffff8111156134d957600080fd5b6134e5858286016133cb565b9150509250929050565b6000806000806080858703121561350557600080fd5b843561351081612f2c565b9350602085013561352081612f2c565b925060408501359150606085013567ffffffffffffffff81111561354357600080fd5b8501601f8101871361355457600080fd5b61356387823560208401613392565b91505092959194509250565b60008060008060008060c0878903121561358857600080fd5b863567ffffffffffffffff808211156135a057600080fd5b6135ac8a838b016133cb565b97506020890135965060408901359150808211156135c957600080fd5b506135d689828a016133cb565b9450506060870135925060808701356135ee81612f2c565b915060a08701356135fe81613463565b809150509295509295509295565b60006020808301818452808551808352604092508286019150828160051b87010184880160005b8381101561335c57603f19898403018552815160e0815181865261365982870182612ed4565b915050888201518582038a8701526136718282612ed4565b91505087820151858203898701526136898282612ed4565b9150506060808301518187015250608080830151868303828801526136ae8382612ed4565b9250505060a06001600160a01b038184015116818701525060c080830151925085820381870152506136e08183612ed4565b968901969450505090860190600101613633565b6000806040838503121561370757600080fd5b823561371281612f2c565b915060208301356130bc81612f2c565b600080600080600060a0868803121561373a57600080fd5b853567ffffffffffffffff8082111561375257600080fd5b61375e89838a016133cb565b9650602088013591508082111561377457600080fd5b61378089838a016133cb565b9550604088013591508082111561379657600080fd5b6137a289838a016133cb565b9450606088013591506137b482612f2c565b909250608087013590808211156137ca57600080fd5b506137d7888289016133cb565b9150509295509295909350565b600181811c908216806137f857607f821691505b60208210810361381857634e487b7160e01b600052602260045260246000fd5b50919050565b634e487b7160e01b600052603260045260246000fd5b634e487b7160e01b600052601160045260246000fd5b60006001820161385c5761385c613834565b5060010190565b600082601f83011261387457600080fd5b815161388261304a8261336a565b81815284602083860101111561389757600080fd5b61160b826020830160208701612eb0565b80516138b381612f2c565b919050565b600082601f8301126138c957600080fd5b815160206138d961304a83612fdd565b82815260059290921b840181019181810190868411156138f857600080fd5b8286015b8481101561393857805167ffffffffffffffff81111561391c5760008081fd5b61392a8986838b0101613863565b8452509183019183016138fc565b509695505050505050565b60006020828403121561395557600080fd5b815167ffffffffffffffff8082111561396d57600080fd5b9083019060e0828603121561398157600080fd5b613989612f83565b82518281111561399857600080fd5b6139a487828601613863565b8252506020830151828111156139b957600080fd5b6139c587828601613863565b6020830152506040830151828111156139dd57600080fd5b6139e987828601613863565b6040830152506139fb606084016138a8565b60608201526080830151608082015260a083015182811115613a1c57600080fd5b613a2887828601613863565b60a08301525060c083015182811115613a4057600080fd5b613a4c878286016138b8565b60c08301525095945050505050565b600060208284031215613a6d57600080fd5b5051919050565b808201808211156107be576107be613834565b606081526000613a9a6060830186612ed4565b8281036020840152613aac8186612ed4565b9150506001600160a01b0383166040830152949350505050565b6001600160a01b038316815260406020820152600061160b6040830184612ed4565b600060208284031215613afa57600080fd5b815161126181613463565b60008351613b17818460208801612eb0565b835190830190613b2b818360208801612eb0565b01949350505050565b80820281158282048414176107be576107be613834565b600082613b6857634e487b7160e01b600052601260045260246000fd5b500490565b818103818111156107be576107be613834565b601f8211156109ae57600081815260208120601f850160051c81016020861015613ba75750805b601f850160051c820191505b81811015610aad57828155600101613bb3565b815167ffffffffffffffff811115613be057613be0612f6d565b613bf481613bee84546137e4565b84613b80565b602080601f831160018114613c295760008415613c115750858301515b600019600386901b1c1916600185901b178555610aad565b600085815260208120601f198616915b82811015613c5857888601518255948401946001909101908401613c39565b5085821015613c765787850151600019600388901b60f8161c191681555b5050505050600190811b01905550565b60006020808385031215613c9957600080fd5b825167ffffffffffffffff80821115613cb157600080fd5b818501915085601f830112613cc557600080fd5b8151613cd361304a82612fdd565b81815260059190911b83018401908481019088831115613cf257600080fd5b8585015b83811015613e1b57805185811115613d0d57600080fd5b860160e0818c03601f19011215613d245760008081fd5b613d2c612f83565b8882015187811115613d3e5760008081fd5b613d4c8d8b83860101613863565b82525060408083015188811115613d635760008081fd5b613d718e8c83870101613863565b8b8401525060608084015189811115613d8a5760008081fd5b613d988f8d83880101613863565b83850152506080915081840151818401525060a08084015189811115613dbe5760008081fd5b613dcc8f8d83880101613863565b838501525060c09150613de08285016138a8565b9083015260e083015188811115613df75760008081fd5b613e058e8c83870101613863565b9183019190915250845250918601918601613cf6565b5098975050505050505050565b60a081526000613e3b60a0830188612ed4565b8281036020840152613e4d8188612ed4565b90508281036040840152613e618187612ed4565b90506001600160a01b03851660608401528281036080840152613e848185612ed4565b98975050505050505050565b60006001600160a01b03808716835280861660208401525083604083015260806060830152613ec26080830184612ed4565b9695505050505050565b600060208284031215613ede57600080fd5b815161126181612e7d56fea26469706673582212201c78d7cc32192ed594482d1dd11f147f8f02d01aaffa55fa00648eecd563cca564736f6c63430008140033",
  "linkReferences": {},
  "deployedLinkReferences": {}
}