{
  "_format": "hh-sol-artifact-1",
  "contractName": "Tweets",
  "sourceName": "contracts/Tweets.sol",
  "abi": [
    {
      "inputs": [
        {
          "internalType": "address",
          "name": "pubkey",
          "type": "address"
        },
        {
          "internalType": "uint256",
          "name": "index",
          "type": "uint256"
        }
      ],
      "name": "DeletingText",
      "outputs": [],
      "stateMutability": "nonpayable",
      "type": "function"
    },
    {
      "inputs": [],
      "name": "GetTextData",
      "outputs": [
        {
          "components": [
            {
              "internalType": "string",
              "name": "Profile",
              "type": "string"
            },
            {
              "internalType": "string",
              "name": "Fname",
              "type": "string"
            },
            {
              "internalType": "string",
              "name": "Lname",
              "type": "string"
            },
            {
              "internalType": "uint256",
              "name": "timestamp",
              "type": "uint256"
            },
            {
              "internalType": "string",
              "name": "text",
              "type": "string"
            },
            {
              "internalType": "address",
              "name": "owner",
              "type": "address"
            },
            {
              "internalType": "string",
              "name": "NFTUrl",
              "type": "string"
            }
          ],
          "internalType": "struct Tweets.textfeed[]",
          "name": "",
          "type": "tuple[]"
        }
      ],
      "stateMutability": "view",
      "type": "function"
    },
    {
      "inputs": [
        {
          "internalType": "address",
          "name": "pubkey",
          "type": "address"
        }
      ],
      "name": "GetUserData",
      "outputs": [
        {
          "components": [
            {
              "internalType": "string",
              "name": "FName",
              "type": "string"
            },
            {
              "internalType": "string",
              "name": "LName",
              "type": "string"
            },
            {
              "internalType": "string",
              "name": "profilePic",
              "type": "string"
            },
            {
              "internalType": "address",
              "name": "owner",
              "type": "address"
            },
            {
              "internalType": "uint256",
              "name": "timestamp",
              "type": "uint256"
            },
            {
              "internalType": "string",
              "name": "password",
              "type": "string"
            },
            {
              "internalType": "string[]",
              "name": "Text",
              "type": "string[]"
            }
          ],
          "internalType": "struct Tweets.User",
          "name": "",
          "type": "tuple"
        }
      ],
      "stateMutability": "view",
      "type": "function"
    },
    {
      "inputs": [
        {
          "internalType": "uint256",
          "name": "",
          "type": "uint256"
        }
      ],
      "name": "GlobaltextFeed",
      "outputs": [
        {
          "internalType": "string",
          "name": "Profile",
          "type": "string"
        },
        {
          "internalType": "string",
          "name": "Fname",
          "type": "string"
        },
        {
          "internalType": "string",
          "name": "Lname",
          "type": "string"
        },
        {
          "internalType": "uint256",
          "name": "timestamp",
          "type": "uint256"
        },
        {
          "internalType": "string",
          "name": "text",
          "type": "string"
        },
        {
          "internalType": "address",
          "name": "owner",
          "type": "address"
        },
        {
          "internalType": "string",
          "name": "NFTUrl",
          "type": "string"
        }
      ],
      "stateMutability": "view",
      "type": "function"
    },
    {
      "inputs": [
        {
          "internalType": "address",
          "name": "userKey",
          "type": "address"
        },
        {
          "internalType": "string",
          "name": "password",
          "type": "string"
        }
      ],
      "name": "Login",
      "outputs": [
        {
          "internalType": "bool",
          "name": "",
          "type": "bool"
        }
      ],
      "stateMutability": "view",
      "type": "function"
    },
    {
      "inputs": [
        {
          "internalType": "string",
          "name": "Data",
          "type": "string"
        },
        {
          "internalType": "string",
          "name": "NFTUrl",
          "type": "string"
        },
        {
          "internalType": "address",
          "name": "pubkey",
          "type": "address"
        }
      ],
      "name": "PostText",
      "outputs": [],
      "stateMutability": "payable",
      "type": "function"
    },
    {
      "inputs": [
        {
          "internalType": "string",
          "name": "FirstName",
          "type": "string"
        },
        {
          "internalType": "string",
          "name": "LastName",
          "type": "string"
        },
        {
          "internalType": "string",
          "name": "Profile",
          "type": "string"
        },
        {
          "internalType": "address",
          "name": "userKey",
          "type": "address"
        },
        {
          "internalType": "string",
          "name": "password",
          "type": "string"
        }
      ],
      "name": "SignUp",
      "outputs": [],
      "stateMutability": "payable",
      "type": "function"
    },
    {
      "inputs": [
        {
          "internalType": "uint256",
          "name": "",
          "type": "uint256"
        }
      ],
      "name": "Users",
      "outputs": [
        {
          "internalType": "string",
          "name": "FName",
          "type": "string"
        },
        {
          "internalType": "string",
          "name": "LName",
          "type": "string"
        },
        {
          "internalType": "string",
          "name": "profilePic",
          "type": "string"
        },
        {
          "internalType": "address",
          "name": "owner",
          "type": "address"
        },
        {
          "internalType": "uint256",
          "name": "timestamp",
          "type": "uint256"
        },
        {
          "internalType": "string",
          "name": "password",
          "type": "string"
        }
      ],
      "stateMutability": "view",
      "type": "function"
    },
    {
      "inputs": [
        {
          "internalType": "address",
          "name": "pubkey",
          "type": "address"
        }
      ],
      "name": "checksignup",
      "outputs": [
        {
          "internalType": "bool",
          "name": "",
          "type": "bool"
        }
      ],
      "stateMutability": "view",
      "type": "function"
    }
  ],
  "bytecode": "0x608060405234801561001057600080fd5b506133b8806100206000396000f3fe6080604052600436106100865760003560e01c8063a4b4e42b11610059578063a4b4e42b1461014f578063dc92b32d1461018c578063de27affc146101b7578063ecdef347146101fa578063f80596421461023757610086565b80631e98fd1c1461008b5780632753fe7d146100cd57806335260d291461010a57806398dda60f14610133575b600080fd5b34801561009757600080fd5b506100b260048036038101906100ad91906128e9565b610253565b6040516100c496959493929190612dd5565b60405180910390f35b3480156100d957600080fd5b506100f460048036038101906100ef91906126da565b6104df565b6040516101019190612f44565b60405180910390f35b34801561011657600080fd5b50610131600480360381019061012c9190612757565b61098c565b005b61014d60048036038101906101489190612793565b61128d565b005b34801561015b57600080fd5b5061017660048036038101906101719190612703565b611800565b6040516101839190612dba565b60405180910390f35b34801561019857600080fd5b506101a16119c3565b6040516101ae9190612d98565b60405180910390f35b3480156101c357600080fd5b506101de60048036038101906101d991906128e9565b611d5c565b6040516101f19796959493929190612e52565b60405180910390f35b34801561020657600080fd5b50610221600480360381019061021c91906126da565b612076565b60405161022e9190612dba565b60405180910390f35b610251600480360381019061024c9190612812565b612152565b005b6000818154811061026357600080fd5b90600052602060002090600702016000915090508060000180546102869061318f565b80601f01602080910402602001604051908101604052809291908181526020018280546102b29061318f565b80156102ff5780601f106102d4576101008083540402835291602001916102ff565b820191906000526020600020905b8154815290600101906020018083116102e257829003601f168201915b5050505050908060010180546103149061318f565b80601f01602080910402602001604051908101604052809291908181526020018280546103409061318f565b801561038d5780601f106103625761010080835404028352916020019161038d565b820191906000526020600020905b81548152906001019060200180831161037057829003601f168201915b5050505050908060020180546103a29061318f565b80601f01602080910402602001604051908101604052809291908181526020018280546103ce9061318f565b801561041b5780601f106103f05761010080835404028352916020019161041b565b820191906000526020600020905b8154815290600101906020018083116103fe57829003601f168201915b5050505050908060030160009054906101000a900473ffffffffffffffffffffffffffffffffffffffff169080600401549080600501805461045c9061318f565b80601f01602080910402602001604051908101604052809291908181526020018280546104889061318f565b80156104d55780601f106104aa576101008083540402835291602001916104d5565b820191906000526020600020905b8154815290600101906020018083116104b857829003601f168201915b5050505050905086565b6104e7612374565b60005b600080549050811015610985578273ffffffffffffffffffffffffffffffffffffffff1660008281548110610548577f4e487b7100000000000000000000000000000000000000000000000000000000600052603260045260246000fd5b906000526020600020906007020160030160009054906101000a900473ffffffffffffffffffffffffffffffffffffffff1673ffffffffffffffffffffffffffffffffffffffff16141561097257600081815481106105d0577f4e487b7100000000000000000000000000000000000000000000000000000000600052603260045260246000fd5b90600052602060002090600702016040518060e00160405290816000820180546105f99061318f565b80601f01602080910402602001604051908101604052809291908181526020018280546106259061318f565b80156106725780601f1061064757610100808354040283529160200191610672565b820191906000526020600020905b81548152906001019060200180831161065557829003601f168201915b5050505050815260200160018201805461068b9061318f565b80601f01602080910402602001604051908101604052809291908181526020018280546106b79061318f565b80156107045780601f106106d957610100808354040283529160200191610704565b820191906000526020600020905b8154815290600101906020018083116106e757829003601f168201915b5050505050815260200160028201805461071d9061318f565b80601f01602080910402602001604051908101604052809291908181526020018280546107499061318f565b80156107965780601f1061076b57610100808354040283529160200191610796565b820191906000526020600020905b81548152906001019060200180831161077957829003601f168201915b505050505081526020016003820160009054906101000a900473ffffffffffffffffffffffffffffffffffffffff1673ffffffffffffffffffffffffffffffffffffffff1673ffffffffffffffffffffffffffffffffffffffff1681526020016004820154815260200160058201805461080f9061318f565b80601f016020809104026020016040519081016040528092919081815260200182805461083b9061318f565b80156108885780601f1061085d57610100808354040283529160200191610888565b820191906000526020600020905b81548152906001019060200180831161086b57829003601f168201915b5050505050815260200160068201805480602002602001604051908101604052809291908181526020016000905b828210156109625783829060005260206000200180546108d59061318f565b80601f01602080910402602001604051908101604052809291908181526020018280546109019061318f565b801561094e5780601f106109235761010080835404028352916020019161094e565b820191906000526020600020905b81548152906001019060200180831161093157829003601f168201915b5050505050815260200190600101906108b6565b5050505081525050915050610987565b808061097d906131f2565b9150506104ea565b505b919050565b60008060005b600080549050811015610a5857600081815481106109d9577f4e487b7100000000000000000000000000000000000000000000000000000000600052603260045260246000fd5b906000526020600020906007020160030160009054906101000a900473ffffffffffffffffffffffffffffffffffffffff1673ffffffffffffffffffffffffffffffffffffffff168573ffffffffffffffffffffffffffffffffffffffff161415610a45578092508391505b8080610a50906131f2565b915050610992565b5060008190505b600160008481548110610a9b577f4e487b7100000000000000000000000000000000000000000000000000000000600052603260045260246000fd5b906000526020600020906007020160060180549050610aba91906130d1565b811015610c125760008381548110610afb577f4e487b7100000000000000000000000000000000000000000000000000000000600052603260045260246000fd5b9060005260206000209060070201600601600182610b19919061307b565b81548110610b50577f4e487b7100000000000000000000000000000000000000000000000000000000600052603260045260246000fd5b9060005260206000200160008481548110610b94577f4e487b7100000000000000000000000000000000000000000000000000000000600052603260045260246000fd5b90600052602060002090600702016006018281548110610bdd577f4e487b7100000000000000000000000000000000000000000000000000000000600052603260045260246000fd5b90600052602060002001908054610bf39061318f565b610bfe9291906123c7565b508080610c0a906131f2565b915050610a5f565b5060008281548110610c4d577f4e487b7100000000000000000000000000000000000000000000000000000000600052603260045260246000fd5b9060005260206000209060070201600601600160008481548110610c9a577f4e487b7100000000000000000000000000000000000000000000000000000000600052603260045260246000fd5b906000526020600020906007020160060180549050610cb991906130d1565b81548110610cf0577f4e487b7100000000000000000000000000000000000000000000000000000000600052603260045260246000fd5b906000526020600020016000610d069190612454565b60008281548110610d40577f4e487b7100000000000000000000000000000000000000000000000000000000600052603260045260246000fd5b9060005260206000209060070201600601805480610d87577f4e487b7100000000000000000000000000000000000000000000000000000000600052603160045260246000fd5b600190038181906000526020600020016000610da39190612454565b9055600080600090505b600180549050811015610efb5760018181548110610df4577f4e487b7100000000000000000000000000000000000000000000000000000000600052603260045260246000fd5b9060005260206000209060070201600401604051602001610e159190612d81565b6040516020818303038152906040528051906020012060008581548110610e65577f4e487b7100000000000000000000000000000000000000000000000000000000600052603260045260246000fd5b90600052602060002090600702016006018481548110610eae577f4e487b7100000000000000000000000000000000000000000000000000000000600052603260045260246000fd5b90600052602060002001604051602001610ec89190612d81565b604051602081830303815290604052805190602001201415610ee8578091505b8080610ef3906131f2565b915050610dad565b5060008190505b60018080549050610f1391906130d1565b8110156110dc5760018082610f28919061307b565b81548110610f5f577f4e487b7100000000000000000000000000000000000000000000000000000000600052603260045260246000fd5b906000526020600020906007020160018281548110610fa7577f4e487b7100000000000000000000000000000000000000000000000000000000600052603260045260246000fd5b90600052602060002090600702016000820181600001908054610fc99061318f565b610fd4929190612494565b506001820181600101908054610fe99061318f565b610ff4929190612494565b5060028201816002019080546110099061318f565b611014929190612494565b506003820154816003015560048201816004019080546110339061318f565b61103e929190612494565b506005820160009054906101000a900473ffffffffffffffffffffffffffffffffffffffff168160050160006101000a81548173ffffffffffffffffffffffffffffffffffffffff021916908373ffffffffffffffffffffffffffffffffffffffff16021790555060068201816006019080546110ba9061318f565b6110c5929190612494565b5090505080806110d4906131f2565b915050610f02565b5060018080805490506110ef91906130d1565b81548110611126577f4e487b7100000000000000000000000000000000000000000000000000000000600052603260045260246000fd5b9060005260206000209060070201600080820160006111459190612454565b6001820160006111559190612454565b6002820160006111659190612454565b600382016000905560048201600061117d9190612454565b6005820160006101000a81549073ffffffffffffffffffffffffffffffffffffffff02191690556006820160006111b49190612454565b505060018054806111ee577f4e487b7100000000000000000000000000000000000000000000000000000000600052603160045260246000fd5b6001900381819060005260206000209060070201600080820160006112139190612454565b6001820160006112239190612454565b6002820160006112339190612454565b600382016000905560048201600061124b9190612454565b6005820160006101000a81549073ffffffffffffffffffffffffffffffffffffffff02191690556006820160006112829190612454565b505090555050505050565b6001151561129a82612076565b1515146112dc576040517f08c379a00000000000000000000000000000000000000000000000000000000081526004016112d390612ee4565b60405180910390fd5b6000805b6000805490508110156114285760008181548110611327577f4e487b7100000000000000000000000000000000000000000000000000000000600052603260045260246000fd5b906000526020600020906007020160030160009054906101000a900473ffffffffffffffffffffffffffffffffffffffff1673ffffffffffffffffffffffffffffffffffffffff168373ffffffffffffffffffffffffffffffffffffffff16141561141557600081815481106113c6577f4e487b7100000000000000000000000000000000000000000000000000000000600052603260045260246000fd5b906000526020600020906007020160060185908060018154018082558091505060019003906000526020600020016000909190919091509080519060200190611410929190612521565b508091505b8080611420906131f2565b9150506112e0565b5060016040518060e0016040528060008481548110611470577f4e487b7100000000000000000000000000000000000000000000000000000000600052603260045260246000fd5b9060005260206000209060070201600201805461148c9061318f565b80601f01602080910402602001604051908101604052809291908181526020018280546114b89061318f565b80156115055780601f106114da57610100808354040283529160200191611505565b820191906000526020600020905b8154815290600101906020018083116114e857829003601f168201915b5050505050815260200160008481548110611549577f4e487b7100000000000000000000000000000000000000000000000000000000600052603260045260246000fd5b906000526020600020906007020160000180546115659061318f565b80601f01602080910402602001604051908101604052809291908181526020018280546115919061318f565b80156115de5780601f106115b3576101008083540402835291602001916115de565b820191906000526020600020905b8154815290600101906020018083116115c157829003601f168201915b5050505050815260200160008481548110611622577f4e487b7100000000000000000000000000000000000000000000000000000000600052603260045260246000fd5b9060005260206000209060070201600101805461163e9061318f565b80601f016020809104026020016040519081016040528092919081815260200182805461166a9061318f565b80156116b75780601f1061168c576101008083540402835291602001916116b7565b820191906000526020600020905b81548152906001019060200180831161169a57829003601f168201915b505050505081526020014281526020018681526020018473ffffffffffffffffffffffffffffffffffffffff1681526020018581525090806001815401808255809150506001900390600052602060002090600702016000909190919091506000820151816000019080519060200190611732929190612521565b50602082015181600101908051906020019061174f929190612521565b50604082015181600201908051906020019061176c929190612521565b50606082015181600301556080820151816004019080519060200190611793929190612521565b5060a08201518160050160006101000a81548173ffffffffffffffffffffffffffffffffffffffff021916908373ffffffffffffffffffffffffffffffffffffffff16021790555060c08201518160060190805190602001906117f7929190612521565b50505050505050565b600061180b83612076565b61184a576040517f08c379a000000000000000000000000000000000000000000000000000000000815260040161184190612f04565b60405180910390fd5b60005b6000805490508110156119b7578373ffffffffffffffffffffffffffffffffffffffff16600082815481106118ab577f4e487b7100000000000000000000000000000000000000000000000000000000600052603260045260246000fd5b906000526020600020906007020160030160009054906101000a900473ffffffffffffffffffffffffffffffffffffffff1673ffffffffffffffffffffffffffffffffffffffff1614801561199557508260405160200161190c9190612d6a565b604051602081830303815290604052805190602001206000828154811061195c577f4e487b7100000000000000000000000000000000000000000000000000000000600052603260045260246000fd5b906000526020600020906007020160050160405160200161197d9190612d81565b60405160208183030381529060405280519060200120145b156119a45760019150506119bd565b80806119af906131f2565b91505061184d565b50600090505b92915050565b60606001805480602002602001604051908101604052809291908181526020016000905b82821015611d5357838290600052602060002090600702016040518060e0016040529081600082018054611a1a9061318f565b80601f0160208091040260200160405190810160405280929190818152602001828054611a469061318f565b8015611a935780601f10611a6857610100808354040283529160200191611a93565b820191906000526020600020905b815481529060010190602001808311611a7657829003601f168201915b50505050508152602001600182018054611aac9061318f565b80601f0160208091040260200160405190810160405280929190818152602001828054611ad89061318f565b8015611b255780601f10611afa57610100808354040283529160200191611b25565b820191906000526020600020905b815481529060010190602001808311611b0857829003601f168201915b50505050508152602001600282018054611b3e9061318f565b80601f0160208091040260200160405190810160405280929190818152602001828054611b6a9061318f565b8015611bb75780601f10611b8c57610100808354040283529160200191611bb7565b820191906000526020600020905b815481529060010190602001808311611b9a57829003601f168201915b5050505050815260200160038201548152602001600482018054611bda9061318f565b80601f0160208091040260200160405190810160405280929190818152602001828054611c069061318f565b8015611c535780601f10611c2857610100808354040283529160200191611c53565b820191906000526020600020905b815481529060010190602001808311611c3657829003601f168201915b505050505081526020016005820160009054906101000a900473ffffffffffffffffffffffffffffffffffffffff1673ffffffffffffffffffffffffffffffffffffffff1673ffffffffffffffffffffffffffffffffffffffff168152602001600682018054611cc29061318f565b80601f0160208091040260200160405190810160405280929190818152602001828054611cee9061318f565b8015611d3b5780601f10611d1057610100808354040283529160200191611d3b565b820191906000526020600020905b815481529060010190602001808311611d1e57829003601f168201915b505050505081525050815260200190600101906119e7565b50505050905090565b60018181548110611d6c57600080fd5b9060005260206000209060070201600091509050806000018054611d8f9061318f565b80601f0160208091040260200160405190810160405280929190818152602001828054611dbb9061318f565b8015611e085780601f10611ddd57610100808354040283529160200191611e08565b820191906000526020600020905b815481529060010190602001808311611deb57829003601f168201915b505050505090806001018054611e1d9061318f565b80601f0160208091040260200160405190810160405280929190818152602001828054611e499061318f565b8015611e965780601f10611e6b57610100808354040283529160200191611e96565b820191906000526020600020905b815481529060010190602001808311611e7957829003601f168201915b505050505090806002018054611eab9061318f565b80601f0160208091040260200160405190810160405280929190818152602001828054611ed79061318f565b8015611f245780601f10611ef957610100808354040283529160200191611f24565b820191906000526020600020905b815481529060010190602001808311611f0757829003601f168201915b505050505090806003015490806004018054611f3f9061318f565b80601f0160208091040260200160405190810160405280929190818152602001828054611f6b9061318f565b8015611fb85780601f10611f8d57610100808354040283529160200191611fb8565b820191906000526020600020905b815481529060010190602001808311611f9b57829003601f168201915b5050505050908060050160009054906101000a900473ffffffffffffffffffffffffffffffffffffffff1690806006018054611ff39061318f565b80601f016020809104026020016040519081016040528092919081815260200182805461201f9061318f565b801561206c5780601f106120415761010080835404028352916020019161206c565b820191906000526020600020905b81548152906001019060200180831161204f57829003601f168201915b5050505050905087565b600080600090505b600080549050811015612147578273ffffffffffffffffffffffffffffffffffffffff16600082815481106120dc577f4e487b7100000000000000000000000000000000000000000000000000000000600052603260045260246000fd5b906000526020600020906007020160030160009054906101000a900473ffffffffffffffffffffffffffffffffffffffff1673ffffffffffffffffffffffffffffffffffffffff16141561213457600191505061214d565b808061213f906131f2565b91505061207e565b50600090505b919050565b6000151561215f83612076565b1515146121a1576040517f08c379a000000000000000000000000000000000000000000000000000000000815260040161219890612f24565b60405180910390fd5b60006040518060e001604052808781526020018681526020018581526020018473ffffffffffffffffffffffffffffffffffffffff168152602001428152602001838152602001600067ffffffffffffffff811115612229577f4e487b7100000000000000000000000000000000000000000000000000000000600052604160045260246000fd5b60405190808252806020026020018201604052801561225c57816020015b60608152602001906001900390816122475790505b50815250908060018154018082558091505060019003906000526020600020906007020160009091909190915060008201518160000190805190602001906122a5929190612521565b5060208201518160010190805190602001906122c2929190612521565b5060408201518160020190805190602001906122df929190612521565b5060608201518160030160006101000a81548173ffffffffffffffffffffffffffffffffffffffff021916908373ffffffffffffffffffffffffffffffffffffffff1602179055506080820151816004015560a082015181600501908051906020019061234d929190612521565b5060c082015181600601908051906020019061236a9291906125a7565b5050505050505050565b6040518060e00160405280606081526020016060815260200160608152602001600073ffffffffffffffffffffffffffffffffffffffff1681526020016000815260200160608152602001606081525090565b8280546123d39061318f565b90600052602060002090601f0160209004810192826123f55760008555612443565b82601f106124065780548555612443565b8280016001018555821561244357600052602060002091601f016020900482015b82811115612442578254825591600101919060010190612427565b5b5090506124509190612607565b5090565b5080546124609061318f565b6000825580601f106124725750612491565b601f0160209004906000526020600020908101906124909190612607565b5b50565b8280546124a09061318f565b90600052602060002090601f0160209004810192826124c25760008555612510565b82601f106124d35780548555612510565b8280016001018555821561251057600052602060002091601f016020900482015b8281111561250f5782548255916001019190600101906124f4565b5b50905061251d9190612607565b5090565b82805461252d9061318f565b90600052602060002090601f01602090048101928261254f5760008555612596565b82601f1061256857805160ff1916838001178555612596565b82800160010185558215612596579182015b8281111561259557825182559160200191906001019061257a565b5b5090506125a39190612607565b5090565b8280548282559060005260206000209081019282156125f6579160200282015b828111156125f55782518290805190602001906125e5929190612521565b50916020019190600101906125c7565b5b5090506126039190612624565b5090565b5b80821115612620576000816000905550600101612608565b5090565b5b80821115612644576000818161263b9190612454565b50600101612625565b5090565b600061265b61265684612f8b565b612f66565b90508281526020810184848401111561267357600080fd5b61267e84828561314d565b509392505050565b60008135905061269581613354565b92915050565b600082601f8301126126ac57600080fd5b81356126bc848260208601612648565b91505092915050565b6000813590506126d48161336b565b92915050565b6000602082840312156126ec57600080fd5b60006126fa84828501612686565b91505092915050565b6000806040838503121561271657600080fd5b600061272485828601612686565b925050602083013567ffffffffffffffff81111561274157600080fd5b61274d8582860161269b565b9150509250929050565b6000806040838503121561276a57600080fd5b600061277885828601612686565b9250506020612789858286016126c5565b9150509250929050565b6000806000606084860312156127a857600080fd5b600084013567ffffffffffffffff8111156127c257600080fd5b6127ce8682870161269b565b935050602084013567ffffffffffffffff8111156127eb57600080fd5b6127f78682870161269b565b925050604061280886828701612686565b9150509250925092565b600080600080600060a0868803121561282a57600080fd5b600086013567ffffffffffffffff81111561284457600080fd5b6128508882890161269b565b955050602086013567ffffffffffffffff81111561286d57600080fd5b6128798882890161269b565b945050604086013567ffffffffffffffff81111561289657600080fd5b6128a28882890161269b565b93505060606128b388828901612686565b925050608086013567ffffffffffffffff8111156128d057600080fd5b6128dc8882890161269b565b9150509295509295909350565b6000602082840312156128fb57600080fd5b6000612909848285016126c5565b91505092915050565b600061291e8383612a51565b905092915050565b60006129328383612c94565b905092915050565b61294381613105565b82525050565b61295281613105565b82525050565b600061296382612ff1565b61296d818561302c565b93508360208202850161297f85612fbc565b8060005b858110156129bb578484038952815161299c8582612912565b94506129a783613012565b925060208a01995050600181019050612983565b50829750879550505050505092915050565b60006129d882612ffc565b6129e2818561303d565b9350836020820285016129f485612fcc565b8060005b85811015612a305784840389528151612a118582612926565b9450612a1c8361301f565b925060208a019950506001810190506129f8565b50829750879550505050505092915050565b612a4b81613117565b82525050565b6000612a5c82613007565b612a66818561304e565b9350612a7681856020860161315c565b612a7f816132c8565b840191505092915050565b6000612a9582613007565b612a9f818561305f565b9350612aaf81856020860161315c565b612ab8816132c8565b840191505092915050565b6000612ace82613007565b612ad88185613070565b9350612ae881856020860161315c565b80840191505092915050565b60008154612b018161318f565b612b0b8186613070565b94506001821660008114612b265760018114612b3757612b6a565b60ff19831686528186019350612b6a565b612b4085612fdc565b60005b83811015612b6257815481890152600182019150602081019050612b43565b838801955050505b50505092915050565b6000612b80600e8361305f565b9150612b8b826132d9565b602082019050919050565b6000612ba3600e8361305f565b9150612bae82613302565b602082019050919050565b6000612bc660178361305f565b9150612bd18261332b565b602082019050919050565b600060e0830160008301518482036000860152612bf98282612a51565b91505060208301518482036020860152612c138282612a51565b91505060408301518482036040860152612c2d8282612a51565b9150506060830151612c42606086018261293a565b506080830151612c556080860182612d4c565b5060a083015184820360a0860152612c6d8282612a51565b91505060c083015184820360c0860152612c878282612958565b9150508091505092915050565b600060e0830160008301518482036000860152612cb18282612a51565b91505060208301518482036020860152612ccb8282612a51565b91505060408301518482036040860152612ce58282612a51565b9150506060830151612cfa6060860182612d4c565b5060808301518482036080860152612d128282612a51565b91505060a0830151612d2760a086018261293a565b5060c083015184820360c0860152612d3f8282612a51565b9150508091505092915050565b612d5581613143565b82525050565b612d6481613143565b82525050565b6000612d768284612ac3565b915081905092915050565b6000612d8d8284612af4565b915081905092915050565b60006020820190508181036000830152612db281846129cd565b905092915050565b6000602082019050612dcf6000830184612a42565b92915050565b600060c0820190508181036000830152612def8189612a8a565b90508181036020830152612e038188612a8a565b90508181036040830152612e178187612a8a565b9050612e266060830186612949565b612e336080830185612d5b565b81810360a0830152612e458184612a8a565b9050979650505050505050565b600060e0820190508181036000830152612e6c818a612a8a565b90508181036020830152612e808189612a8a565b90508181036040830152612e948188612a8a565b9050612ea36060830187612d5b565b8181036080830152612eb58186612a8a565b9050612ec460a0830185612949565b81810360c0830152612ed68184612a8a565b905098975050505050505050565b60006020820190508181036000830152612efd81612b73565b9050919050565b60006020820190508181036000830152612f1d81612b96565b9050919050565b60006020820190508181036000830152612f3d81612bb9565b9050919050565b60006020820190508181036000830152612f5e8184612bdc565b905092915050565b6000612f70612f81565b9050612f7c82826131c1565b919050565b6000604051905090565b600067ffffffffffffffff821115612fa657612fa5613299565b5b612faf826132c8565b9050602081019050919050565b6000819050602082019050919050565b6000819050602082019050919050565b60008190508160005260206000209050919050565b600081519050919050565b600081519050919050565b600081519050919050565b6000602082019050919050565b6000602082019050919050565b600082825260208201905092915050565b600082825260208201905092915050565b600082825260208201905092915050565b600082825260208201905092915050565b600081905092915050565b600061308682613143565b915061309183613143565b9250827fffffffffffffffffffffffffffffffffffffffffffffffffffffffffffffffff038211156130c6576130c561323b565b5b828201905092915050565b60006130dc82613143565b91506130e783613143565b9250828210156130fa576130f961323b565b5b828203905092915050565b600061311082613123565b9050919050565b60008115159050919050565b600073ffffffffffffffffffffffffffffffffffffffff82169050919050565b6000819050919050565b82818337600083830152505050565b60005b8381101561317a57808201518184015260208101905061315f565b83811115613189576000848401525b50505050565b600060028204905060018216806131a757607f821691505b602082108114156131bb576131ba61326a565b5b50919050565b6131ca826132c8565b810181811067ffffffffffffffff821117156131e9576131e8613299565b5b80604052505050565b60006131fd82613143565b91507fffffffffffffffffffffffffffffffffffffffffffffffffffffffffffffffff8214156132305761322f61323b565b5b600182019050919050565b7f4e487b7100000000000000000000000000000000000000000000000000000000600052601160045260246000fd5b7f4e487b7100000000000000000000000000000000000000000000000000000000600052602260045260246000fd5b7f4e487b7100000000000000000000000000000000000000000000000000000000600052604160045260246000fd5b6000601f19601f8301169050919050565b7f55736572204e6f7420666f756e64000000000000000000000000000000000000600082015250565b7f55736572204e6f7420466f756e64000000000000000000000000000000000000600082015250565b7f596f75206861766520616c7265616479205369676e5570000000000000000000600082015250565b61335d81613105565b811461336857600080fd5b50565b61337481613143565b811461337f57600080fd5b5056fea26469706673582212202389b645a467564f8f633973c856403572926f5ed0d3f1317552b276f1ea3ec964736f6c63430008010033",
  "linkReferences": {},
  "deployedLinkReferences": {}
}